:020000040800F2
:10000000106F00209D020008AB020008AD0200083E
:10001000AF020008B1020008B302000800000000AF
:10002000000000000000000000000000B502000811
:10003000B702000800000000B9020008BB02000877
:10004000BD020008BD020008BD020008BD02000894
:10005000BD020008BD020008BD020008BD02000884
:10006000BD020008BD020008BD020008BD02000874
:10007000BD020008BD020008BD020008BD02000864
:10008000BD020008BD020008BD020008BD02000854
:10009000BD020008BD020008BD020008BD02000844
:1000A000BD020008BD020008BD020008BD02000834
:1000B000BD020008BD020008BD020008BD02000824
:1000C000BD020008BD020008BD020008BD02000814
:1000D000BD02000865180008BD020008BD02000846
:1000E000BD020008BD020008BD020008BD020008F4
:1000F000BD020008BD020008BD020008BD020008E4
:10010000BD020008BD020008BD020008BD020008D3
:10011000BD020008BD020008BD020008BD020008C3
:10012000BD020008BD020008BD020008BD020008B3
:10013000BD020008A1090008BD020008BD020008B8
:10014000BD020008BD020008BD020008BD02000893
:10015000BD020008BD020008BD020008BD02000883
:10016000BD020008BD020008BD020008BD02000873
:10017000BD020008BD020008BD020008000000002A
:10018000BD020008BD020008BD020008BD02000853
:10019000BD020008BD020008BD020008BD02000843
:1001A000BD020008BD020008BD02000800F002F810
:1001B00000F064F80AA090E8000C82448344AAF19D
:1001C0000107DA4501D100F059F8AFF2090EBAE89B
:1001D0000F0013F0010F18BFFB1A43F0010318477B
:1001E0000C1D00002C1D00000A444FF0000C10F8FC
:1001F000013B13F0070408BF10F8014B1D1108BFA5
:1002000010F8015B641E05D010F8016B641E01F844
:10021000016BF9D113F0080F1EBF10F8014BAD1C94
:100220000C1B09D16D1E58BF01F801CBFAD505E0B2
:1002300014F8016B01F8016B6D1EF9D59142D6D30C
:10024000704700000023002400250026103A28BF34
:1002500078C1FBD8520728BF30C148BF0B60704738
:10026000642900F07380782900F0AC80002070478A
:100270001FB501F019FE1FBD10B510BD00F0F6F955
:100280001146FFF7F5FF01F00BFD00F014FA03B47F
:10029000FFF7F2FF03BC01F02CFB00000B480168E4
:1002A00041F4700101600A480047FEE7FEE7FEE7FF
:1002B000FEE7FEE7FEE7FEE7FEE7FEE7FEE70000FB
:1002C00004480549034A054B7047000088ED00E0EB
:1002D000AD01000810670020106F0020106700209B
:1002E000704700000FB4044910B503AA029800F04B
:1002F0008FF910BC5DF814FBA400002070B5044613
:1003000085690068C10601D5302600E02026C007B7
:1003100007D070BDD4E9012130469047206A401CC7
:1003200020626D1EF6D570BD70B5044685690078F3
:10033000C00707D170BDD4E9012120209047206A71
:10034000401C20626D1EF6D570BD00002DE9F04105
:100350000646002410687529314616A510D0AFF363
:100360000080002802DA404213A507E031688A07BE
:1003700001D512A502E0490704D511A5012401E029
:10038000AFF3008000210A2206F1240709E0B0FB48
:10039000F2FCB0FBF2F302FB1C003030785418463C
:1003A000491C0028F3D123462A463046BDE8F041D7
:1003B00000F0D4B8000000002D0000002B00000069
:1003C0002000000070B504460D4621461068AFF3CA
:1003D00000802188090502D50F4A7A4402E00E4ABE
:1003E0007A440E32002104F1240305E000F00F06E8
:1003F0000009965D5E54491C0028F7D1207800233F
:10040000000704D5702D02D009B102231132204615
:10041000BDE8704000F0A2B8D41A00002DE9F05FEA
:10042000894604464FF0000ADFF824B1FB44C0F8C7
:1004300020A02046E168884700287DD0252806D0E6
:10044000D4E901219047206A401C2062F1E7002591
:100450005F462046E16888472028064607DB312EA4
:1004600005D2B81910F8200C08B10543F1E7A80728
:1004700001D525F00405C4F81CA00027C4F818A075
:100480002A2E09D0304601F02DFA38B304EB870844
:10049000303EC8F8186019E059F8041B204604EBF8
:1004A00087029161E1688847012F064618D1E0690B
:1004B000002820DA25F020051DE0D8F8180000EB10
:1004C000800006EB40003038C8F818002046E1688C
:1004D0008847064601F006FA0028EED1012F0AD01F
:1004E0002E2E08D12046E16888477F1C0646022F41
:1004F00045F02005C4DBA069002803DA404245F03E
:100500000105A061E80701D025F01005A6B1A6F10C
:100510004100192802D8203645F400654A46314684
:10052000204625604D46FFF79BFE60B1012807D0AD
:10053000ED1D25F0070000E007E000F1080978E76D
:1005400005F1040975E730467AE7206ABDE8F09FB7
:10055000AA1A000070477047704770472DE9F047AE
:100560000D4699469246044600F124080168880623
:1005700004D5E06921F01001216000E00120A842CB
:1005800001DD471B00E00027A1697A1902EB090091
:10059000081AA0612078C00602D42046FFF7AEFEFC
:1005A000002608E0D4E901211AF806009047206AE5
:1005B000401C761C20624E45F4DB2078C0060AD52C
:1005C0002046FFF79BFE06E0D4E90121302090474A
:1005D000206A401C2062381EA7F10107F4DC07E006
:1005E000D4E9012118F805009047206A401C2062D8
:1005F000281EA5F10105F3DC2046FFF795FE2078C3
:10060000000602D50220BDE8F0870120FBE70000CC
:10061000074B70B50D467B4400F011F804462846A0
:1006200000F020F810B14FF0FF3070BD204670BDD3
:10063000EF15000001694A1C02610878704700B597
:100640008FB0CDE901310021059105497944CDE90B
:10065000031011466846FFF7E1FE0FB000BD000031
:10066000E5FFFFFF007B00F080007047754600F05B
:100670002BF8AE4605006946534620F00700854634
:1006800018B020B5FFF71CFEBDE820404FF0000673
:100690004FF000074FF000084FF0000B21F007016A
:1006A000AC46ACE8C009ACE8C009ACE8C009ACE8AD
:1006B000C0098D46704710B50446AFF30080204650
:1006C000BDE81040FFF7E3BD00487047AC6600206E
:1006D0002F480068006800F0004098B92C48006876
:1006E000006800F4807068B12948006829490968E9
:1006F0004860284800688068401C2649096888606E
:100700000120704722480068006800F00040F0B9FE
:100710001F480068006800F40070C0B11C48006801
:10072000006800F4807090B9194800681949096898
:1007300008600020174909684860012015490968C8
:10074000886013480068C068114908601DE01048BF
:100750000068006800F00040B8B90D480068006803
:1007600000F4007088B90A480068006800F48070DE
:1007700058B9084800688068401C064909688860C4
:1007800003480068C068024908600020B9E700001B
:100790007C01002080010020014948617047000071
:1007A0000090024029B1064AD2690243044BDA6143
:1007B00004E0034AD2698243014BDA6170470000CA
:1007C0000090024030B10749896941F00201054AB1
:1007D000916105E00349896921F00201014A9161B3
:1007E000704700000090024070B50C46134600218F
:1007F000124D286000BF18E000EB41124FF0004599
:10080000156044F2F4555560C1EBC11505EB450583
:1008100004EB850595605D1E8D4204D900EB411502
:100820002035D56000E0D060491C9942E4D3044DE6
:10083000E860044D044E356070BD00007C0100206E
:1008400000900240A06600208001002030B10749DE
:10085000896941F40051054A916105E003498969BC
:1008600021F40051014A916170470000009002405C
:1008700030B50C46134600210F4D286000BF15E02F
:1008800000EB41124FF480151560C1EBC11505EB6B
:10089000450504EB850595605D1E8D4204D900EB8E
:1008A00041152035D56000E0D060491C9942E7D35E
:1008B000024D286130BD0000780100200090024008
:1008C00002680A430260704710B50848006840F0AB
:1008D000007006490860642000F00AF803480068C8
:1008E00020F000700149086010BD0000103802407F
:1008F00001B581B0002000900198009002E00098BE
:10090000401E009000980028F9D10CBD0348806972
:1009100040F4801001498861704700000090024057
:100920000148006880687047780100200020044971
:10093000096801F0010109B1012000E000207047C1
:10094000009002401EB50021002200920192029206
:10095000114A12681268C2F30D42111F00910F4A2A
:1009600012689268012A05D90C4A126812689268C6
:10097000019203E0084A126892680192064A1268DE
:100980000292054A1268D268034B1A609DE81C0067
:1009900080E81C001EBD00007C01002080010020BA
:1009A00030B587B0002533E001A8FFF7CBFF01A8E1
:1009B00007C804AB07C31D49049808601C49059883
:1009C000086000F099FF1B4800688068012803D97F
:1009D00018480068046800E0069C002504E04FF019
:1009E00000402060E4686D1C124800688068A842DE
:1009F000F5D800200F49096888600F48406900F069
:100A0000800020B180200C4948610020886000BF30
:100A1000FFF75EFE0028C7D14020FFF7BDFE4FF470
:100A20008030FFF7B9FE07B030BD0000C0000020E5
:100A3000B400002080010020009002402DE9FC411C
:100A400004460F464FF0000800BF0020019000BF91
:100A500000909548056925F01C059449D4F8BC0020
:100A600000FB01F69248864205D39248864202D2A4
:100A700045F008051AE08F48864205D38E48864225
:100A800002D245F00C0511E08B48864203D38B4817
:100A9000864200D20AE08948864205D388488642C9
:100AA00002D245F0040501E045F010057E480561DD
:100AB0004FF400420021384600F0A8FA10B9002097
:100AC000BDE8FC817F48FFF713FF206800284ED067
:100AD00000BF0098401C00900121384600F0B8F992
:100AE00000F0040018B9784900988842F1D376499B
:100AF0000098884201D10020E2E7002000904FF4E6
:100B000080520021384600F081FA08B90020D7E76A
:100B100000BF0098401C00900121384600F098F971
:100B200000F0200018B9684900988842F1D366495E
:100B30000098884201D10020C2E7002000901F21C8
:100B4000384600F085F9804608F0100018B14FF4DF
:100B50000060206201E00020206208F0040010B173
:100B60000020606116E04FF48040606112E0206A6E
:100B7000C0F3CF006169C1F34F0140EA01020021D7
:100B8000384600F043FA08B9002099E76FF07F403B
:100B9000FFF7AEFE444805684C480540D4E9010122
:100BA0000843E16808432169084361690843A16972
:100BB0000843E1690843216A0843616A0843A16A5E
:100BC0000843E16A0843216B0843616B084305430E
:100BD00035480560D4E90E010843216C0843616C77
:100BE0000843A16C0843E16C0843216D0843616D23
:100BF00008432D494860A06D8860E06DC8600846D4
:100C000085694FF641700540B4F86010606E40EAA7
:100C10000140A16E0843E16E0843216F0843616FF4
:100C20000843054320488561D4E91E0108431E4955
:100C3000C8612748856927480540D4E92001084351
:100C4000D4F888100843D4F88C100843D4F89010D6
:100C50000843D4F894100843D4F898100843D4F803
:100C60009C100843D4F8A010084305431848856138
:100C7000D4E929010843D4F8AC100843D4F8B010E3
:100C80000843D4F8B41040EA8100D4F8B8100843FF
:100C900040F400000E4908600846006840F08000FB
:100CA000086001200CE700000080024040420F0075
:100CB000002D3101C00E16020087930300E1F505F7
:100CC00080D1F008FFFF0F00FFFF04000F8120FF1D
:100CD00000900240233FDEF810B50B794C7943EACF
:100CE0000422094B03441A64CB781B068C7843EA30
:100CF00004434C7843EA04230C7843EA0402024B91
:100D000003445A6410BD00000080024010B5B0B02A
:100D10002548006840F0606023490860FFF7D4FD73
:100D200000F0CCF800BFFFF701FE0128FBD06846B9
:100D300000F0DEF801200090002007904FF40070D2
:100D40000A9000200B900E90119013901490159023
:100D50004FF480600990002020904FF000702190A7
:100D60000011239000202590269004202890C00593
:100D7000299040122A9080012B9040122C90400024
:100D80002E90C0202F9000216846FFF757FEC4B276
:100D9000012C06D105A0FFF7A5FA01210A48FFF7AB
:100DA00001FD204630B010BD30380240656E6162F2
:100DB0006C65206E6574776F726B20696E746572F6
:100DC000727570740D0A00004000010030B10749CF
:100DD000096841F00401054A116005E0034909680A
:100DE00021F00401014A11607047000000800240B8
:100DF00030B10749096841F00801054A116005E072
:100E00000349096821F00801014A11607047000098
:100E10000080024006480749086007480749086003
:100E200007480849086008480849086000207047DA
:100E300050020020AC00002050160020B00000201E
:100E4000502A0020B400002014480020B8000020E0
:100E500018B502460B460021002000901548016994
:100E600001F01C014FF4784000EAC22001434FF426
:100E7000F86000EA8310014321F0020141F0010112
:100E80000C48016100BF0098401C009009480169AE
:100E900001F0010018B1084C0098A042F3D3064CB1
:100EA0000098A04201D1002018BD0248406980B2DC
:100EB000FAE7000000800240FFFF040003480068DA
:100EC00040F00100014908607047000000900240B6
:100ED00000B50120FFF78CFFFFF718FD0120FFF799
:100EE00075FF0120FFF7B2FC0120FFF76BFC00BD8E
:100EF00001210160002141608160C16001614FF406
:100F00008041416100218161C1614FF40061016252
:100F1000002141628162C162016341638163C163F7
:100F2000402101642021416400218164C164016584
:100F300041658165C1650166802141660021816648
:100F4000C166016741678167C1674FF08061C0F882
:100F500080104910C0F884100021C0F888104FF4A8
:100F60000011C0F88C100021C0F89010C0F8941047
:100F7000C0F89810C0F89C10C0F8A0104FF0007195
:100F8000C0F8A4104912C0F8A8108901C0F8AC102C
:100F90004912C0F8B0100021C0F8B410C0F8B81061
:100FA00070470000014617480068006800F00040E4
:100FB00008B100207047C1F30C00124A126850605B
:100FC00010480068006840F040500E4A12681060F7
:100FD0000C480068006840F000400A4A126810603F
:100FE0000948406900F0040020B10420064A50611D
:100FF0000020506003480068C068024A1060012069
:10100000D8E70000780100200090024038B5034680
:101010000C460021002000901448016901F01C01D9
:101020004FF4784000EAC32001434FF4F86000EA2F
:101030008410014341F0020141F001010B4842617B
:10104000016100BF0098401C00900848016901F050
:10105000010018B1064D0098A842F3D3044D009842
:10106000A84201D1002038BD0120FCE700800240E9
:10107000FFFF040030B5CC1000F1200353F82430FA
:101080004C07E50E0F24AC40A343CD1000F1200423
:1010900044F82530CC1000F1200353F824304C07DD
:1010A000E40E02FA04F42343CD1000F1200444F8C6
:1010B000253030BD2DE9F0470C46DDE908670021F9
:1010C00000258C4600BF60E04FF0010808FA01F5EA
:1010D00004EA050CAC4557D1D0F800804FEA410A2C
:1010E0004FF0030909FA0AF928EA0908C0F8008054
:1010F000D0F800804FEA410902FA09F948EA0908E4
:10110000C0F80080012A01D0022A27D1D0F8088037
:101110004FEA410A4FF0030909FA0AF928EA0908D7
:10112000C0F80880D0F808804FEA410906FA09F9AA
:1011300048EA0908C0F80880D0F804904FF0010888
:1011400008FA01F829EA0809C0F80490D0F80480E8
:1011500003FA01F948EA0908C0F80480D0F80C80C5
:101160004FEA410A4FF0030909FA0AF928EA090887
:10117000C0F80C80D0F80C804FEA410907FA09F951
:1011800048EA0908C0F80C80491C10299CD3BDE826
:10119000F087000010B500200F4908600F48006874
:1011A00020F440600D4908600846006840F4806003
:1011B000086000200A49C1F89402022000F0E8FC0F
:1011C000012005490860022000F0E2FC00200449EB
:1011D000C1F8900210BD000090824342001C024002
:1011E000008043421CB50B48006840F0800009496C
:1011F00008600120022100230246CDE900103021C1
:101200000548FFF757FF0120044908600449C1F869
:1012100094021CBD30380240001C024090824342C0
:101220000080434210B500200F4908600F48006855
:1012300020F440600D4908600846006840F4806072
:10124000086001200A49C1F89402022000F0A0FCC5
:10125000012005490860022000F09AFC00200449A2
:10126000C1F8900210BD000090824342001C024071
:101270000080434270B5054600241648006820F4FB
:10128000406014490860084600680860002616E0BF
:10129000002011490860022000F07AFC01200F496B
:1012A000C1F890026006040E0B487C38006808B153
:1012B000601CC4B2012000F06BFC701CC6B2082E8A
:1012C000E6DB15B9FFF7AEFF01E0FFF763FF20464D
:1012D00070BD0000001C02409082434200804342E7
:1012E00070B504461548006820F440601349086052
:1012F0000846006840F480600860002010490860DB
:10130000002517E0E0090E49091D08606006040E7B
:10131000022000F03DFC01200A49C1F890020220A1
:1013200000F036FC002006490860022000F030FC86
:10133000681CC5B2082DE5DB70BD0000001C024032
:10134000908243420080434210B50F48006820F469
:1013500040600D4908600846006840F480600860FD
:1013600001200A4908600A49C1F89002042000F0EF
:101370000FFC002005490860042000F009FC002053
:101380000349C1F8900210BD001C02409482434200
:101390000080434210B50F48006820F440600D49BA
:1013A00008600846006840F48060086000200A4930
:1013B00008600A49C1F89402042000F0E9FB01200A
:1013C000054908600549C1F89402042000F0E0FBDB
:1013D00010BD0000001C0240908243420080434246
:1013E00010B500241348006820F4406011490860DB
:1013F00008460068086001200F49086000F0C8FB3B
:1014000001200E49C1F8900200F0C2FB07E0601C09
:10141000C4B2FA2C03DDFFF7BDFF012010BD064862
:10142000803800680028F2D10349091F086000BF16
:10143000F4E70000001C02409482434200804342D3
:101440001CB500244848006840F001004649086087
:101450000846006840F0020008600846006840F056
:10146000040008600846006840F0400008603E48FC
:101470001430006840F480403B49143108603B4818
:10148000006840F40000394908600120032100236E
:101490000222CDE9001086213548FFF70BFE01201E
:1014A000032100230222CDE9001032213148FFF749
:1014B00001FE0120032100230222CDE9001049038F
:1014C0002D48FFF7F7FD0120032100230222CDE97B
:1014D0000010C1022948FFF7EDFD0B22012124482D
:1014E000FFF7C8FD0B2202212148FFF7C3FD0B22A5
:1014F00007211F48FFF7BEFD0B2211461F48FFF7CB
:10150000B9FD0B2201211B48FFF7B4FD0B2204217A
:101510001848FFF7AFFD0B2205211648FFF7AAFD7B
:101520000B220D211448FFF7A5FD0B220E211248B6
:10153000FFF7A0FD0121072000F0B3F8322000F0F2
:101540000BFB0021072000F0ACF802233D22002114
:10155000084600F015F8FFF7D9FB04460CB9012046
:101560001CBD0020FCE70000303802400438014078
:10157000000002400008024000180240000402403F
:101580002DE9F0410746884614461D46284600F0DE
:1015900033F8C5F1040007FA00F60F20284100EAED
:1015A0000800064306F00F06E21704EBD262521160
:1015B000920002F1E022D2F800212146E31704EB69
:1015C000D3635B11A4EB431C012303FA0CF31A430E
:1015D0002046E31704EBD3635B119B0003F1E02388
:1015E000C3F800210348005D40EA06100149085590
:1015F000BDE8F08100E400E00146072323EA010290
:101600001202054B18684FF6FF031840034B1843AE
:101610001043014B186070470CED00E00000FA0524
:101620004A0A52020243014B1A60704708ED00E07B
:101630001CB500241048006840F002000E49086004
:10164000012000210B460A46CDE9001001030B489A
:10165000FFF730FDFFF7C6FDFFF776FE4020FFF7EE
:101660003FFEFFF7BDFE0446FFF794FEFF2000F0AB
:101670002BF820461CBD0000303802400004024018
:1016800010B50024FFF760FE4120FFF729FEFFF7A9
:10169000A7FE0020FFF7EEFD0446FFF77BFE204685
:1016A00010BD70B504460E46FFF7EAFF05461EB9A9
:1016B0000120A040854303E00120A0402843C5B29B
:1016C000284600F001F870BD10B50446FFF73CFE57
:1016D0004020FFF705FEFFF783FE2046FFF700FEE0
:1016E000FFF77EFEFFF756FE0A2000F035FA10BD28
:1016F000F0B504460D4616461F461448006840F0F3
:1017000001001249086000201049083108600F48A4
:1017100000680F4908400D4908600E48091D08601F
:10172000081F006820F48020091F08600020074976
:101730000C3108603B4632462946204600F00CF842
:1017400000210846FFF76CFFF0BD000000380240A2
:10175000FFFFF6FE10300024F0B504460D460021D0
:1017600000203D4E366846F480363B4F3E6001E037
:101770004E1CB1B2384E366806F400361EB941F63A
:10178000FF76B142F4DB41F6FF76B14201D1012090
:1017900060E0314E4036366846F080562E4F403776
:1017A0003E602E4E366846F440462C4F3E602A4E30
:1017B0000836366846F41446274F08373E60264EF2
:1017C000366826F08076244F3E6045EA841601276D
:1017D000C7EB520746EA074646EA036646F4800628
:1017E0001D4F3F1D3E603E1F366846F080763F1F0E
:1017F0003E6000BF184E366806F00076002EF9D025
:10180000174E366846F48076154F3E603E46366881
:1018100046F400763E603E46366846F480663E609A
:101820003E46366846F005063E600B4E0836366882
:1018300026F00306084F08373E603E46366846F0FD
:1018400002063E6000BF044E0836366806F00C06FD
:10185000082EF8D1F0BD00000038024000700040B2
:10186000003C02401C49096801F0200109B31A49F3
:101870004968C8B21949098801F40041C9B9174932
:10188000098801F4804161B10A2803D00021134A7C
:10189000118020E01149098841F400410F4A11806C
:1018A00019E00D2806D10D49098841F480410B4A01
:1018B000118010E009490988C1F30D01084A50540C
:1018C00006490988491C054A118011460988C7291B
:1018D00001DD00211180704700100140A8000020A8
:1018E0008801002030380A2801D2012070470020EA
:1018F000704700BF704700002DE9F0474FF0000827
:101900000027DFF8D891764800688089B0F5C16F6C
:1019100019D173480068D0F826007249884212D164
:10192000FEF7FEFF0546002403E06F48005D2855E2
:10193000641C2A2CF9DB2A20FFF734FB064616B973
:101940006AA0FEF7CFFC66480068808908287DD130
:1019500063480068C07D012843D1DFF880910A21E7
:10196000484600F0CBF880464FEA1820A9F10E0156
:10197000087681F819805A48006890F8280081F8A4
:1019800028005748006890F8290081F829000020B5
:1019900081F8240081F82500FEF7C2FF05460024E7
:1019A00004E04E480E38005D2855641C4A2CF8DBD4
:1019B0004A20FFF7F7FA064616B94CA0FEF792FC4C
:1019C000002046490E390876487681F8220081F8D1
:1019D000230081F8240081F8250081F8280081F88F
:1019E00029003F480068C07D062874D13C48006843
:1019F00090F8260000063A49096891F8271000EB94
:101A000001403749096891F8281000EB012034495A
:101A1000096891F829100844401C87B230480068D2
:101A200090F82A00344981F826002D48006890F883
:101A30002B0081F827002A48006890F82C0081F8D4
:101A400028002748006890F82D0000E043E081F866
:101A50002900381681F82A00002081F82B00380A66
:101A600081F82C0081F82D701D48006890F8300036
:101A700081F830001A48006890F8310081F8310090
:101A80001748006890F8360081F83600144800685E
:101A900090F8370081F837001148006890F8380056
:101AA00081F838000E48006890F8390081F8390054
:101AB000FEF736FF0546002403E00F48005D285579
:101AC000641C3A2CF9DB3A20FFF76CFA064616B98B
:101AD00006A0FEF707FCBDE8F0870000FC00002030
:101AE000B4000020C0A80103C40000206572726F1A
:101AF00072202E2E2E0D0A003801002010B502464D
:101B00000B46002106E032F8024B214488B200EB7C
:101B100011415B1E002BF6DCC84380B210BD0000F3
:101B20004FF0E021096921F004014FF0E02211613A
:101B3000C21700EB5272C2F3C702054B1A704FF482
:101B40007A714143C1F3CF01024A1180704700000E
:101B5000A0000020A200002070B504464FF40770DA
:101B600094FBF0F0C6B24FF4077094FBF0F100FB69
:101B7000114085B205E04FF4077000F027F8701EA1
:101B8000C6B2002EF7D115B1284600F01FF870BD7F
:101B900001460D4A12784A434FF0E0235A61002271
:101BA0009A6101221A6100BF4FF0E022106900F033
:101BB00001021AB100F48032002AF5D000224FF061
:101BC000E0231A619A617047A000002001460D4A87
:101BD00012884A434FF0E0235A6100229A610122A1
:101BE0001A6100BF4FF0E022106900F001021AB143
:101BF00000F48032002AF5D000224FF0E0231A6171
:101C00009A617047A200002000BF054A126802F0E6
:101C10004002002AF9D0C2B2014B5A60704700005E
:101C2000001001401CB5002402208DF800000020A7
:101C30008DF801008DF8020001208DF803000220CC
:101C40008DF8040003208DF8050069460020FFF799
:101C500043F805220E4801680E480068FEF708FEAA
:101C600005220D4801680D480068FEF7BDFD00BF64
:101C700008E00849096801EB44104FF44001FEF701
:101C80001FFE641C052CF4DBFFF722F91CBD0000CD
:101C9000B8000020B0000020B4000020AC000020FC
:101CA000002700250024A0460823022219214FF412
:101CB000B470FFF71DFDB420FFF732FF4FF4E131A0
:101CC0005A2000F071F8FFF7B3FCFFF7B9FBFFF7FC
:101CD000A1F8FFF7A7FF49E02548006800282AD0AF
:101CE0000020234908602348016823A0FEF7FAFA80
:101CF00000251BE0641C23480068415D22A0FEF71C
:101D0000F1FAE11704EB5171C910A4EBC10111B94B
:101D10001FA0FEF7E7FAE11704EB11710911A4EB1C
:101D2000011111B916A0FEF7DDFA6D1C114800680B
:101D30008542DFDB00244FF4FA70FFF70DFFFEF75A
:101D4000EFFD0646002503E01348405D70556D1C0D
:101D5000362DF9D33620FFF725F98046B8F1000F6C
:101D600002D10EA0FEF7BEFA781CC7B2B4E700009D
:101D7000BC000020C00000200D0A6C656E3A25648E
:101D80000D0A0000B4000020253032782000000049
:101D900020202020000000006A0000206572726F81
:101DA00072202E2E2E0D0A00F0B52DED028B83B081
:101DB00005460E46384905FB01F000EE100AF8EE24
:101DC000400A300100EE100AB8EE400A80EE801A98
:101DD000B0EE418ABCEEC80A10EE100A84B200EEE2
:101DE000104AB8EE400A38EE400AF3EE000A20EE40
:101DF000200ABCEEC00A10EE107A4FF6FF7000EA1F
:101E00000414E01984B22548006840F00100234919
:101E1000086022481430006840F010001F49143157
:101E200008600120022100230A46CDE900104FF48A
:101E3000C0611B48FFF73EF9072209211848FFF748
:101E400019F907220A211648FFF714F9154884608A
:101E5000C06820F400401349C8600846C06840F0DC
:101E60000800C8600846C06840F00400C860084622
:101E7000C06840F02000C8600223252203210846E4
:101E8000FFF77EFB0748C06840F400500549C86072
:101E900003B0BDEC028BF0BD40420F003038024071
:101EA00000000240001001404FF04070E1EE100AC7
:101EB0007047303132333435363738394142434454
:101EC00045464030580030313233343536373839B2
:101ED00061626364656640307800040000080000B9
:101EE0000000000000020001000010000C1F0008AC
:101EF0000000002088010000E80100089C1F000885
:101F000088010020886D0000440200081127E04C81
:101F100008CD770216010203080613010813060410
:101F20004A02104DC0A8010320190ABA022A112240
:101F3000452432A0C423401129282922151234C374
:101F4000503A1E216E040506070808FF090A0B0C0B
:101F50000D0E403A2840DA064021192311052A01C6
:101F60005002200938C43A3C848A018451191078FF
:101F7000186162636465666768696A6B6C6D6E6F31
:101F8000707172737475767717F94A0A152CCE3909
:0C1F9000502B50105461399201110000D8
:04000005080001AD41
:00000001FF
