:020000040800F2
:1000000090320020450100084D0800080F0200084A
:100010004F080008530800085708000800000000B7
:100020000000000000000000000000005B08000865
:100030005D0800080000000097010008E76600085E
:100040005F0100085F0100085F0100085F01000810
:100050005F0100085F0100085F0100085F01000800
:100060005F0100085F0100085F0100085F010008F0
:100070005F0100085F0100085F0100085F010008E0
:100080005F0100085F0100085F0100085F010008D0
:100090005F0100085F0100085F010008838C000811
:1000A0005F0100085F0100085F0100085F010008B0
:1000B0005F0100085F0100085F0100085F010008A0
:1000C0005F0100085F0100085F0100085F01000890
:1000D0005F010008EF6B00082F6C00086F6C0008D0
:1000E0005F0100085F0100085F0100085F01000870
:1000F0005F0100085F0100085F0100085F01000860
:100100005F0100085F0100085F0100085F0100084F
:100110005F0100085F0100085F0100085F0100083F
:100120005F0100085F0100085F0100085F0100082F
:10013000DFF80CD01FF05EFE00480047B50800084D
:10014000903200200648804706480047FEE7FEE759
:10015000FEE7FEE7FEE7FEE7FEE7FEE7FEE7FEE777
:100160009920000831010008EFF3108072B6704743
:1001700080F310887047324A1368012B04D04FF087
:10018000010313602F4A10602F4A11602F484FF06F
:10019000805101607047EFF3108272B62848016801
:1001A00091B14FF0000101602648016829B1EFF3D9
:1001B000098121E9F00F0068016023490968096895
:1001C000B1E8F00F81F3098882F310884EF0040E35
:1001D00070471D4908601B494FF00000086018492E
:1001E0004FF0010008601A484FF47F01D0F800205A
:1001F00041EA0201016015484FF080510160154845
:100200000068006880F3088862B6704700BF1EF07F
:10021000040F18BFEFF3088008BFEFF3098020E94F
:10022000F00F40F804ED80F3088880F3098800B5EA
:1002300000F019F95DF804EB4EF0040E7047000071
:100240000C000020040000200800002004ED00E065
:1002500020ED00E008ED00E0F0B504460D4616463E
:10026000301D20F0070040380146002203E0B74F60
:1002700041F82270521C102AF9D30D624FF0000C85
:10028000C1F824C0C1F828C0C1F82CC0C1F830C0E2
:100290004B638C634FF0807CC1F83CC0F0BDAC492F
:1002A0000860704710B5ABA004F02DFBAD48018885
:1002B000ADA004F028FB4FF0E020B0F82A0D10F0BC
:1002C000010F02D0AEA004F01EFBA648008810F07B
:1002D000020F02D0ADA004F016FBA248008810F077
:1002E000040F02D0ACA004F00EFB9E48008810F072
:1002F000080F02D0AAA004F006FB9A48008810F468
:10030000807F02D0A8A004F0FEFA9648008810F47E
:10031000007F02D0A7A004F0F6FA91A004F0F3FA4F
:1003200010BD10B5A6A004F0EEFAA8480178A8A068
:1003300004F0E9FA4FF0E02090F8290D10F0010FD9
:1003400002D0A9A004F0DFFAA048007810F0020F54
:1003500002D0A8A004F0D7FA9C48007810F0040F4F
:1003600002D0A7A004F0CFFA9848007810F0080F48
:1003700002D0A7A004F0C7FA9448007810F0100F3C
:1003800002D0A6A004F0BFFA9048007810F0800FC9
:1003900005D0A4480168A4A004F0B5FA02E070A05A
:1003A00004F0B1FA10BD10B5A3A004F0ACFAA74850
:1003B0000178A7A004F0A7FA4FF0E02090F8280DEC
:1003C00010F0010F02D0A8A004F09DFA9F48007819
:1003D00010F0020F02D0A7A004F095FA9B48007815
:1003E00010F0080F02D0A6A004F08DFA974800780C
:1003F00010F0100F02D0A5A004F085FA9348007801
:1004000010F0800F05D0A4480168A4A004F07BFA86
:1004100002E053A004F077FA10BD10B5A3480068BD
:1004200010F0020F02D0A2A004F06DFA9F480068FD
:1004300010F0804F0ED06548007808B1FFF771FFCB
:100440008248007808B1FFF7AEFF4648008808B13F
:10045000FFF728FF9548006810F0004F02D09AA0DF
:1004600004F051FA10BD70B505462C1D38480068DF
:1004700038B12846364909688847064606B970BD2E
:1004800000BF95A0E16B04F03EFA97A0216A04F04A
:100490003AFA99A0616A04F036FA9BA0A16A04F0C6
:1004A00032FA9DA0E16A04F02EFA9FA0216804F0C0
:1004B0002AFAA1A0616804F026FAA3A0A16804F0BA
:1004C00022FAA5A0E16804F01EFAA7A0216904F0B1
:1004D0001AFAA9A0616904F016FAABA0A16904F0A8
:1004E00012FAADA0E16904F00EFAAFA0216B04F09E
:1004F0000AFAB1A0616B04F006FAB3A0A16B04F094
:1005000002FA286810F0040F09D005F0EFFB064648
:100510000146B1A004F0F7F909F0A6FF02E0B6A089
:1005200004F0F1F9FFF779FF00BFFEE710B5B9A0BD
:1005300004F0E9F900244FF4B073BA4ABAA1BBA0A1
:1005400004F0E1F900BF002CFDD010BDEFBEADDE20
:10055000000000207573616765206661756C743AF0
:100560000A0000002AED00E05343425F4346535225
:100570005F554653523A30782530325820000000FB
:10058000554E444546494E5354522000494E565309
:100590005441544520000000494E5650432000006D
:1005A0004E4F435020000000554E414C49474E45A8
:1005B0004420000044495642595A45524F200000F9
:1005C000627573206661756C743A0A0029ED00E06B
:1005D0005343425F434653525F424653523A307848
:1005E00025303258200000004942555345525220D0
:1005F000000000005052454349534552522000002C
:10060000494D505245434953455252200000000085
:10061000554E53544B4552522000000053544B4505
:100620005252200038ED00E05343422D3E424641F5
:10063000523A253038580A006D656D206D616E6143
:100640006765206661756C743A0A000028ED00E069
:100650005343425F434653525F4D4653523A3078BC
:1006600025303258200000004941434356494F4C41
:10067000200000004441434356494F4C20000000F5
:100680004D554E53544B4552522000004D53544B40
:10069000455252200000000034ED00E05343422D4B
:1006A0003E4D4D41523A253038580A002CED00E0BD
:1006B0006661696C656420766563746F7220666537
:1006C0007463680A000000006465627567206576DF
:1006D000656E740A000000007073723A203078254D
:1006E0003038780A000000007230303A2030782527
:1006F0003038780A000000007230313A2030782516
:100700003038780A000000007230323A2030782504
:100710003038780A000000007230333A20307825F3
:100720003038780A000000007230343A20307825E2
:100730003038780A000000007230353A20307825D1
:100740003038780A000000007230363A20307825C0
:100750003038780A000000007230373A20307825AF
:100760003038780A000000007230383A203078259E
:100770003038780A000000007230393A203078258D
:100780003038780A000000007231303A2030782585
:100790003038780A000000007231313A2030782574
:1007A0003038780A000000007231323A2030782563
:1007B0003038780A00000000206C723A203078252A
:1007C0003038780A000000002070633A2030782525
:1007D0003038780A00000000686172642066617534
:1007E0006C74206F6E207468726561643A202573A2
:1007F0000D0A0D0A000000006861726420666175D0
:100800006C74206F6E2068616E646C65720D0A0DE9
:100810000A00000073687574646F776E2E2E2E0ABE
:10082000000000005EFF0108300000002825732949
:1008300020617373657274206661696C6564206100
:10084000742025733A2564200A000000704700BF19
:10085000FEE700BFFEE700BFFEE7704770470000FD
:1008600004460D4617A004F04EF821461FA004F0E0
:100870004AF8294622A004F046F800BFFEE710B56A
:1008800005F039FF04F06DF82249234804F0C8F957
:1008900004F0E2FF05F005FF05F00FFF00F050F94E
:1008A0000EF046FC1DA00DF0F0FF01F015FF04F066
:1008B000EFFF10BD10B5FFF757FC0446FFF7DFFF51
:1008C000002010BD0A0D2057726F6E672070617294
:1008D000616D657465722076616C75652064657400
:1008E0006563746564206F6E0D0A0000202020206F
:1008F00020202066696C65202025730D0A00000009
:10090000202020202020206C696E65202025640D89
:100910000A000000005000209032002075617274BF
:1009200031000000B4A003F0EEFF08F0FDFC05F07C
:100930001DFF54E008F028FD0446B448006888B95B
:10094000B3480068D8BB012C04D10120B04908602D
:10095000AE490860022C32D10120AE490860AB4993
:1009600008602CE0AA480068012814D10020A94999
:100970000860012008F0F1FC01280CD1A6A003F0CA
:10098000C2FF0020A2490860A0490860A84800688A
:10099000401CA74908609F48006801280FD100202B
:1009A0009B490860022008F0D8FC012807D1A1A0CB
:1009B00003F0A9FF002097490860944908609C480B
:1009C0000068062190FBF1F201FB120098490860D3
:1009D0000846006805F08AFF012005F062FBA9E7E0
:1009E000002405F0C3FE0CE0641C062005F006FFA1
:1009F000322005F056FB062005F032FFC82005F036
:100A000050FBF1E700BF08F0CDFB90A003F07BFFA7
:100A100092A20121022008F06BFB4FF4967005F0C2
:100A200040FB4DE09048006881490968884244D005
:100A30007F4800688C4908600846006830B908F0B3
:100A40004DFB8AA20021084608F052FB8648006848
:100A5000012806D108F042FB87A20021084608F0D1
:100A600047FB81480068022806D108F037FB85A2C1
:100A70000021084608F03CFB7B480068032806D1AB
:100A800008F02CFB82A20021084608F031FB7648D2
:100A90000068042806D108F021FB80A20021084646
:100AA00008F026FB70480068052806D108F016FB00
:100AB0007DA20021084608F01BFB0A2005F0F1FA90
:100AC000B0E708B500BF7BA00068009008F09EFB6F
:100AD00079A003F018FF02E00A2005F0E2FAFBE734
:100AE00070B5064608F000FF77A00DF0CEFE012499
:100AF00008F0A4FC204608F060FE054645B90CB19C
:100B000073A000E073A0014673A003F0FCFE07E0B1
:100B10000CB16FA000E06FA0014679A003F0F3FED6
:100B20001EF006FD07F019FF1DF0A3F87FA003F0EB
:100B3000EAFE002000F02CF9322005F0B2FA70BD78
:100B40007FB5052314224FF400717E488DE80F0015
:100B500000237D4A7DA17E4805F090F8044614B933
:100B60007B4805F0F3F80A2315224FF48071794889
:100B70008DE80F000023784A78A1794805F07EF8C7
:100B8000044614B9764805F0E1F80A2313224FF41D
:100B9000807174488DE80F000023734A73A1754873
:100BA00005F06CF8044614B9724805F0CFF80A2332
:100BB00012224FF4807170488DE80F0000236F4AB5
:100BC0006FA1704805F05AF8044614B96D4805F055
:100BD000BDF814230822CDE9002313020022AFF24E
:100BE000FF0169A005F014F9054615B1284605F086
:100BF000ADF8002004B070BD6B65795F696E7075EB
:100C00007420696E69740D0A00000000180000204D
:100C100010000020140000206B6579315F696E7050
:100C200075742072656C656173650D0A00000000C3
:100C30001C0000206B6579325F696E7075742072DC
:100C4000656C656173650D0A000000006C636431BA
:100C500036303220696E69740D0A000044535039F1
:100C600035302056302E31002000002041442069CC
:100C70006E7075740000000041455320696E7075F8
:100C80007400000052434120696E707574000000CA
:100C90004D494320696E70757400000053504449FB
:100CA0004620696E70757400434F415820696E701C
:100CB00075740000123456785350495F44535020E5
:100CC000696E69740D0A000075617274310000006C
:100CD00074646D004932530043533433383520690E
:100CE0006E697469616C697A6564206F6B21207527
:100CF00073696E672025732121210D0A0000000011
:100D000043533433383520696E697469616C697A8C
:100D10006564206661696C6564202C207573696E5A
:100D2000672025732121210D0A0000005443502F14
:100D3000495020696E697469616C697A6564210A39
:100D40000000000064040020E10900086C656400F4
:100D500064060020E4060020050A00086C636400B5
:100D6000E407002064080020C30A00085350495FCC
:100D70004453500064090020E402002025090008C3
:100D80006B657900E4030020696E6974000000005F
:100D90002DE9F04F89B0834600264FF4006003F040
:100DA000ADFF04462CB949A003F0ADFD09B0BDE884
:100DB000F08F0022012102201AF0BDF80746401CE6
:100DC00006D145A003F09FFD204604F07BF9EDE736
:100DD00002208DF8110041F288300FF0B5FEADF819
:100DE0001200002005900822114606A803F017FA09
:100DF000102204A9384619F094FC401C06D13AA0F0
:100E000003F081FD204604F05DF9CFE70521384667
:100E100019F094FD401C06D137A003F074FD204664
:100E200004F050F9C2E738A003F06DFD44E0102053
:100E3000089008AA6946384619F028FB8046BDF894
:100E400002000FF087FE814601A81CF031FE8246A9
:100E50004A46014638A003F056FD2BE000234FF42C
:100E600000622146404619F071FF0546002D03DC63
:100E7000404619F0BEFC1EE00020605537A1204618
:100E80001EF02FFF20B136A120461EF02AFF18B910
:100E9000404619F0AEFC0EE032A120461EF021FFC4
:100EA00020B9404619F0A5FC012604E021462FA0F8
:100EB00003F029FDD2E700BF012EB8D1384619F062
:100EC00098FC204604F0FEF800BF6FE74E6F206DDF
:100ED000656D6F72790A0000536F636B65742065EE
:100EE00072726F720A000000556E61626C65207448
:100EF0006F2062696E640A004C697374656E2065C8
:100F000072726F720A0000000A5443505365727681
:100F100065722057616974696E6720666F7220631D
:100F20006C69656E74206F6E20706F72742035303E
:100F300030302E2E2E0A00004920676F7420612069
:100F4000636F6E6E656374696F6E2066726F6D207D
:100F5000282573202C202564290A00007100000038
:100F60005100000065786974000000005245434953
:100F7000455645442044415441203D202573200AD4
:100F80000000000036490143364A1160704770B5D1
:100F9000002100230F22C4784CB3324C246804F49F
:100FA000E064C4F5E0644FEA1421C1F1040322FABD
:100FB00001F2447804FA03F1847804EA020444EA72
:100FC00001014FEA0111284C0678A155047804F07C
:100FD0001F054FF0010404FA05F405784FEA651582
:100FE0004FF0E02606EB8505C5F8004109E00478DE
:100FF00004F01F050124AC401C4D0678761145F81D
:10100000264070BD1A4A0A4002431A4B1A607047C4
:1010100041B1194A126842EA00024FF0E023C3F8D6
:10102000102D07E0144A126822EA00024FF0E02374
:10103000C3F8102D7047042808D14FF0E02109694A
:1010400041F004014FF0E022116107E04FF0E02190
:10105000096921F004014FF0E0221161704700009E
:101060000000FA050CED00E000E400E080E100E0A3
:1010700080FFFF1F08ED00E010ED00E00020474971
:1010800008604749C1F804044649086001F10401B9
:101090000860454845490860704700213F4982790A
:1010A000DAB33F4AD2F8002403689A433C4BC3F8B2
:1010B00000241A46D2F8042403689A4301F1040379
:1010C0001A60027911440A68036842EA03020A605E
:1010D000334AD2F80824036822EA0302304BC3F8EB
:1010E00008241A46D2F80C24036822EA0302304B83
:1010F0001A604279102A11D1294AD2F808240368CB
:101100001A43274BC3F808241A46D2F80C24036864
:101110001A43234BC3F80C240EE007E01F49427921
:1011200011440A6803681A430A6005E00279114411
:101130000A6803689A430A607047002101600171E0
:101140000C2141710021817170471A49096841EAF7
:101150000001134AC2F81014704701460020134AD8
:1011600012680A4201D0012000E0002070470F49B8
:1011700008607047014600200022084B1B6803EA04
:101180000102074BD3F814340B4202D00AB10120FC
:1011900000E00020704705490860704700040140E6
:1011A0000000014008040140FFFF0F00140401404B
:1011B0000C0401401004014010B50446CA488442A2
:1011C00008D10121042000F024FB0021042000F0BC
:1011D00020FB46E0C548844208D10121082000F0E8
:1011E00018FB0021082000F014FB3AE0C0488442BC
:1011F00008D10121102000F00CFB0021102000F08C
:1012000008FB2EE0BB48844208D10121202000F0D9
:1012100000FB0021202000F0FCFA22E0B6488442C6
:1012200008D10121402000F0F4FA0021402000F014
:10123000F0FA16E0B148844208D10121802000F084
:10124000E8FA0021802000F0E4FA0AE0AC48844289
:1012500007D10121801500F0DCFA0021A01500F073
:10126000D8FA10BD10B50121084600F0D2FA0021CD
:10127000012000F0CEFA10BD2DE9F0410246002514
:101280000026002000230024002791F803C00CF062
:101290000F0591F803C01CF0100F03D091F802C0A5
:1012A0004CEA0505B1F800C01CF0FF0F31D01468FE
:1012B00000202BE04FF0010C0CFA00F3B1F800C055
:1012C0000CEA03069E4220D183004FF00F0C0CFA6B
:1012D00003F7BC4305FA03FC4CEA040491F803C08D
:1012E000BCF1280F06D14FF0010C0CFA00FCC2F83B
:1012F00014C00AE091F803C0BCF1480F05D14FF0CB
:10130000010C0CFA00FCC2F810C0401C0828D1D314
:101310001460B1F800C0BCF1FF0F34DD5468002048
:101320002EE000F1080C4FF0010808FA0CF3B1F8B8
:1013300000C00CEA03069E4221D183004FF00F0C3F
:101340000CFA03F7BC4305FA03FC4CEA040491F8D9
:1013500003C0BCF1280F05D100F1080C08FA0CF805
:10136000C2F8148091F803C0BCF1480F07D100F116
:10137000080C4FF0010808FA0CF8C2F81080401C65
:101380000828CED35460BDE8F0814FF6FF7101808C
:10139000022181700421C1707047024600209368C9
:1013A0000B4201D0012000E0002070470146886810
:1013B00080B2704702460020D3680B4201D0012062
:1013C00000E0002070470146C86880B270470161A4
:1013D0007047416170470AB1016100E041617047A7
:1013E000C16070474FF480320A438261816182613B
:1013F00082698269704702460020424B18684FF6A6
:101400008073184040EA021008433E4B1860704752
:101410003D49C8617047F0B50A4600230024002109
:10142000002500F00046B6F1004F02D1354EF169BB
:1014300001E0344E7168C0F3034583B200F44016F6
:10144000B6F5401F08D121F070612E4E766826F067
:1014500070662C4F7E6012E000F48016B6F5801F97
:1014600006D1032606FA05F4A14341F0706106E0B7
:10147000460D360103FA06F6B14341F0706122B120
:10148000460D360103FA06F6314300F00046B6F188
:10149000004F02D11B4EF16101E01A4E7160F0BDA8
:1014A00030B500228B071C0F0F2303FA04F2154BF3
:1014B00008338C1053F824309343124C08348D10A9
:1014C00044F8253023468C1053F824308C07240F21
:1014D00000FA04F423430B4C08348D1044F82530F3
:1014E00030BD0A490860704700080140000C014007
:1014F000001001400014014000180140001C014090
:10150000002001400000014000002042DC00204299
:10151000DB48006840F00100D9490860084640688F
:10152000D8490840D649486008460068D64908406E
:10153000D34908600846006820F480200860084607
:10154000406820F4FE0048604FF41F008860704738
:10155000CB49096821F48031C94A116011460968F4
:1015600021F480211160B0F5803F03D0B0F5802FC9
:101570000ED106E0C249096841F48031C04A1160C9
:1015800007E0BF49096841F4A021BD4A116000E0AD
:1015900000BF00BF704710B50146002200230020A5
:1015A0004A11012A02D1B64C236806E0022A02D170
:1015B000B34C236A01E0B24C636A01F01F020124BC
:1015C00094401C4201D0012000E0002010BD70B505
:1015D00000240025002600BF3120FFF7DCFF06466F
:1015E000641CB4F5A06F01D0002EF5D03120FFF7B8
:1015F000D2FF08B1012500E00025284670BD014654
:1016000000209F4A106820F0F80040EAC1001060F6
:1016100070479E490860704702460020984B586802
:1016200020F47C1042EA01031843954B5860704740
:1016300096490866704701460020914A506820F09C
:1016400003000843506070478D48406800F00C006C
:101650007047014600208A4A506820F0F000084395
:101660005060704701460020854A506820F4E060D1
:1016700008435060704701460020814A506820F4BA
:10168000605040EAC1005060704729B17C4A527AEC
:1016900002437B4B5A7206E0794A527AC343DBB26B
:1016A0001A40774B5A727047794908607047014673
:1016B0000020734A506820F440400843506070474F
:1016C0000021744A11706E4A82F82010012802D05D
:1016D000042808D103E001216E4A117004E00521BD
:1016E0006C4A117000E000BF00BF70476A49086093
:1016F00070476349096A0143614A1162704767494B
:101700000860704730B500210022002400235C4DA2
:101710006D6805F00C0121B1042905D0082923D1F9
:1017200005E05F4D056022E05D4D05601FE0544D12
:101730006D6805F47012524D6D6805F48034022511
:1017400005EB92421CB9574D554305600BE04C4DDB
:101750006D6815F4003F03D0524D5543056002E01B
:101760004F4D5543056002E04D4D056000BF00BF81
:10177000434D6D6805F0F00109094B4D6B5C056840
:10178000DD4045603E4D6D6805F4E061090A464D57
:101790006B5C4568DD408560394D6D6805F46051CE
:1017A000C90A414D6B5C4568DD40C560344D6D68CC
:1017B00005F44041890B3D4D6B5CC568B5FBF3F505
:1017C000056130BD29B12E4A526902432C4B5A6142
:1017D00004E02B4A52698243294B5A61704729B170
:1017E000274A92690243264B9A6104E0244A92698F
:1017F0008243234B9A61704729B1214AD26902433F
:101800001F4BDA6104E01E4AD26982431C4BDA6145
:10181000704729B11A4AD2680243194BDA6004E0D2
:10182000174AD2688243164BDA60704729B1144ACE
:1018300012690243124B1A6104E0114A1269824391
:101840000F4B1A6170471A49086070470F49C86406
:1018500070470B49C87170470948406A40F0807072
:1018600007494862704701460020054A92680A42CB
:1018700001D0012000E000207047014988727047C4
:10188000001002400000FFF8FFFFF6FE0000424299
:10189000D800424220100240800442423C044242AE
:1018A00000127A0000093D002800002038000020C6
:1018B0004004424210B50446BF48844208D1012189
:1018C0008014FFF7A6FF0021A014FFF7A2FF16E087
:1018D000BA48844208D101210014FFF7A7FF002174
:1018E0002014FFF7A3FF0AE0B548844207D1012185
:1018F000C013FFF79BFF0021E013FFF797FF10BD18
:1019000010B50022028802F441520B884C88234310
:101910008C882343CC8823430C8923434C8923435D
:101920008C892343CC8923431A430280838B4FF253
:10193000FF74234083830B8A038210BD2DE9F04F8F
:1019400085B005460C464FF0000902274FF000080D
:101950004FF0010B0026B246A88B4FF24001084021
:10196000A88302202884B5F81C90A068022801D121
:1019700000BF36E0A08810B94FF0010B01E04FF036
:10198000020B8E48854200D100E000BF6846FFF799
:10199000B9FEDDF800A0E088B0F5007F0AD14FEA7B
:1019A0001A2000EB80004000A168B0FBF1F0401D60
:1019B00086B20BE04FEA4B10BAFBF0F000EB800070
:1019C0004000A168B0FBF1F0401D86B20A20B6FBD2
:1019D000F0F606F00108A6EB0800C0F34F074FEA47
:1019E0000828022F01DBFF2F02DD02274FF000083D
:1019F000E08840EA080038432884A088A189084389
:101A0000618808432188084340F4006040EA0909DE
:101A1000A5F81C9005B0BDE8F08F00210180418041
:101A20008180C180018141818181C1810721018241
:101A300070470021018041808180C1800221816046
:101A400000218181704721B1028842F0400202806A
:101A500004E002884FF6BF731A400280704721B13C
:101A6000828B42F48062828304E0828B4FF6FF33E4
:101A70001A408283704770B5002400230C110125A1
:101A8000A540ABB21AB185881D43858004E08588E6
:101A9000DE43B6B23540858070BD10B51AB183887B
:101AA0000B43838004E08388CC43A4B2234083802B
:101AB00010BD81817047014688897047A1F57E423B
:101AC000FF3A04D0028842F48072028004E0028867
:101AD0004FF6FF631A400280704721B1828842F0BE
:101AE0000402828004E082884FF6FB731A408280F1
:101AF000704702884FF2FF731A40028002880A433F
:101B000002807047018841F480510180704721B103
:101B1000028842F40052028004E002884DF6FF730E
:101B20001A400280704702460020012901D0108B24
:101B300000E0908A70470146088A7047B1F5804FEF
:101B400004D1028842F48042028004E002884BF60D
:101B5000FF731A40028070470246002013890B422F
:101B600001D0012000E000207047CA430281704785
:101B7000F0B50246002000240023002501F00F07E5
:101B80000126BE40B4B20B1101269E40B3B2968826
:101B900006EA03051689264202D00DB1012000E0B5
:101BA0000020F0BD10B5002201F00F040123A34076
:101BB0009AB2D343038110BD003001400038004089
:101BC000003C004010B50446FC48844209D1012184
:101BD0008803FFF71EFE00214FF48040FFF719FE37
:101BE00032E0F748844209D101214804FFF71EFE84
:101BF00000214FF40030FFF719FE25E0F148844240
:101C000009D101218804FFF711FE00214FF4802043
:101C1000FFF70CFE18E0EC48844209D10121C8040A
:101C2000FFF704FE00214FF40020FFF7FFFD0BE05B
:101C3000E648844208D101210805FFF7F7FD00219D
:101C40004FF48010FFF7F2FD10BD2DE9F04786B08C
:101C500005460E460024A24600BFA1460027B089D3
:101C600000B100BF2F462C8A4CF6FF700440F0886C
:101C700004432C82AC894EF6F3100440B0883189BD
:101C80000843718908430443AC81AC8A4FF6FF4096
:101C90000440B0890443AC8201A8FFF733FDC74874
:101CA000874202D1DDF810A001E0DDF80CA0A88980
:101CB00010F4004F08D00AEBCA0000EB0A1031689C
:101CC0004900B0FBF1F807E00AEBCA0000EB0A108C
:101CD00031688900B0FBF1F86420B8FBF0F0040132
:101CE0002009642101FB1089A88910F4004F08D055
:101CF000322000EBC900B0FBF1F000F00700044314
:101D000008E0322000EB09106421B0FBF1F000F094
:101D10000F0004432C8106B0BDE8F0874FF4165144
:101D2000016000218180C18001810C21418100215D
:101D30008181704710B502460020108A4FF2FF03E0
:101D400018400B884C8823438C882343CC8823433A
:101D50001843108210BD0021018041808180C18024
:101D6000704721B1828942F40052828104E0828965
:101D70004DF6FF731A4082817047F0B50346002488
:101D8000002600250020A1F510676A3F00D100BFA2
:101D90001846C1F3421401F01F06012707FA06F5A1
:101DA000012C01D10C3004E0022C01D1103000E0F4
:101DB00014301AB107682F43076002E00768AF4389
:101DC0000760F0BD10B51AB1838A0B43838204E02B
:101DD000838ACC43A4B22340838210BD028A4FF68B
:101DE000F0731A400282028A0A4302827047828993
:101DF0004FF2FF731A40828182890A4382817047C1
:101E000021B1828942F00202828104E082894FF688
:101E1000FD731A4082817047028A4FF6DF731A40C1
:101E20000282028A0A430282704721B1028A42F486
:101E30008042028204E0028A4BF6FF731A4002825B
:101E40007047C1F308028280704701468888C0F35A
:101E500008007047818941F0010181817047028B40
:101E6000D2B20283028B42EA012202837047028BC4
:101E700002F47F420283028B0A430283704721B13E
:101E8000828A42F02002828204E0828A4FF6DF7367
:101E90001A408282704721B1828A42F01002828207
:101EA00004E0828A4FF6EF731A408282704721B1B4
:101EB000828A42F00802828204E0828A4FF6F77337
:101EC0001A408282704721B1828942F400428281A5
:101ED00003E08289C2F30E028281704721B1828AB7
:101EE00042F40062828204E0828A4FF2FF731A4059
:101EF00082827047828A4FF6FB731A408282828AFE
:101F00000A438282704721B1828A42F002028282B1
:101F100004E0828A4FF6FD731A40828270470246BF
:101F20000020B1F5007F00D100BF13880B4201D023
:101F3000012000E00020704701F40072B2F5007F3C
:101F400000D100BFCA430280704770B5024600242A
:101F5000002300250020A1F510666A3E00D100BFD5
:101F6000C1F3421501F01F03012606FA03F3012D08
:101F700002D19689334006E0022D02D1168A334001
:101F800001E0968A33400C12012606FA04F4168802
:101F9000344013B10CB1012000E0002070BD10B539
:101FA00000220023A1F510646A3C00D100BF0A1290
:101FB00001249440A3B2DC43048010BD00380140EA
:101FC0000044004000480040004C004000500040E9
:101FD00000210020674A126842F48032654B1A6083
:101FE00000BF644A126802F40030491C10B9B1F510
:101FF000A06FF6D15F4A126812F4003F01D00120B1
:1020000000E00020012842D15B4A126842F0100231
:10201000594B1A601A46126822F003021A601A46D7
:10202000126842F002021A60524A5268514B5A60DA
:102030001A4652685A601A46526842F480625A60E0
:102040001A46526822F47C125A601A46526842F4C8
:10205000E8125A601A46126842F080721A6000BF95
:10206000444A126812F0007FFAD0424A526822F0C5
:102070000302404B5A601A46526842F002025A600C
:1020800000BF3C4A526802F00C02082AF9D170479E
:1020900010B5FFF79DFF10BD10B53648006840F041
:1020A0000100344908600846406834490840314915
:1020B000486008460068324908402E4908600846D2
:1020C000006820F4802008600846406820F4FE0084
:1020D00048604FF41F008860FFF7DAFF4FF00060A0
:1020E0002849086010BD10B5002100200022214BB6
:1020F0005B6803F00C0121B1042906D0082928D11E
:1021000007E0214B214C236027E01F4B1F4C23602D
:1021100023E0184B5B6803F47010164B5B6803F404
:102120008032022303EB904022B9194B4343174CF2
:1021300023600DE00F4B5B6813F4003F04D0144B99
:102140004343124C236003E00F4B43430F4C236087
:1021500003E00D4B0D4C236000BF00BF054B5B68D7
:10216000C3F303130B4CE15C084B1B68CB40074CDB
:10217000236010BD00100240002002400000FFF864
:10218000FFFFF6FE08ED00E000127A003C000020A0
:1021900000093D0040000020704717480068704764
:1021A00070B50446FDF7E0FF054613480460284675
:1021B000FDF7DEFF70BD10B50F480068401C0E49EA
:1021C000086003F093FD0446A06C401EA064A06C60
:1021D00018B9606CA06403F06BFE04F0C9F910BD7F
:1021E0000146642201FB02F000F2E7304FF47A72FC
:1021F000B0FBF2F070470000500000202DE9F041E4
:10220000064603F073FD08B103F0FAFBD74D6C6886
:1022100010E00C20271A08223146384602F0EBF86D
:1022200038B903F063FD08B103F0F8FB3846BDE8A8
:10223000F0812468281D8442EBD103F057FD08B1DA
:1022400003F0ECFB0020F2E770B504460D4616469D
:1022500014B94FF0FF3070BD2846FFF7CFFF10B123
:102260004FF0FF30F7E72A460721204603F04FF9E9
:10227000E6820020A07600BFEDE770B5044654B9B1
:1022800000254623BA4ABBA1BEA002F03CFB00BF1A
:10229000002DFDD000BF204603F05FF9002070BD87
:1022A0002DE9F041B14F7E6819E00C20341AD4F8C2
:1022B0002480B8F1000F11D0E08A10F0100F0DD17A
:1022C0002046C04705462DB12A462146B5A002F05A
:1022D0001AFB03E0E08A40F01000E0823668381D07
:1022E0008642E2D10020BDE8F08170B504460025A9
:1022F00054B90026B423B94A9EA1A2A002F003FB60
:1023000000BF002EFDD000BF606A90B1E08A10F0DF
:10231000100F0ED12046616A884705462DB12A4626
:102320002146A0A002F0EFFA03E0E08A40F010009E
:10233000E082284670BD2DE9F04104460E46002596
:1023400054B90027D723A64A8AA18EA002F0DBFA4F
:1023500000BF002FFDD000BFE08A10F0100F12D197
:10236000606A60B12046616A884705463DB12A46E9
:1023700021468CA002F0C7FA2846BDE8F081E08A29
:1023800040F01000E082E08A10F0080F06D0208BA9
:1023900010F0080F02D06FF00600EEE7A07E401CA0
:1023A000A076A07E50B90027F5238D4A8DA175A097
:1023B00002F0A9FA00BF002FFDD000BFA06A20B133
:1023C00031462046A26A904705460DB1A81D02D1AC
:1023D00046F0080020832846CFE770B50446002564
:1023E0005CB900264FF48873834A62A165A002F0AD
:1023F0008AFA00BF002EFDD000BFA07E10B94FF0BA
:10240000FF3070BDA07E401EA076A07E08B10020E7
:10241000F7E7E06A18B12046E16A884705460DB142
:10242000A81D01D1002020832846EAE72DE9F041CC
:1024300004460D4616461F466CB94FF0000840F2A0
:1024400039136E4A4BA14FA002F05DFA00BFB8F1FC
:10245000000FFCD000BFA07E30B94FF0FF3001F07C
:10246000BDFE0020BDE8F081206B38B13B4632460E
:1024700029462046D4F830C0E047F3E76FF0050066
:1024800001F0ACFE0020EDE72DE9F04104460D46D9
:1024900016461F466CB94FF0000840F25F13584AC9
:1024A00034A138A002F02FFA00BFB8F1000FFCD021
:1024B00000BFA07E30B94FF0FF3001F08FFE00204A
:1024C000BDE8F081606B38B13B4632462946204674
:1024D000D4F834C0E047F3E76FF0050001F07EFE6A
:1024E0000020EDE72DE9F04104460D4616465CB9A3
:1024F000002740F27F13434A1EA122A002F003FAF4
:1025000000BF002FFDD000BFA06B30B1324629467E
:102510002046A36B9847BDE8F0810020FBE770B52B
:1025200004460D465CB900264FF4CC73364A11A11F
:1025300014A002F0E8F900BF002EFDD000BFE56155
:10254000002070BD70B504460D465CB9002640F20F
:10255000AD132E4A07A10BA002F0D5F900BF002E43
:10256000FDD000BF2562002070BD0000F4000020F7
:10257000AFFF010864657620213D2052545F4E551F
:102580004C4C0000282573292061737365727420F8
:102590006661696C65642061742025733A25642046
:1025A0000A000000546F20696E697469616C697A71
:1025B00065206465766963653A2573206661696C98
:1025C00065642E20546865206572726F7220636F97
:1025D00064652069732025640A000000C4FF0108B7
:1025E000D3FF01086465762D3E7265665F636F7583
:1025F0006E7420213D203000E2FF0108F2FF010847
:102600000100020811000208230002083D00020830
:102610003E49086070472DE9F0414CE000BFFDF7EE
:10262000A3FD074601F0C4FD70B1394939A002F09D
:102630006AF900255623364A3FA140A002F063F90B
:1026400000BF002DFDD000BF3846FDF791FD00BF53
:10265000FDF78AFD0646414800F04FF8E8B93F48CB
:10266000016814200C1A04F11400D0E90021516013
:10267000D0E9001211604060006000BFA06F10B18F
:102680002046A16F8847204603F009F8012808D1A9
:102690003046FDF76DFDBDE8F0813046FDF768FD81
:1026A000F9E73046FDF764FDA06A02F00BFD204615
:1026B00002F0BFFF00BF294800F01FF80028ADD08E
:1026C00000BFE8E707E01148006810B10F48006854
:1026D0008047FFF7A0FFF6E71FB520231F22D90090
:1026E0001F488DE80F0000231E4A1FA1204803F059
:1026F000C5FA1F4803F02AFB1FBD0146086888423F
:1027000001D1012070470020FCE7000054000020A8
:102710005700020846756E6374696F6E5B25735DC2
:10272000207368616C6C206E6F7420757365642013
:10273000696E204953520A00300000002825732991
:1027400020617373657274206661696C65642061D1
:10275000742025733A2564200A0000003801002007
:10276000640A0020C52600087469646C65000000D6
:10277000E40900204268116042684A6041600860D4
:1027800070472DE9F04105460C469046204603F07F
:10279000BBFBB8F1000F03D0B8F1010F23D105E066
:1027A00004F114012846FFF7E5FF1CE02E680FE056
:1027B0001420371A94F8350097F83510884206DA55
:1027C00004F1140107F11400FFF7D4FF02E03668AA
:1027D000AE42EDD100BFAE4204D104F1140128464F
:1027E000FFF7C8FF00BF00BF0020BDE8F08170B553
:1027F00005460EE0FDF7B8FC0646142029680C1AC1
:102800004FF0FF302063204603F073FA3046FDF7A7
:10281000AFFC284601F086FC0028EBD0002070BDFC
:102820002DE9F04104460D4616461F4664B94FF0A7
:102830000008D823F94AFAA1FDA002F064F800BF0D
:10284000B8F1000FFCD000BF2A460121204602F05B
:102850005EFE204601F06EFCA68367720020BDE894
:10286000F08170B5044654B90025F523F84AECA16F
:10287000EFA002F048F800BF002DFDD000BF04F12A
:102880001400FFF7B4FF204602F067FE002070BD81
:102890002DE9F04705460E46174600BFFDF764FCDC
:1028A000814601F085FC88B1EA49EBA002F02BF8E3
:1028B0004FF0000840F21113E64AF0A1DCA002F04C
:1028C00022F800BFB8F1000FFCD000BF4846FDF76A
:1028D0004FFC00BF2946012002F061FE044614B9F6
:1028E0002046BDE8F087204601F024FCA6836772ED
:1028F0002046F6E770B5044600BFFDF735FC0646F6
:1029000001F056FC78B1DE49D3A001F0FCFF0025B0
:102910004FF49873DA4AD9A1C5A001F0F4FF00BFC3
:10292000002DFDD000BF3046FDF722FC00BF5CB992
:1029300000254FF49973D24AB9A1BDA001F0E3FF7D
:1029400000BF002DFDD000BF04F11400FFF74FFFC2
:10295000204602F06EFE002070BD2DE9F3470546CB
:102960005DB9002640F24D13C64AADA1B0A001F0FA
:10297000CAFF00BF002EFDD000BF00BFC2480068E4
:1029800018B12846C0490968884700BFFDF7ECFB2D
:10299000074600BF00BFA88B002806DDA88B401E9D
:1029A000A8833846FDF7E4FB63E0019830B9384668
:1029B000FDF7DEFB6FF00100BDE8FC8700BFFDF70F
:1029C000D3FB804603F092F978B9AE49AFA001F08D
:1029D0009AFF002640F26D13AA4AA8A194A001F024
:1029E00092FF00BF002EFDD000BF00BFFDF7BCFB73
:1029F000814601F0DDFB78B1A24997A001F083FF89
:102A0000002640F26D139F4A9CA189A001F07BFF34
:102A100000BF002EFDD000BF4846FDF7A9FB00BF58
:102A20004046FDF7A5FB00BF03F060F90446002116
:102A3000216300BF00BF6A7A214605F11400FFF749
:102A4000A0FE019800280BDD00BF00BF01AA0021F5
:102A500004F14C0003F05EFD04F14C0003F090FC27
:102A60003846FDF785FB02F025FF206B08B1206B8F
:102A7000A2E700BF9348006818B128469149096849
:102A8000884700BF002097E710B504460021204684
:102A9000FFF763FF10BD70B5044600BF8A480068A9
:102AA00018B1204688490968884700BF0025FDF70E
:102AB0005BFB064600BF00BF04F1140001F032FBCF
:102AC00028B904F1140001F03DFB012502E0A08BC0
:102AD000401CA0833046FDF74BFB012D01D102F0D5
:102AE000E9FE002070BD2DE9F04104460E46154672
:102AF0005CB900274FF4F273744A49A14CA001F06D
:102B000002FF00BF002FFDD000BF012E10D12F46C5
:102B1000FDF72AFB804604F11400FFF768FEA78347
:102B20004046FDF725FB02F0C5FE0020BDE8F08120
:102B30004FF0FF30FAE72DE9F04104460D46164606
:102B40005CB9002740F20F23614A62A138A001F06E
:102B5000DAFE00BF002FFDD000BF2A46022120462A
:102B600002F0D5FC204601F0E5FA0120A083002008
:102B70002062FF20A0770020E0776672BDE8F08138
:102B800070B504465CB9002540F22E23564A51A187
:102B900027A001F0B8FE00BF002DFDD000BF04F15A
:102BA0001400FFF724FE204602F0D7FC002070BD81
:102BB0002DE9F04105460E4600BFFDF7D5FA8046E7
:102BC00001F0F6FA78B1494923A001F09CFE0027F4
:102BD00040F24923454A29A115A001F094FE00BF07
:102BE000002FFDD000BF4046FDF7C2FA00BF2946C6
:102BF000022002F0D4FC044614B92046BDE8F0815E
:102C0000204601F097FA0120A08300202062FF20D7
:102C1000A0770020E07766722046EFE76D0002089B
:102C200073656D20213D2052545F4E554C4C000081
:102C30002825732920617373657274206661696C3D
:102C400065642061742025733A2564200A00000021
:102C5000790002088700020846756E6374696F6E1A
:102C60005B25735D207368616C6C206E6F742075DA
:102C700073656420696E204953520A0030000000D9
:102C800095000208A30002081C01002046756E632F
:102C900074696F6E5B25735D207368616C6C206E68
:102CA0006F742062652075736564206265666F725B
:102CB00065207363686564756C65722073746172F6
:102CC000740A00002001002024010020AF00020847
:102CD000BE0002086D7574657820213D2052545F56
:102CE0004E554C4C00000000CC000208DC000208ED
:102CF00070B5044600BFFDF737FA064601F058FAF2
:102D000090B1FA49AFF2B00001F0FDFD002540F2AC
:102D10006A23F64AAFF29C01AFF2EC0001F0F3FD3A
:102D200000BF002DFDD000BF3046FDF721FA00BFE7
:102D30006CB900254FF41B73EC4AAFF26801AFF297
:102D4000101001F0E0FD00BF002DFDD000BF04F128
:102D50001400FFF74CFD204602F06BFC002070BD14
:102D60002DE9F347044600BFFDF7FEF9804602F067
:102D7000BDFF90B9DE49AFF2EC0001F0C4FD0026C2
:102D80004FF42273DA4AAFF20C11AFF25C1001F08B
:102D9000BAFD00BF002EFDD000BF00BFFDF7E4F973
:102DA000814601F005FA90B1D149AFF2541001F01B
:102DB000AAFD00264FF42273CD4AAFF24011AFF2C4
:102DC000901001F0A0FD00BF002EFDD000BF4846CE
:102DD000FDF7CEF900BF4046FDF7CAF900BF6CB958
:102DE000002640F28A23C24AAFF21811AFF2C01097
:102DF00001F089FD00BF002EFDD000BFFDF7B4F942
:102E0000074602F073FF054600BFBA48006818B1D4
:102E10002046B8490968884700BF00BF00BF0020AE
:102E20002863206AA84203D1E07F401CE07749E094
:102E3000A08B00280ADDA08B401EA083256295F898
:102E40003500A077E07F401CE0773BE0019848B96F
:102E50006FF0010028633846FDF78AF96FF0010032
:102E6000BDE8FC8700BF00BF95F83500216A91F8E6
:102E70003510884205DA05F135020221206A03F097
:102E800016F9627A294604F11400FFF77AFC0198DA
:102E900000280BDD00BF00BF01AA002105F14C0096
:102EA00003F038FB05F14C0003F06AFA3846FDF7F1
:102EB0005FF902F0FFFC286B08B1286BD0E7FDF743
:102EC00053F907463846FDF753F900BF8A480068B2
:102ED00018B1204688490968884700BF0020BFE72D
:102EE0002DE9F0470446002600BFFDF73DF9814675
:102EF00002F0FCFE90B98149AFF2702001F003FDB1
:102F0000002740F20D337D4AAFF29021AFF2E0206E
:102F100001F0F9FC00BF002FFDD000BF00BFFDF79E
:102F200023F9824601F044F990B17449AFF2D820F8
:102F300001F0E9FC002740F20D33704AAFF2C421E2
:102F4000AFF2143001F0DFFC00BF002FFDD000BF56
:102F50005046FDF70DF900BF4846FDF709F900BFDF
:102F600002F0C4FE0546FDF7FFF8804600BF00BF33
:102F700000BF6348006818B1204661490968884766
:102F800000BF206AA84209D04FF0FF3028634046B6
:102F9000FDF7EEF84FF0FF30BDE8F087E07F401E10
:102FA000E077E07F08BBA07F216A91F83510884266
:102FB00005D004F11E020221206A03F078F804F122
:102FC000140001F0AFF888B9142061690D1A00BF30
:102FD00000BF256295F83500A077E07F401CE077C0
:102FE00004F1140001F0AEF8012606E0A08B401CAD
:102FF000A08300202062FF20A0774046FDF7B8F8AC
:10300000012E01D102F056FC0020C5E703464FF027
:10301000FF3070472DE9F04104460D46164664B96D
:10302000002740F27B33374A37A1AFF2FC3001F082
:103030006AFC00BF002FFDD000BF2A4603212046B6
:1030400002F065FA6672204601F074F80020E06133
:10305000BDE8F08170B5044664B9002540F29733AD
:103060002E4A29A1AFF2384001F04DFC00BF002DDF
:10307000FDD000BF04F11400FFF7B9FB204602F0B9
:103080006CFA002070BD2DE9F04105460E4600BFE8
:10309000FDF76AF8804601F08BF890B12049AFF255
:1030A000484001F030FC00274FF46C731C4AAFF22B
:1030B0003441AFF2844001F026FC00BF002FFDD068
:1030C00000BF4046FDF754F800BF2946032002F038
:1030D00066FA044614B92046BDE8F08166722046BF
:1030E00001F028F80020E0612046F5E7EC00020836
:1030F000FC0002081C010020200100200A01020837
:10310000240100201B0102086576656E7420213DB4
:103110002052545F4E554C4C00000000290102081B
:103120003901020870B504466CB9002540F2CE336F
:10313000FB4AAFF22C01AFF2085001F0E4FB00BFF4
:10314000002DFDD000BF00BFFDF70EF8064601F0D0
:103150002FF890B1F249AFF2005001F0D4FB0025F6
:103160004FF47473EE4AAFF2EC41AFF23C5001F011
:10317000CAFB00BF002DFDD000BF3046FCF7F8FFB2
:1031800000BF04F11400FFF732FB204602F051FAB1
:10319000002070BD2DE9F05F04460F467CB94FF06A
:1031A000000A40F2EF33DF4AAFF2A401AFF28050E1
:1031B00001F0A9FB00BFBAF1000FFCD000BF1FB99E
:1031C0004FF0FF30BDE8F09F4FF0000800BFD64839
:1031D000006818B12046D4490968884700BFFCF749
:1031E000C3FF8346E0693843E06104F1140000F056
:1031F00099FFC0BB666932E01420351A4FF0FF39E1
:1032000095F8400010F0010F08D0E86BE169084024
:10321000E96B884211D14FF000090EE095F84000AB
:1032200010F0020F09D0E86BE169084205D0E86BA5
:10323000E1690840E8634FF000093668B9F1000F12
:103240000DD195F8400010F0040F03D0E069E96B50
:103250008843E061284602F04CFD4FF0010804F17C
:1032600014008642C8D15846FCF782FFB8F1010F1E
:1032700001D102F01FFB0020A4E72DE9FF4F83B02E
:1032800005460E461746DDF8408000BFFCF76CFF90
:10329000029002F02BFDA0B9A449AFF2106001F03A
:1032A00032FB4FF0000A40F24F43A04AAFF23461C4
:1032B000AFF2846001F027FB00BFBAF1000FFCD031
:1032C00000BF00BFFCF750FF019000F071FFA0B1FC
:1032D0009649AFF27C6001F016FB4FF0000A40F215
:1032E0004F43924AAFF26C61AFF2BC6001F00BFB4E
:1032F00000BFBAF1000FFCD000BF0198FCF738FF07
:1033000000BF0298FCF734FF00BF7DB94FF0000A00
:1033100040F25243854AAFF21021AFF2EC6001F067
:10332000F2FA00BFBAF1000FFCD000BF26B94FF08F
:10333000FF3007B0BDE8F08F4FF0FF3902F0D6FC48
:1033400004460021216300BF7948006818B128466F
:1033500077490968884700BFFCF706FF834617F0E6
:10336000010F06D0E8693040B0421BD14FF0000990
:1033700018E017F0020F05D0E869304212D04FF084
:1033800000090FE04FF0000A4FF48E63674AAFF276
:103390001471AFF2647001F0B6FA00BFBAF1000F19
:1033A000FCD000BFB9F1000F0AD1E8693040C8F87D
:1033B000000017F0040F2ED0E869B043E8612AE05E
:1033C000069818B96FF00100206324E0E66384F8E2
:1033D00040706A7A214605F11400FFF7D2F9069889
:1033E000002809DD06AA002104F14C0003F092F840
:1033F00004F14C0002F0C4FF5846FCF7B9FE02F09D
:1034000059FA206B08B1206B93E7FCF7ADFE8346B9
:10341000E06BC8F800005846FCF7AAFE00BF45481C
:10342000006818B1284643490968884700BF206BE7
:103430007FE72DE9F04104460D4690466CB9002621
:1034400040F2BE433C4AAFF24031AFF61C0001F0FF
:103450005AFA00BF002EFDD000BF012D10D1FCF79D
:1034600083FE074604F11400FFF7C1F90020E06174
:103470003846FCF77DFE02F01DFA0020BDE8F08121
:103480004FF0FF30FAE72DE9F04704460D461646A7
:103490001F46DDF8208074B94FF0000940F2EB437D
:1034A000264A27A1AFF6780001F02DFA00BFB9F146
:1034B000000FFCD000BF2A460421204602F027F866
:1034C00084F80980204600F035FEE661278400205C
:1034D0006084A084E08404F1280000F020FE002035
:1034E000BDE8F08770B5044664B9002540F20E537C
:1034F000174A13A1AFF6C80001F005FA00BF002D6E
:10350000FDD000BF04F11400FFF771F904F12800A9
:10351000FFF76DF9204602F020F8002070BD000092
:10352000490102085901020824010020670102082C
:103530001C010020200100207501020886010208FC
:103540006D6220213D2052545F4E554C4C000000CE
:10355000910102082DE9F04705460E46174600BFC7
:10356000FCF702FE814600F023FEA0B1FD49AFF654
:10357000181001F0C8F94FF0000840F22A53F94A38
:10358000AFF60811AFF6581001F0BDF900BFB8F161
:10359000000FFCD000BF4846FCF7EAFD00BF2946FB
:1035A000042001F0FCFF044614B92046BDE8F08772
:1035B0006772204600F0BEFD2684218C880001F051
:1035C0009DFBE061E06920B9204602F032F800205E
:1035D000ECE700206084A084E08404F1280000F07F
:1035E0009EFD2046E2E770B5044600BFFCF7BCFD37
:1035F000064600F0DDFD90B1DB49AFF6A41001F006
:1036000082F9002540F25553D74AAFF69011AFF634
:10361000E01001F078F900BF002DFDD000BF30466A
:10362000FCF7A6FD00BF6CB900254FF4AB63CE4A92
:10363000AFF2F401AFF6082001F065F900BF002DEC
:10364000FDD000BF04F11400FFF7D1F804F1280009
:10365000FFF7CDF8E06901F035FD204601F0E9FF04
:10366000002070BD2DE9F74F04460F467CB94FF09E
:10367000000840F28553BD4AAFF23C11AFF650202E
:1036800001F041F900BFB8F1000FFCD000BF0026E7
:1036900002F02CFB054600BFB548006818B1204673
:1036A000B3490968884700BFFCF75EFD8146608C1E
:1036B000218C884208D1029830B94846FCF758FD61
:1036C0006FF00200BDE8FE8F7BE0002028630298C7
:1036D00028B94846FCF74CFD6FF00200F2E700BF46
:1036E000FCF742FD824602F001FBA0B99F49AFF60C
:1036F000642001F008F94FF000084FF4B5639B4ACD
:10370000AFF68821AFF6D82001F0FDF800BFB8F180
:10371000000FFCD000BF00BFFCF726FD834600F081
:1037200047FDA0B19149AFF6D02001F0ECF84FF081
:1037300000084FF4B5638D4AAFF6C021AFF61030E4
:1037400001F0E1F800BFB8F1000FFCD000BF58460F
:10375000FCF70EFD00BF5046FCF70AFD00BF627A81
:10376000294604F12800FFF70CF8029800280EDD26
:10377000FEF713FD064600BF00BF02AA002105F1B7
:103780004C0002F0C7FE05F14C0002F0F9FD48467E
:10379000FCF7EEFC02F08EF8286B08B1286B91E77D
:1037A000FCF7E2FC8146029800280ADDFEF7F5FCF2
:1037B000861B0298801B02900298002801DA0020E4
:1037C0000290608C218C88423FF47FAFA18CE0692D
:1037D00040F82170A08C401CA084A08C218C8842D1
:1037E00001DB0020A084608C401C608404F1140084
:1037F00000F098FC50B904F1140000F0A3FC484616
:10380000FCF7B6FC02F056F800205BE74846FCF7F0
:10381000AFFC002056E770B504460D46002229464D
:103820002046FFF71FFF70BD2DE9F74F04460F46F6
:103830007CB94FF0000840F216634E4AAFF20031F7
:10384000AFF6144001F05FF800BFB8F1000FFCD0F4
:1038500000BF002602F04AFA054600BF464800684D
:1038600018B1204644490968884700BFFCF77CFC32
:103870008146608C40B9029830B94846FCF778FC24
:103880006FF00100BDE8FE8F89E0002028630298F8
:1038900030B94846FCF76CFC6FF001002863F1E793
:1038A00000BFFCF761FC824602F020FAA0B9314962
:1038B000AFF6284001F027F84FF0000840F23B63D4
:1038C0002C4AAFF64841AFF6984001F01CF800BF13
:1038D000B8F1000FFCD000BF00BFFCF745FC8346E9
:1038E00000F066FCA0B12349AFF6944001F00BF85C
:1038F0004FF0000840F23B631E4AAFF68041AFF63E
:10390000D04001F000F800BFB8F1000FFCD000BFBC
:103910005846FCF72DFC00BF5046FCF729FC00BFC1
:10392000627A294604F11400FEF72BFF0298002862
:103930000EDDFEF732FC064600BF00BF02AA0021E2
:1039400005F14C0002F0E6FD05F14C0002F018FD17
:103950004846FCF70DFC01F0ADFF286B70B1286BF9
:1039600090E700009E010208AB010208B8010208BE
:1039700024010020C80102081C010020FCF7F4FB10
:103980008146029800280ADDFEF707FC861B029894
:10399000801B02900298002801DA00200290608CBF
:1039A00000283FF472AFE18CE06950F821003860E4
:1039B000E08C401CE084E08C218C884201DB0020FC
:1039C000E084608C401E608404F1280000F0AAFBB3
:1039D00098B904F1280000F0B5FB4846FCF7C8FB95
:1039E00000BFFB48006818B12046F94909688847BC
:1039F00000BF01F05FFF002044E74846FCF7B8FB3A
:103A000000BFF348006818B12046F14909688847AB
:103A100000BF002036E72DE9F04104460D469046F0
:103A20006CB9002640F29963EA4AAFF2EC41AFF676
:103A3000006000F068FF00BF002EFDD000BF012D28
:103A400016D1FCF791FB074604F11400FEF7CFFEF8
:103A500004F12800FEF7CBFE00206084A084E084FF
:103A60003846FCF785FB01F025FF0020BDE8F0811A
:103A70004FF0FF30FAE72DE9FF5F04460F4690460E
:103A80009946DDF838A074B94FF0000B40F2D563C9
:103A9000D14AD2A1AFF6686000F035FF00BFBBF19C
:103AA000000FFCD000BF3A460521204601F02FFD53
:103AB0000F986072204600F03DFBC4F81C8009F1AD
:103AC000030020F003002084208C001DBAFBF0F0DE
:103AD00060840020A062E0622063002508E0208C62
:103AE000001DE16905FB0016206B306026636D1C2C
:103AF000608CA842F3DC0020A08404B0BDE8F09FF5
:103B000070B5044664B9002540F20673B74AB3A104
:103B1000AFF6E46000F0F7FE00BF002DFDD000BF5F
:103B200004F11400FEF763FE204601F016FD0020AC
:103B300070BD70B5044600BFFCF716FB064600F0EA
:103B400037FB90B1AA49AFF6F06000F0DCFE00252B
:103B50004FF4EC63A64AAFF6DC61AFF62C7000F0D0
:103B6000D2FE00BF002DFDD000BF3046FCF700FBA9
:103B700000BF64B9002540F263739D4A97A1AFF678
:103B8000507000F0C0FE00BF002DFDD000BF04F15A
:103B90001400FEF72CFEE06901F094FA204601F0D3
:103BA00048FD002070BD2DE9F84F07468846914634
:103BB0009A4600BFFCF7D8FA009000F0F9FAA0B1DD
:103BC0008C49AFF66C7000F09EFE4FF0000B40F297
:103BD0002673884AAFF65C71AFF6AC7000F093FEC6
:103BE00000BFBBF1000FFCD000BF0098FCF7C0FA8B
:103BF00000BF3946052001F0D2FC044614B9204626
:103C0000BDE8F88F84F809A0204600F093FA08F187
:103C1000030020F003002084A4F82290218C091DC9
:103C2000628C01FB02F001F069F8E061E06920B903
:103C30002046FFF77EFF0020E2E70020A062E0625E
:103C40002063002508E0208C001DE16905FB0016BB
:103C5000206B306026636D1C608CA842F3DC002072
:103C6000A0842046CCE72DE9F04704460F461646CF
:103C70006CB94FF0000840F289735F4A57A15F4862
:103C800000F041FE00BFB8F1000FFCD000BF6FB9DB
:103C90004FF0000840F28A73574A59A1574800F084
:103CA00032FE00BFB8F1000FFCD000BF6EB94FF07C
:103CB000000840F28B73504A56A1504800F023FE92
:103CC00000BFB8F1000FFCD000BF208CB04203D27F
:103CD0004FF0FF30BDE8F08700BF5148006818B1D1
:103CE00020464F490968884700BFFCF73DFA8146E6
:103CF000256B2DB94846FCF73BFA6FF00200E9E767
:103D0000286820634846FCF733FA002028603246D2
:103D10003946281D00F0A7FAFCF726FA8146E06A2A
:103D200008B1E06A0560E562A06A00B9A562A08CEE
:103D3000401CA08404F1140000F0F4F950B904F11F
:103D4000140000F0FFF94846FCF712FA01F0B2FD4A
:103D50000020BFE74846FCF70BFA0020BAE72DE940
:103D6000F04704460F4616466CB94FF0000840F283
:103D7000E1732C4A19A1214800F0C5FD00BFB8F13C
:103D8000000FFCD000BF6FB94FF0000840F2E273A3
:103D9000244A1BA1194800F0B6FD00BFB8F1000F7E
:103DA000FCD000BF6EB94FF0000840F2E3731D4A2B
:103DB00018A1124800F0A7FD00BFB8F1000FFCD019
:103DC00000BF208CB0422FD24FF0FF30BDE8F0870B
:103DD00020010020D3010208E10102086D712021B9
:103DE0003D2052545F4E554C4C000000EC0102083F
:103DF00006020208F901020813020208302C00082A
:103E000062756666657220213D2052545F4E554CA6
:103E10004C00000073697A6520213D2030000000CD
:103E2000240100201E02020800BFCC48006818B11F
:103E30002046CA490968884700BFFCF795F98146C2
:103E4000256B35B94846FCF793F96FF00200BDE8E1
:103E5000F087286820634846FCF78AF932463946DD
:103E6000281D00F000FAFCF77FF98146A06A28605F
:103E7000A562E06A00B9E562A08C401CA08404F150
:103E8000140000F04FF950B904F1140000F05AF991
:103E90004846FCF76DF901F00DFD0020D7E74846D4
:103EA000FCF766F90020D2E72DE9FF4F83B0044606
:103EB0000F46904674B94FF0000A40F63903A84AFD
:103EC000AFF2E801A74800F01EFD00BFBAF1000FF5
:103ED000FCD000BF77B94FF0000A40F63A03A04A81
:103EE000AFF2E4019F4800F00EFD00BFBAF1000FF1
:103EF000FCD000BFB8F1000F0ED14FF0000A40F621
:103F00003B03974AAFF2F401964800F0FCFC00BF77
:103F1000BAF1000FFCD000BF4FF0000901F0E6FE3F
:103F2000054600BF9048006818B120468E490968D0
:103F3000884700BFFCF718F98346A08C48B906985B
:103F400038B95846FCF714F96FF0010007B0BDE826
:103F5000F08F7CE000BFFCF707F9029001F0C6FE8D
:103F600098B97F497F485C3000F0CDFC4FF0000AE3
:103F700040F651037A4AAFF25C117A4800F0C3FC74
:103F800000BFBAF1000FFCD000BF00BFFCF7ECF897
:103F9000019000F00DF998B171497248283000F095
:103FA000B2FC4FF0000A40F651036D4AAFF2941193
:103FB0006C4800F0A8FC00BFBAF1000FFCD000BFB5
:103FC0000198FCF7D5F800BF0298FCF7D1F800BFC4
:103FD00000202863069830B95846FCF7C9F86FF0FE
:103FE00001002863B2E7627A294604F11400FEF763
:103FF000C8FB069800280EDDFEF7CFF8814600BF0B
:1040000000BF06AA002105F14C0002F083FA05F179
:104010004C0002F0B5F95846FCF7AAF801F04AFC4A
:10402000286B08B1286B91E7FCF79EF88346069849
:1040300000280CDDFEF7B1F8A0EB09090698A0EB0B
:10404000090006900698002801DA00200690A08C4E
:1040500000283FF47FAFA66A3068A062E06AB042F1
:1040600001D10020E062A08C401EA0845846FCF7DD
:104070007FF8208C404501D2208C00E0404602466B
:10408000311D384600F0EFF8FCF76EF88346206BE0
:10409000306026635846FCF76BF800BF3348006871
:1040A00018B1204631490968884700BF00204DE714
:1040B0002DE9F04704460E46914664B9002740F6C4
:1040C000BF032B4AAFF2EC21264800F01CFC00BFD6
:1040D000002FFDD000BF012E1ED1FCF745F8804611
:1040E00004F11400FEF783FB0AE0A56A2868A062C9
:1040F000E06AA84201D10020E062206B28602563BD
:10410000A06A0028F1D1A0844046FCF731F801F004
:10411000D1FB0020BDE8F0874FF0FF30FAE74060A8
:104120000060704701460868884201D1012070474D
:104130000020FCE710B5044604F11400FFF7EFFF80
:10414000002010BD70B50446142021680D1A00BF70
:1041500000BF284601F0CDFD002070BD24010020E5
:104160002B020208302C00081C0100202001002036
:104170003602020810B500BF00BFFBF7F5FF04468A
:104180000D480078401C0C4908702046FBF7F0FFF2
:1041900010BD10B500BF00BFFBF7E6FF04460648A0
:1041A0000078401E044908702046FBF7E1FF10BD6F
:1041B00001480078704700005800002010B5FFF754
:1041C000F7FF10B1FC48006810BD01F08FFD0446F8
:1041D00014B9F9480068F7E7206BF5E770B50446B5
:1041E000FFF7E6FF10B1F448046070BD01F07EFDFA
:1041F000054615B9F0480460F7E72C6300BFF4E703
:1042000010B5FFF7D5FF08B1EB4810BD01F06EFD0A
:10421000044614B104F13000F7E7E748F5E7F0B5DC
:104220000C460546E6B2042A15D310F0030F12D14E
:10423000014646EA062343EA034304E008C108C1F5
:1042400008C108C1103A102AF8D201E008C1121FB3
:10425000042AFBD20D4601E005F8016B1700A2F11C
:104260000102F9D1F0BD2DE9F0410F461646044692
:104270003D463346102B26D305F0030C04F003080B
:104280005CEA080C1FD121462A4610E052F804CB04
:1042900041F804CB52F804CB41F804CB52F804CBDC
:1042A00041F804CB52F804CB41F804CB103B102B5F
:1042B000ECD204E052F804CB41F804CB1B1F042BD2
:1042C000F8D20C46154603E015F801CB04F801CBF3
:1042D0005FEA030CA3F10103F6D1BDE8F08170B5EC
:1042E0000C46014623468B4210D29D188D420DD9B3
:1042F0001144134405E05D1E2B462E784D1E2946C1
:104300002E701500A2F10102F5D108E003E013F8C8
:10431000015B01F8015B1500A2F10102F7D170BD4C
:10432000F0B5034600201C460D4608E026782F789D
:10433000F61B300000D004E0641C6D1C521E002AE5
:10434000F4D800BFF0BD01460A4600E0521C1078C8
:104350000028FBD1501A7047F0B506460F46384684
:10436000FFF7F1FF05460DB93046F0BD3046FFF7C7
:10437000EAFF044609E0641E2A4639463046FFF744
:10438000CFFF08B93046F0E7761CAC42F3DA0020E4
:10439000EBE730B503460C4600BF13F8011B14F8D9
:1043A000012B412902DB5A2900DC2031412A02DBA2
:1043B0005A2A00DC2032914201D10029EDD1881A1D
:1043C00030BD70B50346A2B118460C4600BF14F8C4
:1043D000016B00F8016B3EB902E0002500F8015BBB
:1043E000551E2A00F9D102E0551E2A00EFD100BF68
:1043F00000BF184670BD30B5034600200BE011F831
:10440000015B1C78641B64B2200002D113F8015BCD
:1044100005B902E0521E002AF1D100BF30BD0246AC
:1044200001E0521C491C107818B110780B789842A2
:10443000F7D010780B78C01A704770B50446204644
:10444000FFF781FF451C284600F058FC06460EB9D0
:10445000002070BD2A4621463046FFF704FF304653
:10446000F7E770472DE9FF4F84B00D469846DDE928
:104470001274119B14F0400F02D0DFF840C101E02C
:10448000DFF83CC1E24614F0100F01D024F0010423
:1044900014F0010F02D04FF0300C01E04FF0200C6F
:1044A0000CF0FF09002614F0020F0DD0002A02DAEA
:1044B0002D26524208E014F0040F01D02B2603E011
:1044C00014F0080F00D02026002132B94FF0300B35
:1044D0008C46491C0DF80CB019E016E000BFB8F18D
:1044E0000A0F08D14FF00A0BB2FBFBFE0BFB1E2C90
:1044F000B2FBFBF202E002F00F0C120900BF1AF847
:104500000CB08C46491C0DF80CB0002AE6D1B9421B
:1045100000DD0F46DB1B14F0110F10D116B1002B7C
:1045200000DD5B1E06E0A84203D84FF0200C80F8A7
:1045300000C0401CB3F1000CA3F10103F3DC26B171
:10454000A84201D806705B1E401C14F0100F0AD15F
:1045500004E0A84201D880F80090401CB3F1000CA0
:10456000A3F10103F5DC06E0A84203D84FF0300CBC
:1045700080F800C0401CBC467F1E8C45F4DC06E081
:10458000A84203D81DF801C080F800C0401CB1F15A
:10459000000CA1F10101F3DC06E0A84203D84FF0C2
:1045A000200C80F800C0401CB3F1000CA3F1010303
:1045B000F3DC08B0BDE8F08F60000020550302086E
:1045C000440302080146002009E00B685A1C0A60F7
:1045D0001A7800EB800302EB4302A2F130000A6874
:1045E0001278303A0A2AF0D370472DE9FF4F89B08C
:1045F000804644460A984044451E454504D24FF043
:10460000FF35A5EB08000A906DE10B98007825288E
:1046100006D0AC4202D80B9800782070641C5FE191
:10462000002626E00B98401C0B900B9800782D2854
:1046300002D146F010061CE00B9800782B2802D11E
:1046400046F0040615E00B980078202802D146F0C9
:1046500008060EE00B980078232802D146F02006C9
:1046600007E00B980078302802D146F0010600E000
:1046700000E0D7E700BF4FF0FF370B9800783038E5
:104680000A2804D20BA8FFF79DFF07460EE00B98FF
:1046900000782A280AD10B98401C0B900C9880C8EF
:1046A0000C90002F02DA7F4246F010064FF0FF39DF
:1046B0000B9800782E281CD10B98401C0B900B985F
:1046C000007830380A2804D20BA8FFF77BFF814618
:1046D0000AE00B9800782A2806D10B98401C0B9012
:1046E0000C9850F8049B0C90B9F1000F01DA4FF0D0
:1046F0000009002004900B980078682803D00B98DC
:1047000000786C2805D10B98007804900B98401C19
:104710000B900A2005900B9800786F2874D00CDC61
:10472000632813D004DC25286FD058286ED18CE084
:1047300064286CD0692869D18EE0702869D073280C
:1047400024D0752877D0782860D181E016F0100F3A
:1047500008D104E0AC4201D820202070641C781EEF
:10476000071EF7DC0C9802C80C90C8B20790AC4248
:1047700001D807982070641C04E0AC4201D82020C6
:104780002070641C781E071EF7DCA9E00C980068F6
:1047900006900C98001D0C90069808B9C4A00690CD
:1047A0000698FFF7D0FD8346B9F1000F02DDCB4537
:1047B00000DDCB4616F0100F09D104E0AC4201D861
:1047C00020202070641C38467F1E5845F6DC0020EF
:1047D00008900BE0AC4202D8069800782070641C68
:1047E0000698401C06900898401C08900898584568
:1047F000F0DB04E0AC4201D820202070641C384675
:104800007F1E5845F6DC6BE01CE015E028E022E056
:10481000FFE7781C02D1082746F00106CDE90079B0
:1048200002960C9804C8102329460C902046FFF7E6
:1048300019FE044654E012E0AC4201D82520207055
:10484000641C4DE0082005901DE046F0400600BFC6
:104850001020059017E000BF46F0020600BF12E0EE
:10486000AC4201D825202070641C0B98007830B130
:10487000AC4202D80B9800782070641C02E00B98C0
:10488000401E0B902CE000BF04986C2807D10C98B8
:1048900050F804AB0C9016F0020F16D015E00498F7
:1048A00068280AD10C9802C81FFA81FA0C9016F0F9
:1048B000020F0AD00FFA8AFA07E00C9850F804ABFE
:1048C0000C9016F0020F00D000BFCDE900790296DF
:1048D000524629462046059BFFF7C4FD044600BF0B
:1048E0000B98401C0B900B98007800287FF48DAE3D
:1048F000AC4201D8207001E000202870A4EB080031
:104900000DB0BDE8F08F0FB438B505A800907F2139
:104910006948009B049AFFF768FE04467F2C00D983
:104920007F246648006818B96348FFF79AFD15E0D0
:1049300062480068C58A61480068C08A40F040004B
:104940005E490968C88223465B4A00215B480068CB
:10495000FDF79AFD59480068C58200BF38BC5DF874
:1049600014FB08B556A0FFF7CEFF58A0FFF7CBFF0A
:104970005FA3009300231A46022160A0FFF7C3FF44
:1049800066A0FFF7C0FF08BD0FB4F8B504460D469A
:1049900009A8009029462046009B089AFFF725FEAB
:1049A00006463046F8BC5DF814FB37B505460C46A4
:1049B00022464FF0FF312846029BFFF716FE3EBD10
:1049C0000FB438B5044606A800902046009A059911
:1049D000FFF7EBFF0546284638BC5DF814FB374867
:1049E0000068704770B50546344806682846FDF7EC
:1049F00005FC044664B13148006818B12F480068CE
:104A0000FDF7EBFC2D48046003210068FDF793FCE3
:104A1000304670BD2DE9F04107460C46E01C20F001
:104A20000304F81C20F0030000EB0408404600F0EB
:104A300065F9054665B1601E284201D12E1904E0D2
:104A4000601E2844611E20EA010646F8045C3546D3
:104A50002846BDE8F08170B5044654F8045C284649
:104A600000F030FB70BD014609B90020704711F01D
:104A7000FF0F04D0C8B2344A105C401CF6E711F4B2
:104A80007F4F05D03048C1F30722805C0930EDE745
:104A900011F47F0F05D02C48C1F30742805C113020
:104AA000E4E7294800EB116000781930DEE70000E8
:104AB000284E554C4C290000640B00205C0000205F
:104AC0000A205C207C202F0A000000002D20525478
:104AD000202D2020202020546872656164204F70B2
:104AE00065726174696E672053797374656D0A002D
:104AF0004F6374203234203230313600202F207C36
:104B0000205C202020202025642E25642E25642072
:104B10006275696C642025730A0000002032303011
:104B200036202D203230313320436F70797269671F
:104B300068742062792072742D74687265616420D3
:104B40007465616D0A00000044020208F5490860BE
:104B50007047F549086070472DE9F0410446F34875
:104B6000006884420AD200278D23F14AF1A1F9A0FE
:104B7000FFF7C9FE00BF002FFDD000BFFD48006851
:104B800084420AD300278E23E94AFBA1F1A0FFF754
:104B9000BAFE00BF002FFDD000BF608850B10027D3
:104BA0008F23E34AFFA1EBA0FFF7ADFE00BF002F6C
:104BB000FDD000BFDD49606809684518AC4215D0DA
:104BC000688898B9EB48006885420FD0F9480068BA
:104BD000A84201D1F748046068686060D348006863
:104BE000201AD24A6968126811448860CF49A068C7
:104BF00009684618A64211D0708878B9ED48006857
:104C0000A04201D1EB48066060687060C748006848
:104C1000301AC64A6168126811448860BDE8F081A4
:104C20002DE9F04705460E46E81C20F0030726F064
:104C3000030800BFFBF798FA8246FFF7B9FA80B184
:104C4000DD49DEA0FFF75FFE4FF00009BE23DA4A20
:104C5000E3A1C0A0FFF757FE00BFB9F1000FFCD0E1
:104C600000BF5046FBF784FA00BFB8F1180F09D90E
:104C7000A8F11800B84205D3A8EB07001838D949A5
:104C8000086006E032462946D7A0FFF73CFEBDE8A3
:104C9000F087A648076000BF00BF04684FF4F550D6
:104CA0002080D04800680C3060600020A0606080E8
:104CB0009E49606809680844AE4908604FF4F550A1
:104CC000096808800120AB4909684880C548006828
:104CD0000C30A84909684860C24800680C30A549F2
:104CE0000968886000230122CEA1D048FDF798FD15
:104CF0008E480068AF49086000BFC8E72DE9F0475B
:104D0000054600BFFBF730FA8246FFF751FA80B143
:104D1000C749AAA0FFF7F7FD4FF00009FB23C44ADB
:104D2000AFA18CA0FFF7EFFD00BFB9F1000FFCD0E1
:104D300000BF5046FBF71CFA00BF15B90020BDE8C4
:104D4000F087E81C20F00300A84201D000BF01E07A
:104D500000BF00BFE81C20F00305A24800688542A0
:104D600003D900BF00BF0020E9E70C2D00D20C25BD
:104D70004FF0FF31AD48FDF7F0FD8E4800686B49FC
:104D80000968461A93E16948006884196088D8BBAD
:104D900006F10C006168081AA84235D306F10C0030
:104DA0006168091A05F1180081422ED306F10C0042
:104DB00000EB05085D48006800EB080700207880DC
:104DC00060687860BE60C4F8048001206080854817
:104DD000796800680C30814205D0544978680968C8
:104DE0000844C0F808809348016805F10C000844A5
:104DF0009049086090480068096888421AD28D4836
:104E000000688D49086015E04DE101206080474948
:104E100060680968611A401A86490968084485492A
:104E20000860854800680968884203D281480068A4
:104E3000814908604FF4F55020805E480068844244
:104E40002AD107E05B48006840683849096808448F
:104E50005849086057480068408828B1554800689C
:104E6000444909688842EDD15248006841490968BF
:104E7000884211D04F480068408868B14FF000095F
:104E80004FF4AF736A4A6DA132A0FFF73CFD00BF3B
:104E9000B9F1000FFCD000BF6448FDF7FCFD04F140
:104EA0000C0028443349096888420DD94FF00009A5
:104EB0004FF4B1735E4A6B4926A0FFF724FD00BF93
:104EC000B9F1000FFCD000BF14F0030F0ED04FF06B
:104ED000000940F26313564A624948311DA0FFF7AA
:104EE00012FD00BFB9F1000FFCD000BF14F0030F9A
:104EF0000DD04FF000094FF4B2734D4A5AA115A0DE
:104F0000FFF701FD00BFB9F1000FFCD000BF00BFEB
:104F100000BF00BF0348006818B1294604F10C0027
:104F2000BAE0BCE064000020680000206C000020B3
:104F30008F0302082872745F75696E74385F74207D
:104F40002A296D656D203E3D20686561705F707433
:104F50007200000028257329206173736572742024
:104F60006661696C65642061742025733A2564204C
:104F70000A000000700000202872745F75696E746A
:104F8000385F74202A296D656D203C202872745F7B
:104F900075696E74385F74202A29686561705F6571
:104FA0006E6400006D656D2D3E75736564203D3D3A
:104FB00020300000740000209A03020846756E63DA
:104FC00074696F6E5B25735D207368616C6C206E15
:104FD0006F74207573656420696E204953520A000E
:104FE00030000000780000206D656D20696E6974E6
:104FF0002C206572726F7220626567696E20616431
:10500000647265737320307825782C20616E64207B
:10501000656E6420616464726573732030782578EE
:105020000A0000006865617000000000E40B0020C9
:10503000AE0302087C0000208000002028286C6657
:10504000726565203D3D20686561705F656E64290D
:10505000207C7C2028216C667265652D3E75736509
:1050600064292900D803020828282872745F75690A
:105070006E7433325F74296D656D292026202852A5
:10508000545F414C49474E5F53495A452D312929B8
:10509000203D3D2030000000D54A1268904700BFF7
:1050A00004F10C004BE6D348006830444668D2480F
:1050B0000068401BB0423FF666AED048FDF7EBFCFF
:1050C00000203CE62DE9F041054600BFFBF74CF817
:1050D0000746FFF76DF890B1C949AFF22010FFF70E
:1050E00012FC00264FF4FE73C54AAFF20C11AFF26A
:1050F0009C10FFF708FC00BF002EFDD000BF384613
:10510000FBF736F800BF0DB9BDE8F08115F0030FCD
:105110000CD000264FF40073B94ABAA1AFF2CC10FC
:10512000FFF7F1FB00BF002EFDD000BFB1480068C3
:10513000854203D3BF48006885420CD3002640F265
:105140000123AF4ABC49AFF2F410FFF7DCFB00BF0C
:10515000002EFDD000BF00BFB848006818B1284637
:10516000B6490968884700BFA2480068854203D352
:10517000B0480068854202D300BF00BFC4E7A5F174
:105180000C0400BF00BF4FF0FF319C48FDF7E5FB6A
:10519000608860B9002640F21B23994AA8A1AFF2AB
:1051A0004C20FFF7B0FB00BF002EFDD000BF2088D1
:1051B000B0F5F55F0CD000264FF40773904AA3A119
:1051C000AFF27020FFF79FFB00BF002EFDD000BFA5
:1051D000002060802080A4480068844201D2A24858
:1051E0000460844960680968611A401A9F49096827
:1051F000081A9E4908602046FFF7AEFC7F48FDF77D
:105200004AFC00BF80E72DE9FC5F06460C4600BF64
:10521000FAF7AAFF0190FEF7CBFFA0B19449AFF2D5
:105220006420FFF770FB002000904FF4C473904A95
:10523000AFF25421AFF2E420FFF765FB00BF009806
:105240000028FCD000BF0198FAF792FF00BFE01CD5
:1052500020F0030468480068844204D900BF00BFFE
:105260000020BDE8FC9F1EB92046FFF747FDF8E788
:105270004FF0FF316148FDF770FB5E4800688642E1
:1052800003D36C480068864204D35C48FDF703FCF6
:105290003046E6E7A6F10C0856480068A8EB00097E
:1052A000D8F80400A0EB0900A0F10C07A74204D134
:1052B0005248FDF7F0FB3046D3E704F11800B8423E
:1052C0002DD2381B69490968081A6849086009F134
:1052D0000C0000EB040A4748006800EB0A054FF495
:1052E000F550288000206880D8F804006860C5F870
:1052F0000890C8F804A04048696800680C308142F2
:1053000005D03C49686809680844C0F808A02846E8
:10531000FFF722FC3948FDF7BEFB3046A1E73748CE
:10532000FDF7B9FB2046FFF7E9FC8346BBF1000F10
:105330000CD0A74201D2384600E020460246314652
:105340005846FEF790FF3046FFF7BCFE584688E708
:105350002DE9F04104460D4600BFFAF705FF8046EF
:10536000FEF726FF90B14349AFF2B030FFF7CBFA1A
:10537000002740F2E5133F4AAFF29C31AFF22C40D8
:10538000FFF7C1FA00BF002FFDD000BF4046FAF77B
:10539000EFFE00BF04FB05F0FFF7B0FC06462EB1A0
:1053A00004FB05F200213046FEF739FF3046BDE828
:1053B000F08110B1104B1B68036011B12B4B1B68BF
:1053C0000B6012B12C4B1B681360704710B50A4874
:1053D00001682AA0FFF797FA244801682CA0FFF77C
:1053E00092FA254801682FA0FFF78DFA10BD000042
:1053F000640000206C00002078000020E40B0020F6
:10540000CD03020828282872745F75696E743332E0
:105410005F7429726D656D292026202852545F41E2
:105420004C49474E5F53495A452D312929203D3D6E
:1054300020300000700000206C040208680000208A
:105440006D656D2D3E757365640000006D656D2D95
:105450003E6D61676963203D3D20484541505F4D89
:105460004147494300000000740000207C000020F8
:10547000B8030208C303020880000020746F74613F
:105480006C206D656D6F72793A2025640A0000000A
:1054900075736564206D656D6F7279203A2025649F
:1054A0000A0000006D6178696D756D20616C6C6F2C
:1054B0006361746564206D656D6F72793A2025644F
:1054C0000A0000000268516002680A6001604860DA
:1054D0007047D0E900215160D0E9001211604060AE
:1054E00000607047954908607047954908607047AB
:1054F0009449086070479449086070479349086070
:10550000704770470146924800EB011070472DE943
:10551000F04104460D4616468D4800EB051745F050
:1055200080002072082231462046FEF74AFF00BF65
:105530008248006818B1204680490968884700BF42
:10554000FAF712FE804604F10C01381DFFF7BAFF8E
:105550004046FAF70DFEBDE8F08170B5044654B937
:105560000025FB237B4A7CA180A0FFF7CCF900BF7C
:10557000002DFDD000BF00BF7148006818B1204663
:105580006F490968884700BFFAF7EEFD064604F147
:105590000C00FFF79EFF3046FAF7EAFD70BD2DE9DB
:1055A000F04705460F4600BFFAF7DEFD8246FEF7DC
:1055B000FFFD88B1754976A0FFF7A5F94FF0000807
:1055C0004FF48C73714A7BA168A0FFF79CF900BF70
:1055D000B8F1000FFCD000BF5046FAF7C9FD00BF7C
:1055E0005B4800EB0516F068FFF788FB044614B92A
:1055F0000020BDE8F087257200206072082239463D
:105600002046FEF7DEFE00BF4C48006818B1204679
:105610004A490968884700BFFAF7A6FD814604F1A8
:105620000C01301DFFF74EFF4846FAF7A1FD20465A
:10563000DFE770B504465CB9002540F259135E4AB5
:1056400045A14AA0FFF75FF900BF002DFDD000BFC4
:10565000207A10F0800F0BD000254FF4AD73564A1E
:1056600056A142A0FFF74FF900BF002DFDD000BFAB
:1056700000BF3348006818B120463149096888479F
:1056800000BFFAF771FD064604F10C00FFF721FF99
:105690003046FAF76DFD2046FFF714FD70BD70B57A
:1056A00004465CB900254FF4BF734F4A2AA12FA0CE
:1056B000FFF729F900BF002DFDD000BF207A10F0C0
:1056C000800F01D0012070BD0020FCE72DE9F047DC
:1056D00005460E460DB1092E02DD0020BDE8F0871B
:1056E0004248007868B14FF0000940F29F13404AE9
:1056F00030A11EA0FFF707F900BFB9F1000FFCD0E1
:1057000000BF00F07DF9124800EB06177C680DE041
:105710000C20A4EB0008082229464046FEF76BFE49
:1057200018B900F07BF94046D8E72468381D844258
:10573000EED100F073F90020D0E700001401002042
:10574000180100201C01002020010020240100205D
:1057500084000020C80402086F626A656374202117
:105760003D2052545F4E554C4C00000028257329B3
:1057700020617373657274206661696C6564206171
:10578000742025733A2564200A000000D904020819
:1057900046756E6374696F6E5B25735D2073686117
:1057A0006C6C206E6F74207573656420696E20497F
:1057B00053520A0030000000EC04020821286F62F6
:1057C0006A6563742D3E7479706520262052545F9B
:1057D0004F626A6563745F436C6173735F53746196
:1057E0007469632900000000FD04020858000020CD
:1057F000170502089A490860704770B5044654B905
:1058000000255A23974A98A19CA0FFF77CF800BF77
:10581000002DFDD000BFA16AE069884205D9A18DA5
:10582000A06A0844E16988420CD221469BA0FFF798
:105830006AF804F019FEFAF797FC054600BF002D40
:10584000FDD108E0A06A2030E169814203D82146F9
:1058500099A0FFF758F870BD10B50020A449088042
:1058600000BF00BF002405E0A24901EBC40000F026
:10587000F4F8641C202CF7DB1F209F4908700020DF
:105880009E4908609E4908609E4800F0E6F810BDF9
:1058900070B59B480068FFF7E6F8451E954850F83C
:1058A000351014200C1A9548046004F11C00FAF716
:1058B00090FC70BD2DE9F041FAF756FC07468C4884
:1058C0000088A0BB8E480068FFF7CDF8461E8948C7
:1058D00050F8361014200C1A88480068844225D0ED
:1058E00085490E7085480568046000BF5C48006803
:1058F00020B1214628465A4A1268904700BF00BF8F
:1059000000BF2046FFF779FF7F48007830B904F1E7
:105910001C0105F11C00FAF72EFC07E000BF00BFD8
:1059200004F11C0105F11C00FAF725FC00BF384604
:10593000FAF71EFCBDE8F08170B504465CB900259D
:1059400040F20F13714A48A14CA0FEF7DCFF00BFE4
:10595000002DFDD000BFFAF707FC0646012084F8B1
:10596000340094F83520634B03EBC20004F11401BA
:105970004268116042684A604160086000BF00BF31
:1059800000BF5F49A06B096808435D490860304665
:10599000FAF7EEFB70BD70B504465CB9002540F225
:1059A0003D135B4A30A135A0FEF7ADFF00BF002DCF
:1059B000FDD000BFFAF7D8FB064600BF00BF04F1D8
:1059C0001400D0E900215160D0E90012116040605C
:1059D000006000BF94F83510464A02EBC100016830
:1059E000814201D1012100E0002129B14448A16B8D
:1059F00000688843424908603046FAF7B9FB70BD39
:105A000010B5FAF7B1FB044639480088401C00B2D3
:105A1000374908802046FAF7ABFB10BD10B5FAF7FE
:105A2000A3FB044632480088401E00B2304908807B
:105A30000846B0F90000002807DC00200880204656
:105A4000FAF796FBFFF736FF02E02046FAF790FBE5
:105A500010BD2748008880B27047406000607047E2
:105A600040010020260502087468726561642021E7
:105A70003D2052545F4E554C4C00000028257329A0
:105A800020617373657274206661696C656420615E
:105A9000742025733A2564200A000000746872653A
:105AA00061643A257320737461636B206F7665724D
:105AB000666C6F770A0000007761726E696E673AF4
:105AC00020257320737461636B20697320636C6F8E
:105AD000736520746F20656E64206F662073746137
