:020000040800F2
:10000000307E0020450100084D0800080F0200085E
:100010004F080008530800085708000800000000B7
:100020000000000000000000000000005B08000865
:100030005D0800080000000097010008BB7C000874
:100040005F0100085F0100085F0100085F01000810
:100050005F0100085F0100085F010008ED9E0008D5
:100060005F010008B1A400085F0100085F010008FB
:100070005F0100085F0100085F0100085F010008E0
:100080005F0100085F0100085F0100085F010008D0
:100090005F0100085F0100085F0100085F010008C0
:1000A0005F0100085F0100085F0100085F010008B0
:1000B000B3C100085F0100085F0100085F0100088C
:1000C0005F0100085F0100085F0100085F01000890
:1000D0005F0100088F7F00087FB500085F010008FE
:1000E0005F0100085F0100085F0100085F01000870
:1000F0005F0100085F0100085F0100085F01000860
:100100005F0100085F0100085F0100085F0100084F
:100110005F0100085F0100085F0100085F0100083F
:100120005F0100085F0100085F0100085F0100082F
:10013000DFF80CD025F0E0F900480047B5080008CA
:10014000307E00200648804706480047FEE7FEE76D
:10015000FEE7FEE7FEE7FEE7FEE7FEE7FEE7FEE777
:100160007136000831010008EFF3108072B6704755
:1001700080F310887047324A1368012B04D04FF087
:10018000010313602F4A10602F4A11602F484FF06F
:10019000805101607047EFF3108272B62848016801
:1001A00091B14FF0000101602648016829B1EFF3D9
:1001B000098121E9F00F0068016023490968096895
:1001C000B1E8F00F81F3098882F310884EF0040E35
:1001D00070471D4908601B494FF00000086018492E
:1001E0004FF0010008601A484FF47F01D0F800205A
:1001F00041EA0201016015484FF080510160154845
:100200000068006880F3088862B6704700BF1EF07F
:10021000040F18BFEFF3088008BFEFF3098020E94F
:10022000F00F40F804ED80F3088880F3098800B5EA
:1002300000F019F95DF804EB4EF0040E7047000071
:100240000C000020040000200800002004ED00E065
:1002500020ED00E008ED00E0F0B504460D4616463E
:10026000301D20F0070040380146002203E0B74F60
:1002700041F82270521C102AF9D30D624FF0000C85
:10028000C1F824C0C1F828C0C1F82CC0C1F830C0E2
:100290004B638C634FF0807CC1F83CC0F0BDAC492F
:1002A0000860704710B5ABA005F017FEAD48018897
:1002B000ADA005F012FE4FF0E020B0F82A0D10F0CE
:1002C000010F02D0AEA005F008FEA648008810F08D
:1002D000020F02D0ADA005F000FEA248008810F089
:1002E000040F02D0ACA005F0F8FD9E48008810F085
:1002F000080F02D0AAA005F0F0FD9A48008810F47B
:10030000807F02D0A8A005F0E8FD9648008810F490
:10031000007F02D0A7A005F0E0FD91A005F0DDFD73
:1003200010BD10B5A6A005F0D8FDA8480178A8A07A
:1003300005F0D3FD4FF0E02090F8290D10F0010FEB
:1003400002D0A9A005F0C9FDA048007810F0020F66
:1003500002D0A8A005F0C1FD9C48007810F0040F61
:1003600002D0A7A005F0B9FD9848007810F0080F5A
:1003700002D0A7A005F0B1FD9448007810F0100F4E
:1003800002D0A6A005F0A9FD9048007810F0800FDB
:1003900005D0A4480168A4A005F09FFD02E070A06C
:1003A00005F09BFD10BD10B5A3A005F096FDA74874
:1003B0000178A7A005F091FD4FF0E02090F8280DFE
:1003C00010F0010F02D0A8A005F087FD9F4800782B
:1003D00010F0020F02D0A7A005F07FFD9B48007827
:1003E00010F0080F02D0A6A005F077FD974800781E
:1003F00010F0100F02D0A5A005F06FFD9348007813
:1004000010F0800F05D0A4480168A4A005F065FD98
:1004100002E053A005F061FD10BD10B5A3480068CF
:1004200010F0020F02D0A2A005F057FD9F4800680F
:1004300010F0804F0ED06548007808B1FFF771FFCB
:100440008248007808B1FFF7AEFF4648008808B13F
:10045000FFF728FF9548006810F0004F02D09AA0DF
:1004600005F03BFD10BD70B505462C1D38480068F1
:1004700038B12846364909688847064606B970BD2E
:1004800000BF95A0E16B05F028FD97A0216A05F05B
:1004900024FD99A0616A05F020FD9BA0A16A05F0EA
:1004A0001CFD9DA0E16A05F018FD9FA0216805F0E4
:1004B00014FDA1A0616805F010FDA3A0A16805F0DE
:1004C0000CFDA5A0E16805F008FDA7A0216905F0D5
:1004D00004FDA9A0616905F000FDABA0A16905F0CC
:1004E000FCFCADA0E16905F0F8FCAFA0216B05F0C4
:1004F000F4FCB1A0616B05F0F0FCB3A0A16B05F0BA
:10050000ECFC286810F0040F09D006F0D9FE06466E
:100510000146B1A005F0E1FC0CF05EFC02E0B6A0E3
:1005200005F0DBFCFFF779FF00BFFEE710B5B9A0CF
:1005300005F0D3FC00244FF4B073BA4ABAA1BBA0B3
:1005400005F0CBFC00BF002CFDD010BDEFBEADDE32
:10055000000000207573616765206661756C743AF0
:100560000A0000002AED00E05343425F4346535225
:100570005F554653523A30782530325820000000FB
:10058000554E444546494E5354522000494E565309
:100590005441544520000000494E5650432000006D
:1005A0004E4F435020000000554E414C49474E45A8
:1005B0004420000044495642595A45524F200000F9
:1005C000627573206661756C743A0A0029ED00E06B
:1005D0005343425F434653525F424653523A307848
:1005E00025303258200000004942555345525220D0
:1005F000000000005052454349534552522000002C
:10060000494D505245434953455252200000000085
:10061000554E53544B4552522000000053544B4505
:100620005252200038ED00E05343422D3E424641F5
:10063000523A253038580A006D656D206D616E6143
:100640006765206661756C743A0A000028ED00E069
:100650005343425F434653525F4D4653523A3078BC
:1006600025303258200000004941434356494F4C41
:10067000200000004441434356494F4C20000000F5
:100680004D554E53544B4552522000004D53544B40
:10069000455252200000000034ED00E05343422D4B
:1006A0003E4D4D41523A253038580A002CED00E0BD
:1006B0006661696C656420766563746F7220666537
:1006C0007463680A000000006465627567206576DF
:1006D000656E740A000000007073723A203078254D
:1006E0003038780A000000007230303A2030782527
:1006F0003038780A000000007230313A2030782516
:100700003038780A000000007230323A2030782504
:100710003038780A000000007230333A20307825F3
:100720003038780A000000007230343A20307825E2
:100730003038780A000000007230353A20307825D1
:100740003038780A000000007230363A20307825C0
:100750003038780A000000007230373A20307825AF
:100760003038780A000000007230383A203078259E
:100770003038780A000000007230393A203078258D
:100780003038780A000000007231303A2030782585
:100790003038780A000000007231313A2030782574
:1007A0003038780A000000007231323A2030782563
:1007B0003038780A00000000206C723A203078252A
:1007C0003038780A000000002070633A2030782525
:1007D0003038780A00000000686172642066617534
:1007E0006C74206F6E207468726561643A202573A2
:1007F0000D0A0D0A000000006861726420666175D0
:100800006C74206F6E2068616E646C65720D0A0DE9
:100810000A00000073687574646F776E2E2E2E0ABE
:10082000000000001A5A0208300000002825732931
:1008300020617373657274206661696C6564206100
:10084000742025733A2564200A000000704700BF19
:10085000FEE700BFFEE700BFFEE7704770470000FD
:1008600004460D4617A005F038FB21461FA005F0F1
:1008700034FB294622A005F030FB00BFFEE710B58F
:1008800007F023FA05F057FB2249234805F0B2FC94
:1008900006F0CCFA07F0EFF907F0F9F900F0D3F819
:1008A00011F0FAF81DA010F0A8FC03F0FFF906F013
:1008B000D9FA10BD10B5FFF757FC0446FFF7DFFF6C
:1008C000002010BD0A0D2057726F6E672070617294
:1008D000616D657465722076616C75652064657400
:1008E0006563746564206F6E0D0A0000202020206F
:1008F00020202066696C65202025730D0A00000009
:10090000202020202020206C696E65202025640D89
:100910000A00000000000120307E00207561727422
:1009200031000000002100BF06E0002201E000BF0E
:10093000521C8242FBD3491C0829F6DB704734E085
:1009400009F0DDFD04468B480068F0B98A4800686C
:1009500040BB012C26D189A005F0BFFA8B48006866
:1009600009F02CFD89480068401C88490860086827
:1009700000EBD0714910A0EB4101844A11600120C5
:100980007D4908607B4908600CE07B4800680128CD
:1009900008D109F021FD012804D100207649086022
:1009A000744908600A2006F066FEC9E7002407F0D3
:1009B000C9F90EE0641C012007F0E1F94FF47A70E8
:1009C00006F059FE012007F0E6F94FF47A7006F0C0
:1009D00052FEEFE71FE06E480068401C6C4908605B
:1009E00008460068B0F57A7F01D10020086009F060
:1009F0005CFDA0420CD009F058FD0446224665A1DA
:100A0000674824F03BFE664A002102200BF009FBF8
:100A1000642006F030FEDEE710B504460BF01CFC47
:100A200060A010F0EAFB21F017FA09F0A7F81FF018
:100A3000C2FD5EA005F051FA002000F019F9322045
:100A400006F019FE10BD7FB55E48FFF76BFF0BF097
:100A500075FB0AF07FFC0AF0A1FC064601465AA08D
:100A600005F03BFA0AF043FC0BF029FA5DA20021E5
:100A700008460BF0D6FA09F0BFFC0AF0C2FD09F0F7
:100A80005EFA00F0ECFB00F062FE09F09DFD09F05B
:100A900091FD24F03CF80AF097FC0AF0BDFC052318
:100AA00014224FF4007152488DE80F000023514A80
:100AB00051A1524806F0CCFB044614B94F4806F049
:100AC0002FFC052315224FF400714D488DE80F00CF
:100AD00000234C4A4CA14E4806F0BAFB044614B918
:100AE0004B4806F01DFC0A2312224FF4807149483E
:100AF0008DE80F000023484A48A1494806F0A8FBAA
:100B0000044614B9464806F00BFC01231122590291
:100B100044488DE80F000023434A44A1444806F0AE
:100B200097FB044614B9424806F0FAFB022315224B
:100B3000190240488DE80F0000233F4A3FA1414879
:100B400006F086FB044614B93E4806F0E9FB142380
:100B50000822CDE9002313020022AFF243113AA08C
:100B600006F040FC054615B1284606F0D9FB0020EA
:100B700004B070BD14000020100000206B657931B6
:100B80005F696E707574206F6B0D0A001C00002089
:100B900020000020202020766F6C3A256420000081
:100BA000D004002075617274310000005443502F4E
:100BB000495020696E697469616C697A6564210ABB
:100BC0000000000020A107006765745F3438355FBE
:100BD0006164647265737328293D30782530780A22
:100BE0000000000020202077616E6F73000000007D
:100BF00078060020AD0900086C65640078080020C4
:100C00002C5D0020714F02087273343835000000EB
:100C10002C5F0020F80400203F0900086B65790074
:100C2000F8050020AC6700200951020873706900C4
:100C3000AC690020F8080020D50900086F6C6564D5
:100C400000000000F80A0020696E697400000000CE
:100C50000120E74908607047E5480068704710B513
:100C600004F072FD0020E249086004F07CFD10BD34
:100C70002DE9F04F8FB04FF0000A00244FF0FF3BFA
:100C8000002005900022012102201CF0F6FD0646FE
:100C9000401C05D1D7A005F020F90FB0BDE8F08FBA
:100CA000042004900423009304AB042240F6FF7157
:100CB00030461DF058FD02208DF829004CF25630C8
:100CC00012F0E4FBADF82A0000200B900822114638
:100CD0000CA804F08EFD10220AA930461CF0C3F9BE
:100CE000401C03D1C7A005F0F8F8D6E70321304631
:100CF0001CF0C6FA401C03D1C6A005F0EEF8CCE704
:100D00004AE110200E90B14600200390F11706EB47
:100D10005171C91003AA515C06F0070301229A40E1
:100D200011433046F21706EB5272D21003AB9954BE
:100D300010200E90002407E04FF0FF3004EB8401F8
:100D4000B84A42F82100641C032CF5DB23E1039828
:100D5000049000231A4604A909F1010000931CF035
:100D6000F9FE0290F11706EB5171C91004AA515C0B
:100D700006F0070301229A4011427AD0AAA005F09A
:100D8000ACF80EAA06A930461CF022F80546681CED
:100D900003D1ABA005F0A1F8FDE0BDF81A0012F0F8
:100DA0007BFB019007A81FF025FB534600900146EE
:100DB000A7A0019A05F091F80AF1010A00243EE08B
:100DC00004EB8400974951F82000002836DB00200E
:100DD000AB490860AB49086004EB8401914A52F8C2
:100DE00021001CF0A8F92146A7A005F076F804EB35
:100DF00084018C4A52F82100C11700EB5171C910CF
:100E000003AA515C04EB8402864B53F8222002F0C3
:100E1000070301229A40914304EB8402814B53F86B
:100E20002200C21700EB5272D21003AB99544FF05C
:100E3000FF3004EB84017B4A42F82100641C032C40
:100E4000BEDB002417E004EB8400764951F8200053
:100E500000280FDA04EB840041F8205004EB8400F2
:100E600001EB800006A991E80E10001DA0E80E100D
:100E700003E02BE0641C032CE5DB00BF012080496C
:100E8000086080480560032C02D185A005F025F894
:100E9000E91705EB5171C91003AA515C05F007036E
:100EA00001229A4011432846EA1705EB5272D210EC
:100EB00003AB99544D4500DDA9465C4500DDA346D2
:100EC0000298401E0290002800DC64E000245EE0EE
:100ED00004EB8400534951F82070002F00DA55E0EC
:100EE000F91707EB5171C91004AA515C07F0070309
:100EF00001229A40114248D000234FF480626D498C
:100F000038461CF0C5FBB0F1000821DC00205C492C
:100F100008605C49086038461CF00DF9F91707EBCA
:100F20005171C91003AA515C07F0070301229A40CE
:100F300091433846FA1707EB5272D21003AB99541B
:100F40004FF0FF3004EB8401364A42F8210016E0EE
:100F50000020584901F808004FEAE87108EB917148
:100F60008910B8EB81010AD1B8F1000F07D04146D2
:100F700051A004F0B2FF41464E4809F0B1FF02987B
:100F8000401E0290002800DC03E000BF641C5C45AA
:100F90009EDD00BF00BFDAE6059801287FF4B1AE00
:100FA00030461CF0C8F800BF77E62DE9F041054651
:100FB0000E4600243248006808B9BDE8F0810024DC
:100FC0000BE004EB8400174951F82000401C03D0CB
:100FD00004EB840051F82070641C032CF1DB002327
:100FE0003246294638461CF0F6FB00BFE5E7000014
:100FF00030000020536F636B6574206572726F72EE
:101000000A000000556E61626C6520746F20626991
:101010006E640A004C697374656E206572726F723B
:101020000A000000780F002061636365707420611E
:1010300020636F6E6E656374696F6E2E0A00000028
:1010400020616363657074206572726F72200A009C
:101050004920676F74206120636F6E6E65637469E9
:101060006F6E2066726F6D20282573202C202564FA
:10107000292C636F756E743A2564200A0000000005
:101080002800002024000020636C6F7365206F74BB
:1010900068657220636C69656E743A2564200A0085
:1010A000746F6F206D616E7920636C69656E747307
:1010B00000000000780B00207463703A2564206201
:1010C00079746573200D0A00002100BF06E000223C
:1010D00001E000BF521C8242FBD3491C0829F6DB09
:1010E00070472DE9F0478CB00FF2E8390FF2F43A6F
:1010F0004FF480774FF00008FD4807600020FD495D
:101100000860FDA004F0E9FE08A948461FF05BF85E
:1011100002208DF81D00452012F0B8F9ADF81E0030
:101120001122022108461CF0A8FB0646002E05DA13
:10113000FFA004F0D2FE0CB0BDE8F08741F2883089
:101140000B90042300930BAB41F20602D11F3046F3
:101150001DF009FB0020FC49087001204870524630
:10116000FAA1F948801C04F015FF841C0020F64900
:101170000855641C0819F6A2F4A104F00BFF0444FE
:101180000020F1490855641C1020029007AA029B18
:10119000CDE900230023224630461CF08AFA00BF26
:1011A00002AB03AACDE9002300234FF40172E64904
:1011B00030461CF0B6F80446002C03DA30461BF02B
:1011C000BAFFB8E78CB34FF4807000FB0875024695
:1011D000DD49091D28460AF0CCFB4FF4FA50FFF711
:1011E00073FF4FF48072DC4905F580700AF0C1FB93
:1011F0004FF4FA50FFF768FF08F10208D7A004F097
:101200006CFE0020D04908700420487003AA029B9D
:10121000CDE900230023042230461CF04AFAB548E9
:1012200000682044001FB3490860B4F5017FB7D0BF
:101230001CB9CBA004F051FE02E0CCA004F04DFE9E
:101240000422AC4900200AF094FBAA480168C9A016
:1012500004F043FE30461BF06EFF00BF6BE77CB529
:1012600000240025042608F022FF0AF061F8042279
:1012700001A900200AF0B1FBB0019D490860019866
:10128000401C04D0019810B10198401C03D1BDA0AE
:1012900004F023FE7CBDBFA0019904F01EFE42F2C3
:1012A0001070FFF711FF1021BD4800F0A6FC0024CC
:1012B00014E08F49096801EB8400042269460AF0B2
:1012C0008CFB002504E01DF8050008F018FF6D1CDC
:1012D000042DF8DB0A20FFF7F7FE641C019890FB51
:1012E000F6F0A042E5DC4FF47A70FFF7EDFE102136
:1012F000AB4800F080FC4FF47A70FFF7E5FE00BFCA
:10130000C8E710B5C2B04FF48074214601A823F09D
:1013100058FF042241A900200AF05FFB4198401CBD
:1013200004D0419810B14198401C04D195A004F01C
:10133000D4FD42B010BD97A0419904F0CEFD4FF40A
:1013400080740BE04FF4807201A920460AF011FB73
:1013500041F27070FFF7B8FE04F580744198C11730
:1013600000EB116109124FF4807202EB012101F5CB
:101370008071A142E6DC4FF47A70FFF7A5FE4FF4CE
:10138000807201A900200AF0F4FA40F6B830FFF7A5
:101390009BFE84A004F0A1FD00BFCAE770B506461D
:1013A0000D460024B5F5007F03DD83A004F095FD14
:1013B00070BD002410E06448015D86A004F08DFD3E
:1013C000601CC11700EB11710911B0EB011102D1C2
:1013D00082A004F082FD641CAC42ECDB00BFE7E7B6
:1013E0002DE9F0478CB082460F46904600253B46DB
:1013F0007BA24FF401715448CDF8008004F0AEFD9B
:1014000000221146504811F0A3FD8146B9F1000FAA
:1014100005DA75A004F061FD0CB0BDE8F08708A9FD
:1014200050461EF0D0FE02208DF81D00452012F01F
:101430002DF8ADF81E001122022108461CF01DFAFD
:101440000646002E06DA484611F0B1FD38A004F039
:1014500044FDE1E741F288300B90042300930BAB8D
:1014600041F20602D11F30461DF07DF900203649B9
:10147000087002204870424634A13348801C04F0B2
:1014800089FD841C002030490855641C081930A2CD
:101490002EA104F07FFD044400202B490855641C54
:1014A0001020029007AA029BCDE9002300232246C8
:1014B00030461CF0FEF802AB03AACDE9002300235E
:1014C0004FF40172204930461BF02BFF04461E48A2
:1014D000007897E03139322E3136382E32352E31C0
:1014E000300000006461626F782E6C64720000004E
:1014F00044000020400000202D2D2D2D2D2D757332
:10150000696E67207466747020746F20676574203C
:10151000647370206C6F616465722066696C652D00
:101520002D2D2D2D2D2D2D2D2D2D2D0D0A000000B5
:1015300063616E2774206372656174652061207336
:101540006F636B65740A0000B40F00202573000000
:101550006F63746574000000B81000202300000061
:1015600074696D656F75740A000000000A646F6E1F
:10157000650A000066696C6573697A653A256420BE
:10158000420A0000212162696E206572726F722129
:1015900021200A0062696E3A2025642042200A0058
:1015A0000008014065726173652066696E69736841
:1015B00065642E2E2E0A00006C656E206973206211
:1015C0006967676572207468616E20353132200A60
:1015D0000000000030782530327820000D0A00002D
:1015E00025732F257300000063616E2774206F70D0
:1015F000656E206C6F63616C2066696C656E616DF1
:10160000650A000048B937484078042805D13548B4
:10161000807810B93348C07830B133A004F05DFC55
:10162000484611F0C4FCF7E6012551E04FF4007282
:101630002C49091D484611F0DCFC04468CB1002001
:101640002849087003204870280A8870CD7003AAC2
:10165000029BCDE900230023221D30461CF029F80F
:1016600003E026A004F039FC33E002AB03AACDE985
:10167000002300234FF401721A4930461BF051FE3B
:10168000044604B317480078C8B9164840780428BF
:1016900015D114488078B0EB152F01D1012000E05E
:1016A000002010F0FF0F0AD00E48C078E9B288423F
:1016B00005D16D1CAFF25C1004F00FFC08E011A026
:1016C00004F00BFC05E01CB916A004F006FC00E0D9
:1016D000ACE700BF484611F06AFC30461BF02BFD1A
:1016E00000BF99E6B40F00207466747020736572B1
:1016F000766572206572726F720A0000646F6E65A3
:101700000A00000073657276657220726573706FEF
:101710006E646573207769746820616E20657272EB
:101720006F720A007365727665722074696D656FF9
:1017300075740A00002100BF06E0002201E000BF2E
:10174000521C8242FBD3491C0829F6DB704710B5B6
:1017500008F085FC6420FFF7EDFF00241EE08021E7
:10176000104800F04AFA6420FFF7E4FF0E4951F8F0
:10177000341041F0200008F0C2FC0B4901EBC40119
:10178000486808F0BCFC6420FFF7D4FF80210548BE
:1017900000F031FA6420FFF7CDFF641C022CDED389
:1017A00010BD0000001801404800002036490143E8
:1017B000364A1160704770B5002100230F22C478AB
:1017C0004CB3324C246804F4E064C4F5E0644FEA9E
:1017D0001421C1F1040322FA01F2447804FA03F15E
:1017E000847804EA020444EA01014FEA0111284C1A
:1017F0000678A155047804F01F054FF0010404FA9F
:1018000005F405784FEA65154FF0E02606EB8505EF
:10181000C5F8004109E0047804F01F050124AC403C
:101820001C4D0678761145F8264070BD1A4A0A40CC
:1018300002431A4B1A60704741B1194A126842EAD2
:1018400000024FF0E023C3F8102D07E0144A12689D
:1018500022EA00024FF0E023C3F8102D704704285D
:1018600008D14FF0E021096941F004014FF0E02276
:10187000116107E04FF0E021096921F004014FF008
:10188000E0221161704700000000FA050CED00E055
:1018900000E400E080E100E080FFFF1F08ED00E0D1
:1018A00010ED00E00020474908604749C1F80404F2
:1018B0004649086001F1040108604548454908604F
:1018C000704700213F498279DAB33F4AD2F80024B9
:1018D00003689A433C4BC3F800241A46D2F8042408
:1018E00003689A4301F104031A60027911440A68FB
:1018F000036842EA03020A60334AD2F80824036804
:1019000022EA0302304BC3F808241A46D2F80C240A
:10191000036822EA0302304B1A604279102A11D17F
:10192000294AD2F8082403681A43274BC3F808242D
:101930001A46D2F80C2403681A43234BC3F80C242C
:101940000EE007E01F49427911440A6803681A4310
:101950000A6005E0027911440A6803689A430A6044
:1019600070470021016001710C21417100218171DA
:1019700070471A49096841EA0001134AC2F8101475
:10198000704701460020134A12680A4201D0012024
:1019900000E0002070470F490860704701460020B2
:1019A0000022084B1B6803EA0102074BD3F81434EA
:1019B0000B4202D00AB1012000E000207047054927
:1019C0000860704700040140000001400804014025
:1019D000FFFF0F00140401400C04014010040140FB
:1019E00010B50446CA48844208D10121042000F001
:1019F00024FB0021042000F020FB46E0C54884427F
:101A000008D10121082000F018FB0021082000F077
:101A100014FB3AE0C048844208D10121102000F0B4
:101A20000CFB0021102000F008FB2EE0BB48844294
:101A300008D10121202000F000FB0021202000F02F
:101A4000FCFA22E0B648844208D10121402000F08F
:101A5000F4FA0021402000F0F0FA16E0B148844288
:101A600008D10121802000F0E8FA0021802000F058
:101A7000E4FA0AE0AC48844207D10121801500F065
:101A8000DCFA0021A01500F0D8FA10BD10B5012134
:101A9000084600F0D2FA0021012000F0CEFA10BD75
:101AA0002DE9F041024600250026002000230024F5
:101AB000002791F803C00CF00F0591F803C01CF04B
:101AC000100F03D091F802C04CEA0505B1F800C030
:101AD0001CF0FF0F31D0146800202BE04FF0010CF8
:101AE0000CFA00F3B1F800C00CEA03069E4220D1C4
:101AF00083004FF00F0C0CFA03F7BC4305FA03FC0C
:101B00004CEA040491F803C0BCF1280F06D14FF051
:101B1000010C0CFA00FCC2F814C00AE091F803C0F2
:101B2000BCF1480F05D14FF0010C0CFA00FCC2F8D3
:101B300010C0401C0828D1D31460B1F800C0BCF11B
:101B4000FF0F34DD546800202EE000F1080C4FF048
:101B5000010808FA0CF3B1F800C00CEA03069E4233
:101B600021D183004FF00F0C0CFA03F7BC4305FAA8
:101B700003FC4CEA040491F803C0BCF1280F05D122
:101B800000F1080C08FA0CF8C2F8148091F803C0B0
:101B9000BCF1480F07D100F1080C4FF0010808FA1A
:101BA0000CF8C2F81080401C0828CED35460BDE861
:101BB000F0814FF6FF710180022181700421C17014
:101BC00070470246002093680B4201D0012000E0DC
:101BD000002070470146886880B2704702460020A6
:101BE000D3680B4201D0012000E00020704701467D
:101BF000C86880B2704701617047416170470AB19F
:101C0000016100E041617047C16070474FF480326C
:101C10000A438261816182618269826970470246FA
:101C20000020424B18684FF68073184040EA0210BB
:101C300008433E4B186070473D49C8617047F0B596
:101C40000A46002300240021002500F00046B6F1DA
:101C5000004F02D1354EF16901E0344E7168C0F396
:101C6000034583B200F44016B6F5401F08D121F0B9
:101C700070612E4E766826F070662C4F7E6012E002
:101C800000F48016B6F5801F06D1032606FA05F487
:101C9000A14341F0706106E0460D360103FA06F6F5
:101CA000B14341F0706122B1460D360103FA06F6E8
:101CB000314300F00046B6F1004F02D11B4EF161F6
:101CC00001E01A4E7160F0BD30B500228B071C0F89
:101CD0000F2303FA04F2154B08338C1053F8243009
:101CE0009343124C08348D1044F8253023468C1051
:101CF00053F824308C07240F00FA04F423430B4CD0
:101D000008348D1044F8253030BD0A49086070470A
:101D100000080140000C0140001001400014014087
:101D200000180140001C014000200140000001405B
:101D300000002042DC002042DB48006840F0010047
:101D4000D949086008464068D8490840D6494860E3
:101D500008460068D6490840D3490860084600682C
:101D600020F4802008600846406820F4FE004860A7
:101D70004FF41F0088607047CB49096821F4803117
:101D8000C94A11601146096821F480211160B0F53B
:101D9000803F03D0B0F5802F0ED106E0C24909681C
:101DA00041F48031C04A116007E0BF49096841F43D
:101DB000A021BD4A116000E000BF00BF704710B510
:101DC00001460022002300204A11012A02D1B64C0C
:101DD000236806E0022A02D1B34C236A01E0B24C28
:101DE000636A01F01F02012494401C4201D00120CB
:101DF00000E0002010BD70B500240025002600BFC3
:101E00003120FFF7DCFF0646641CB4F5A06F01D05B
:101E1000002EF5D03120FFF7D2FF08B1012500E0F8
:101E20000025284670BD014600209F4A106820F01A
:101E3000F80040EAC100106070479E490860704792
:101E400002460020984B586820F47C1042EA0103B7
:101E50001843954B5860704796490866704701468D
:101E60000020914A506820F00300084350607047FA
:101E70008D48406800F00C007047014600208A4AF7
:101E8000506820F0F0000843506070470146002081
:101E9000854A506820F4E06008435060704701466E
:101EA0000020814A506820F4605040EAC100506030
:101EB000704729B17C4A527A02437B4B5A7206E042
:101EC000794A527AC343DBB21A40774B5A72704751
:101ED00079490860704701460020734A506820F431
:101EE00040400843506070470021744A11706E4AA8
:101EF00082F82010012802D0042808D103E0012133
:101F00006E4A117004E005216C4A117000E000BFB8
:101F100000BF70476A49086070476349096A014316
:101F2000614A1162704767490860704730B5002107
:101F30000022002400235C4D6D6805F00C0121B1E6
:101F4000042905D0082923D105E05F4D056022E072
:101F50005D4D05601FE0544D6D6805F47012524DE3
:101F60006D6805F48034022505EB92421CB9574D8B
:101F7000554305600BE04C4D6D6815F4003F03D0F0
:101F8000524D5543056002E04F4D5543056002E058
:101F90004D4D056000BF00BF434D6D6805F0F00179
:101FA00009094B4D6B5C0568DD4045603E4D6D6831
:101FB00005F4E061090A464D6B5C4568DD408560CB
:101FC000394D6D6805F46051C90A414D6B5C456837
:101FD000DD40C560344D6D6805F44041890B3D4DD1
:101FE0006B5CC568B5FBF3F5056130BD29B12E4AC0
:101FF000526902432C4B5A6104E02B4A52698243D6
:10200000294B5A61704729B1274A92690243264BEE
:102010009A6104E0244A92698243234B9A61704793
:1020200029B1214AD26902431F4BDA6104E01E4AFA
:10203000D26982431C4BDA61704729B11A4AD268CF
:102040000243194BDA6004E0174AD2688243164B08
:10205000DA60704729B1144A12690243124B1A61BF
:1020600004E0114A126982430F4B1A6170471A4902
:10207000086070470F49C86470470B49C8717047C2
:102080000948406A40F0807007494862704701463D
:102090000020054A92680A4201D0012000E0002099
:1020A0007047014988727047001002400000FFF835
:1020B000FFFFF6FE00004242D800424220100240DC
:1020C000800442423C04424200127A0000093D0072
:1020D00058000020680000204004424210B5044629
:1020E000BF48844208D101218014FFF7A6FF0021D8
:1020F000A014FFF7A2FF16E0BA48844208D10121DC
:102100000014FFF7A7FF00212014FFF7A3FF0AE048
:10211000B548844207D10121C013FFF79BFF00217E
:10212000E013FFF797FF10BD10B50022028802F4FC
:1021300041520B884C8823438C882343CC8823430B
:102140000C8923434C8923438C892343CC89234323
:102150001A430280838B4FF2FF74234083830B8AE0
:10216000038210BD2DE9F04F85B005460C464FF0B7
:10217000000902274FF000084FF0010B0026B2467D
:10218000A88B4FF240010840A88302202884B5F8AC
:102190001C90A068022801D100BF36E0A08810B9C9
:1021A0004FF0010B01E04FF0020B8E48854200D149
:1021B00000E000BF6846FFF7B9FEDDF800A0E08848
:1021C000B0F5007F0AD14FEA1A2000EB80004000F2
:1021D000A168B0FBF1F0401D86B20BE04FEA4B1056
:1021E000BAFBF0F000EB80004000A168B0FBF1F01A
:1021F000401D86B20A20B6FBF0F606F00108A6EBF9
:102200000800C0F34F074FEA0828022F01DBFF2F19
:1022100002DD02274FF00008E08840EA080038435A
:102220002884A088A189084361880843218808433D
:1022300040F4006040EA0909A5F81C9005B0BDE82B
:10224000F08F0021018041808180C1800181418126
:102250008181C18107210182704700210180418075
:102260008180C1800221816000218181704721B17C
:10227000028842F04002028004E002884FF6BF73F9
:102280001A400280704721B1828B42F480628283BF
:1022900004E0828B4FF6FF331A408283704770B59B
:1022A000002400230C110125A540ABB21AB185888A
:1022B0001D43858004E08588DE43B6B235408580C5
:1022C00070BD10B51AB183880B43838004E0838806
:1022D000CC43A4B22340838010BD81817047014666
:1022E00088897047A1F57E42FF3A04D0028842F403
:1022F0008072028004E002884FF6FF631A40028079
:10230000704721B1828842F00402828004E0828812
:102310004FF6FB731A408280704702884FF2FF73BA
:102320001A40028002880A4302807047018841F403
:1023300080510180704721B1028842F4005202802E
:1023400004E002884DF6FF731A400280704702468F
:102350000020012901D0108B00E0908A70470146CF
:10236000088A7047B1F5804F04D1028842F4804258
:10237000028004E002884BF6FF731A400280704727
:102380000246002013890B4201D0012000E000200A
:102390007047CA4302817047F0B50246002000240E
:1023A0000023002501F00F070126BE40B4B20B1137
:1023B00001269E40B3B2968806EA03051689264296
:1023C00002D00DB1012000E00020F0BD10B50022C8
:1023D00001F00F040123A3409AB2D343038110BD3F
:1023E0000030014000380040003C004010B5044679
:1023F000FF48844208D10121C014FFF71EFE0021CE
:10240000E014FFF71AFEC4E0B4F1804F08D10121B7
:102410000846FFF71FFE00210120FFF71BFEB8E072
:10242000F448844208D101210220FFF713FE002165
:102430000220FFF70FFEACE0EF48844208D10121F3
:102440000420FFF707FE00210420FFF703FEA0E0B1
:10245000EA48844208D101210820FFF7FBFD002152
:102460000820FFF7F7FD94E0E548844208D10121F8
:102470001020FFF7EFFD00211020FFF7EBFD88E0B3
:10248000E048844208D101212020FFF7E3FD00212C
:102490002020FFF7DFFD7CE0DB48844208D10121EA
:1024A0004014FFF7CAFD00216014FFF7C6FD70E07D
:1024B000D648844209D10121C804FFF7BEFD00219E
:1024C0004FF40020FFF7B9FD63E0D148844209D101
:1024D00001210805FFF7B1FD00214FF48010FFF73F
:1024E000ACFD56E0CB48844209D101214805FFF7F5
:1024F000A4FD00214FF40010FFF79FFD49E0C648FE
:10250000844208D101214020FFF7A4FD0021402092
:10251000FFF7A0FD3DE0C148844208D101218020A1
:10252000FFF798FD00218020FFF794FD31E0BC48C3
:10253000844208D101218015FFF78CFD0021A015F0
:10254000FFF788FD25E0B748844209D1012108043E
:10255000FFF773FD00214FF48030FFF76EFD18E0A8
:10256000B148844209D101214804FFF766FD0021EA
:102570004FF40030FFF761FD0BE0AC48844208D116
:1025800001218804FFF759FD00214FF48020FFF757
:1025900054FD10BD00220288954B98420ED09A4BF4
:1025A00098420BD0B0F1804F08D0924B984205D0A2
:1025B000914B984202D0914B984204D14FF68F73C1
:1025C0001A404B881A438E4B984207D08D4B984245
:1025D00004D04FF6FF431A40CB881A4302808B8801
:1025E00083850B880385824B98420BD0864B98429B
:1025F00008D08C4B984205D08B4B984202D08B4B25
:10260000984201D10B7A038601238382704770B50B
:10261000002400220023058C4FF6FE763540058409
:10262000028C8388048B4FF68F752C40B51E2C408E
:102630000D882C43751E2A400D892A434D882A4354
:102640006B4DA8420BD0704DA84208D0754DA842E2
:1026500005D0754DA84202D0744DA84213D14FF653
:10266000F7752A404D892A434FF6FB752A408D881D
:102670002A434FF6FF652B404FF6FF552B408D89BF
:102680002B43CD892B4383800483CD8885860284A8
:1026900070BD70B5002400220023058C4FF6EF7644
:1026A00035400584028C8388048B48F6FF752C40E6
:1026B0004FF6FF452C400D882D0644EA15444FF691
:1026C000DF752A400D892D0542EA15424D882D05FA
:1026D00042EA1542464DA84202D04B4DA8421BD1BA
:1026E0004FF67F752A404D892D0542EA15424FF677
:1026F000BF752A408D882D0542EA15424FF6FF35F9
:102700002B404FF2FF752B408D89AD0443EA1543F2
:10271000CD89AD0443EA154383800483CD880587C2
:10272000028470BD70B5002400220023058C4FF692
:10273000FF6635400584028C8388848B4FF68F7545
:102740002C404FF6FC752C400D882C434FF6FF555E
:102750002A400D892D0642EA15424D882D0642EA8F
:102760001542234DA84202D0274DA8421BD14FF25B
:10277000FF752A404D892D0642EA15424FF6FF3576
:102780002A408D882D0642EA15424EF6FF752B40F1
:102790004DF6FF752B408D892D0543EA1543CD89F4
:1027A0002D0543EA154383808483CD888587028481
:1027B00070BD70B5002200230024058C4EF6FF7614
:1027C00035400584038C8488828B48F6FF752A4047
:1027D0004FF6FF452A400D882D0642EA15424DF678
:1027E000FF752B400D892D0743EA15434D881FE0E7
:1027F000002C01400004004000080040000C004094
:10280000001000400014004000340140004C014022
:10281000005001400054014000180040001C0040DE
:1028200000200040004001400044014000480140B9
:102830002D0743EA1543F94DA84202D0F84DA842AE
:1028400006D14BF6FF752C408D89AD0544EA154441
:1028500084808283CD88A0F84050038470BD828B31
:102860004FF2FF331A408283828B0B0642EA1342F7
:1028700082837047F0B50C461546002200210026E1
:10288000078C4EF6FF7C07EA0C070784828B018CCD
:1028900027073E0C40F6FF473A402F0642EA174210
:1028A0001F0742EA1742DD4FB8420ED0DC4FB84254
:1028B0000BD0B0F1804F08D0DA4FB84205D0DA4FD4
:1028C000B84202D0D94FB84206D14DF6FF77394011
:1028D00046F48057394305E047F6FF57394044F442
:1028E0008057394382830184F0BD828B4FF6F373A6
:1028F0001A408283828B0A4382837047F0B50C466C
:102900001546002200210026078C4FF6FF6C07EACF
:102910000C070784828B018C27063E0C4FF60C7740
:102920003A401F0545EA17473A43BC4FB8420ED01C
:10293000BB4FB8420BD0B0F1804F08D0B94FB8426E
:1029400005D0B94FB84202D0B84FB84206D14FF6C1
:10295000FF57394046F48077394305E04FF2FF577F
:10296000394044F48077394382830184F0BD028B7F
:102970004FF2FF331A400283028B0B0642EA1342E6
:1029800002837047F0B50C46154600220021002650
:10299000078C4FF6EF7C07EA0C070784028B018C4B
:1029A00027053E0C40F6FF473A401F0742EA174210
:1029B0002F0642EA1742994FB8420ED0984FB842BC
:1029C0000BD0B0F1804F08D0964FB84205D0964F4B
:1029D000B84202D0954FB84206D14FF6DF77394062
:1029E00046F01007394305E04FF65F77394044F071
:1029F0001007394302830184F0BD028B4FF6F37355
:102A00001A400283028B0A4302837047F0B50C46DA
:102A1000154600220021068C4FF6FE773E400684C4
:102A2000028B018C4FF60C7632401E0545EA1646A5
:102A300032437A4EB0420ED0794EB0420BD0B0F154
:102A4000804F08D0774EB04205D0774EB04202D0CA
:102A5000764EB04206D14FF6FD76314044F0010685
:102A6000314305E04FF6F576314044F0010631433D
:102A700002830184F0BD70B505460C466748854267
:102A80000ED0674885420BD0B5F1804F08D065481D
:102A9000854205D06448854202D06448854200D111
:102AA00000E000BF208850B92389A28861882846A9
:102AB000FFF7ACFFE1882846FFF79FFF25E020885D
:102AC00004280AD12389A28861882846FFF75AFF83
:102AD000E1882846FFF74BFF17E0208808280AD135
:102AE0002389A28861882846FFF708FFE1882846E5
:102AF000FFF7FBFE09E02389A28861882846FFF7DB
:102B0000B9FEE1882846FFF7AAFE70BD2DE9F04125
:102B100005460C4600260127608808B9022600E019
:102B20000026A088012801D1022700E00127208883
:102B3000A0B92389A28861882846FFF767FFE1884A
:102B40002846FFF75AFF23893A4631462846FFF7C1
:102B500019FFE1882846FFF70AFF13E02389A288BE
:102B600061882846FFF70EFFE1882846FFF7FFFE41
:102B700023893A4631462846FFF748FFE188284630
:102B8000FFF73BFFBDE8F0810A884B881A438B882A
:102B90001A43CB881A430B891A434B891A438B89F2
:102BA0001A43A0F8442070474FF6FF71818000213E
:102BB0000180C18041800172704700210180418005
:102BC0008180C180018141818181C1817047002163
:102BD00001804180012181800021C18001817047F5
:102BE0000021018041808180C180018141818181FA
:102BF000704721B1028842F00102028004E002889D
:102C00004FF6FE731A400280704789B1B0F8442035
:102C100042F40042A0F8442010E00000002C0140E3
:102C2000003401400004004000080040000C004057
:102C3000B0F84420C2F30E02A0F84420704710B54B
:102C40001AB183890B43838104E08389CC43A4B206
:102C50002340838110BD8182704741EA0203A0F8BE
:102C60004830704710B51AB183890B43838104E063
:102C70008389CC43A4B22340838110BD01894FF6E0
:102C8000F8721140018170470A46002101894FF610
:102C90008F73194011430181704730B504460D46CA
:102CA00029462046FFF7F0FF208940F007002081E9
:102CB00030BD2DE9F04104460D4616461F46602DF5
:102CC00006D13B46012231462046FFF75BFE05E078
:102CD0003B46012231462046FFF798FE2946204612
:102CE000FFF7D2FF208940F007002081BDE8F08186
:102CF00030B50C4600210189C9B21D0642EA1545CE
:102D000025432943018130BD2DE9F04105460E469A
:102D100017469846002443463A4631462846FFF770
:102D2000E7FF2C894FF6F8710C4044F007044FF68A
:102D30008F710C4044F070042C81BDE8F081F0B537
:102D400004460D4616461F463B4632462946204657
:102D5000FFF7CEFF208940F480402081F0BD01853F
:102D6000828270470A46002101884FF68F7319400E
:102D7000114301807047F0B50C4615461E460021F0
:102D8000002200230189028B038C4FF6F87739402B
:102D900021434FF6FC473A4040F201173A434FF6C1
:102DA000DD773B40370545EA17473B430181028306
:102DB0000384F0BD0A460021018B4FF68F73194042
:102DC0001143018370470A460021018B48F6FF73C7
:102DD0001940130641EA1341018370470A46002156
:102DE000818B4FF68F7319401143818370470A46D8
:102DF0000021818B48F6FF731940130641EA134105
:102E00008183704721B1028842F08002028004E091
:102E100002884FF67F731A400280704721B1828882
:102E200042F00402828004E082884FF6FB731A406D
:102E30008280704721B1828842F00802828004E0DB
:102E400082884FF6F7731A408280704721B18288DA
:102E500042F00102828004E082884FF6FE731A403D
:102E6000828070470A460021018B4FF6F7731940A4
:102E70001143018370470A460021018B4FF2FF7313
:102E80001940130641EA1341018370470A460021A5
:102E9000818B4FF6F77319401143818370470A46BF
:102EA0000021818B4FF2FF731940130641EA134151
:102EB000818370470A460021018B4FF6FB7319404E
:102EC0001143018370470A460021018B4FF6FF33FF
:102ED0001940130641EA1341018370470A46002155
:102EE000818B4FF6FB7319401143818370470A466B
:102EF0000021818B4FF6FF331940130641EA13413D
:102F0000818370470A460021018B4FF67F73194079
:102F10001143018370470A460021018BC1F30E0162
:102F2000130641EA1341018370470A460021818B51
:102F30004FF67F7319401143818370470A46002181
:102F4000818BC1F30E01130641EA1341818370475F
:102F50000A460021018C4FF6FD731940114301848C
:102F600070470A460021018C4FF6F7731940114350
:102F7000018470470A460021018C4FF6DF73194027
:102F8000130541EA1341018470470A460021018C70
:102F90004FF67F731940130541EA134101847047CE
:102FA0000A460021018C4FF6FF531940130641EAEF
:102FB0001341018470470A460021018C4FF2FF73D0
:102FC0001940130641EA1341018470470A46002163
:102FD000018C4DF6FF731940130741EA1341018438
:102FE000704730B5002301248C40A3B2048CDD432C
:102FF000ADB22C400484048C02FA01F5ADB22C432E
:10300000048430BD30B5002304248C40A3B2048C6A
:10301000DD43ADB22C400484048C02FA01F5ADB25C
:103020002C43048430BD70B50346002000241846AC
:10303000183001258D40ACB21D8CE643B6B2354048
:103040001D8409B1082909D100EB6100056825F04C
:10305000700505600568154305600CE00D1FADB2F5
:1030600000EB6500056825F4E04505600568160677
:1030700045EA1645056070BD21B1028842F00202A2
:10308000028004E002884FF6FD731A400280704708
:1030900021B1028842F00402028004E002884FF667
:1030A000FB731A400280704721B1828842F080028F
:1030B000828004E082884FF67F731A4082807047D6
:1030C00002884FF6F7731A40028002880A43028092
:1030D000704782884FF68F731A40828082880A4335
:1030E0008280704702894FF6F8731A400281028984
:1030F0000A430281704702894FF67F731A400281AA
:1031000002890A4302817047818470478185704734
:10311000818670470187704781877047A0F840100B
:10312000704702884FF6FF431A40028002880A4324
:10313000028070470146888E70470146088F7047AD
:103140000146888F70470146B1F84000704701463C
:10315000888C70470146088D704702460020138A0C
:103160000B4201D0012000E000207047CA430282D8
:10317000704730B50246002000230024158A05EA76
:103180000103958905EA010413B10CB1012000E0A7
:10319000002030BDCA4302827047000010B50446CB
:1031A000FC48844209D101218803FEF746FF002133
:1031B0004FF48040FEF741FF32E0F748844209D1E6
:1031C00001214804FEF746FF00214FF40030FEF7CE
:1031D00041FF25E0F148844209D101218804FEF72E
:1031E00039FF00214FF48020FEF734FF18E0EC484F
:1031F000844209D10121C804FEF72CFF00214FF4BD
:103200000020FEF727FF0BE0E648844208D10121A9
:103210000805FEF71FFF00214FF48010FEF71AFF8C
:1032200010BD2DE9F04786B005460E460024A246A3
:1032300000BFA1460027B08900B100BF2F462C8AED
:103240004CF6FF700440F08804432C82AC894EF6A3
:10325000F3100440B088318908437189084304435E
:10326000AC81AC8A4FF6FF400440B0890443AC8285
:1032700001A8FEF75BFEC748874202D1DDF810A027
:1032800001E0DDF80CA0A88910F4004F08D00AEB8B
:10329000CA0000EB0A1031684900B0FBF1F807E002
:1032A0000AEBCA0000EB0A1031688900B0FBF1F8A4
:1032B0006420B8FBF0F004012009642101FB1089AF
:1032C000A88910F4004F08D0322000EBC900B0FBF1
:1032D000F1F000F00700044308E0322000EB091091
:1032E0006421B0FBF1F000F00F0004432C8106B024
:1032F000BDE8F0874FF41651016000218180C18044
:1033000001810C21418100218181704710B5024665
:103310000020108A4FF2FF0318400B884C8823438B
:103320008C882343CC8823431843108210BD00218E
:10333000018041808180C180704721B1828942F43F
:103340000052828104E082894DF6FF731A40828127
:103350007047F0B503460024002600250020A1F5A3
:1033600010676A3F00D100BF1846C1F3421401F054
:103370001F06012707FA06F5012C01D10C3004E0E5
:10338000022C01D1103000E014301AB107682F432D
:10339000076002E00768AF430760F0BD10B51AB1DF
:1033A000838A0B43838204E0838ACC43A4B2234004
:1033B000838210BD028A4FF6F0731A400282028A9D
:1033C0000A430282704782894FF2FF731A4082815A
:1033D00082890A438281704721B1828942F00202C8
:1033E000828104E082894FF6FD731A408281704722
:1033F000028A4FF6DF731A400282028A0A4302826F
:10340000704721B1028A42F48042028204E0028ABB
:103410004BF6FF731A4002827047C1F308028280A4
:10342000704701468888C0F308007047818941F0E1
:10343000010181817047028BD2B20283028B42EA82
:10344000012202837047028B02F47F420283028BC7
:103450000A430283704721B1828A42F020028282AD
:1034600004E0828A4FF6DF731A408282704721B1EE
:10347000828A42F01002828204E0828A4FF6EF7361
:103480001A408282704721B1828A42F00802828209
:1034900004E0828A4FF6F7731A408282704721B1A6
:1034A000828942F40042828103E08289C2F30E02E3
:1034B0008281704721B1828A42F40062828204E0F4
:1034C000828A4FF2FF731A4082827047828A4FF6D7
:1034D000FB731A408282828A0A438282704721B13A
:1034E000828A42F00202828204E0828A4FF6FD73F1
:1034F0001A408282704702460020B1F5007F00D159
:1035000000BF13880B4201D0012000E0002070476B
:1035100001F40072B2F5007F00D100BFCA430280FF
:10352000704770B502460024002300250020A1F555
:1035300010666A3E00D100BFC1F3421501F01F03BF
:10354000012606FA03F3012D02D19689334006E0E5
:10355000022D02D1168A334001E0968A33400C12C4
:10356000012606FA04F41688344013B10CB1012088
:1035700000E0002070BD10B500220023A1F510640A
:103580006A3C00D100BF0A1201249440A3B2DC437C
:10359000048010BD00380140004400400048004055
:1035A000004C00400050004000210020674A126893
:1035B00042F48032654B1A6000BF644A126802F41C
:1035C0000030491C10B9B1F5A06FF6D15F4A1268FE
:1035D00012F4003F01D0012000E00020012842D178
:1035E0005B4A126842F01002594B1A601A46126880
:1035F00022F003021A601A46126842F002021A60B0
:10360000524A5268514B5A601A4652685A601A46DA
:10361000526842F480625A601A46526822F47C1260
:103620005A601A46526842F4E8125A601A46126802
:1036300042F080721A6000BF444A126812F0007FA4
:10364000FAD0424A526822F00302404B5A601A46AE
:10365000526842F002025A6000BF3C4A526802F0CF
:103660000C02082AF9D1704710B5FFF79DFF10BD75
:1036700010B53648006840F001003449086008463B
:10368000406834490840314948600846006832497A
:1036900008402E4908600846006820F48020086031
:1036A0000846406820F4FE0048604FF41F00886020
:1036B000FFF7DAFF4FF000602849086010BD10B531
:1036C000002100200022214B5B6803F00C0121B196
:1036D000042906D0082928D107E0214B214C23607A
:1036E00027E01F4B1F4C236023E0184B5B6803F45B
:1036F0007010164B5B6803F48032022303EB90409A
:1037000022B9194B4343174C23600DE00F4B5B6804
:1037100013F4003F04D0144B4343124C236003E0E6
:103720000F4B43430F4C236003E00D4B0D4C2360C4
:1037300000BF00BF054B5B68C3F303130B4CE15C98
:10374000084B1B68CB40074C236010BD00100240A3
:10375000002002400000FFF8FFFFF6FE08ED00E049
:1037600000127A006C00002000093D00700000206B
:10377000704716480068704770B50446FCF7F4FCC3
:103780000546124804602846FCF7F2FC70BD10B5EF
:103790000E480068401C0D49086003F091FD044686
:1037A000A06C401EA064A06C18B9606CA06403F00B
:1037B00069FE04F0C7F910BD01464FF47A7201FBAF
:1037C00002F000F2E730B0FBF2F07047800000201A
:1037D0002DE9F041064603F073FD08B103F0FAFB52
:1037E000D74D6C6810E00C20271A08223146384665
:1037F00002F0EBF838B903F063FD08B103F0F8FB11
:103800003846BDE8F0812468281D8442EBD103F0DE
:1038100057FD08B103F0ECFB0020F2E770B5044659
:103820000D46164614B94FF0FF3070BD2846FFF71D
:10383000CFFF10B14FF0FF30F7E72A4607212046AF
:1038400003F04FF9E6820020A07600BFEDE770B5E7
:10385000044654B900254623BA4ABBA1BEA002F0D3
:103860003CFB00BF002DFDD000BF204603F05FF9F8
:10387000002070BD2DE9F041B14F7E6819E00C20A9
:10388000341AD4F82480B8F1000F11D0E08A10F077
:10389000100F0DD12046C04705462DB12A462146BE
:1038A000B5A002F01AFB03E0E08A40F01000E082CD
:1038B0003668381D8642E2D10020BDE8F08170B53F
:1038C0000446002554B90026B423B94A9EA1A2A0FB
:1038D00002F003FB00BF002EFDD000BF606A90B174
:1038E000E08A10F0100F0ED12046616A8847054625
:1038F0002DB12A462146A0A002F0EFFA03E0E08AAB
:1039000040F01000E082284670BD2DE9F0410446E9
:103910000E46002554B90027D723A64A8AA18EA0B7
:1039200002F0DBFA00BF002FFDD000BFE08A10F0EC
:10393000100F12D1606A60B12046616A884705465F
:103940003DB12A4621468CA002F0C7FA2846BDE8C0
:10395000F081E08A40F01000E082E08A10F0080F69
:1039600006D0208B10F0080F02D06FF00600EEE7B3
:10397000A07E401CA076A07E50B90027F5238D4A7A
:103980008DA175A002F0A9FA00BF002FFDD000BFE5
:10399000A06A20B131462046A26A904705460DB183
:1039A000A81D02D146F0080020832846CFE770B555
:1039B000044600255CB900264FF48873834A62A14F
:1039C00065A002F08AFA00BF002EFDD000BFA07EE5
:1039D00010B94FF0FF3070BDA07E401EA076A07ED3
:1039E00008B10020F7E7E06A18B12046E16A88478D
:1039F00005460DB1A81D01D1002020832846EAE725
:103A00002DE9F04104460D4616461F466CB94FF0AD
:103A1000000840F239136E4A4BA14FA002F05DFA44
:103A200000BFB8F1000FFCD000BFA07E30B94FF04E
:103A3000FF3001F0BDFE0020BDE8F081206B38B101
:103A40003B46324629462046D4F830C0E047F3E7EB
:103A50006FF0050001F0ACFE0020EDE72DE9F0412C
:103A600004460D4616461F466CB94FF0000840F25A
:103A70005F13584A34A138A002F02FFA00BFB8F102
:103A8000000FFCD000BFA07E30B94FF0FF3001F036
:103A90008FFE0020BDE8F081606B38B13B463246B6
:103AA00029462046D4F834C0E047F3E76FF005001C
:103AB00001F07EFE0020EDE72DE9F04104460D46C1
:103AC00016465CB9002740F27F13434A1EA122A08C
:103AD00002F003FA00BF002FFDD000BFA06B30B191
:103AE000324629462046A36B9847BDE8F081002066
:103AF000FBE770B504460D465CB900264FF4CC7365
:103B0000364A11A114A002F0E8F900BF002EFDD042
:103B100000BFE561002070BD70B504460D465CB97C
:103B2000002640F2AD132E4A07A10BA002F0D5F9F2
:103B300000BF002EFDD000BF2562002070BD000038
:103B400024010020E05A020864657620213D2052BD
:103B5000545F4E554C4C0000282573292061737327
:103B6000657274206661696C6564206174202573D8
:103B70003A2564200A000000546F20696E69746958
:103B8000616C697A65206465766963653A2573209E
:103B90006661696C65642E20546865206572726F79
:103BA0007220636F64652069732025640A00000039
:103BB000F55A0208045B02086465762D3E7265665C
:103BC0005F636F756E7420213D203000135B020827
:103BD000235B0208325B0208425B0208545B020866
:103BE0006E5B02083E49086070472DE9F0414CE0E9
:103BF00000BFFCF7B9FA074601F0C4FD70B13949BE
:103C000039A002F06AF900255623364A3FA140A0A8
:103C100002F063F900BF002DFDD000BF3846FCF76D
:103C2000A7FA00BFFCF7A0FA0646414800F04FF89B
:103C3000E8B93F48016814200C1A04F11400D0E9D7
:103C400000215160D0E9001211604060006000BFA7
:103C5000A06F10B12046A16F8847204603F009F8F5
:103C6000012808D13046FCF783FABDE8F0813046E0
:103C7000FCF77EFAF9E73046FCF77AFAA06A02F020
:103C80000BFD204602F0BFFF00BF294800F01FF8DF
:103C90000028ADD000BFE8E707E01148006810B188
:103CA0000F4800688047FFF7A0FFF6E71FB5202305
:103CB0001F22D9001F488DE80F0000231E4A1FA1B4
:103CC000204803F0C5FA1F4803F02AFB1FBD014638
:103CD0000868884201D1012070470020FCE70000FD
:103CE00084000020885B020846756E6374696F6EFD
:103CF0005B25735D207368616C6C206E6F7420753A
:103D000073656420696E204953520A003000000038
:103D10002825732920617373657274206661696C4C
:103D200065642061742025733A2564200A00000030
:103D30006801002038120020993C00087469646C06
:103D400065000000B81100204268116042684A60B6
:103D50004160086070472DE9F04105460C469046E9
:103D6000204603F0BBFBB8F1000F03D0B8F1010F00
:103D700023D105E004F114012846FFF7E5FF1CE01C
:103D80002E680FE01420371A94F8350097F8351094
:103D9000884206DA04F1140107F11400FFF7D4FF9A
:103DA00002E03668AE42EDD100BFAE4204D104F16C
:103DB00014012846FFF7C8FF00BF00BF0020BDE880
:103DC000F08170B505460EE0FCF7CEF906461420EA
:103DD00029680C1A4FF0FF302063204603F073FA75
:103DE0003046FCF7C5F9284601F086FC0028EBD0E8
:103DF000002070BD2DE9F04104460D4616461F46D1
:103E000064B94FF00008D823F94AFAA1FDA002F0E6
:103E100064F800BFB8F1000FFCD000BF2A460121B2
:103E2000204602F05EFE204601F06EFCA68367721B
:103E30000020BDE8F08170B5044654B90025F52393
:103E4000F84AECA1EFA002F048F800BF002DFDD029
:103E500000BF04F11400FFF7B4FF204602F067FE34
:103E6000002070BD2DE9F04705460E46174600BFFD
:103E7000FCF77AF9814601F085FC88B1EA49EBA0AC
:103E800002F02BF84FF0000840F21113E64AF0A1BF
:103E9000DCA002F022F800BFB8F1000FFCD000BF98
:103EA0004846FCF765F900BF2946012002F061FE93
:103EB000044614B92046BDE8F087204601F024FCF2
:103EC000A68367722046F6E770B5044600BFFCF78C
:103ED0004BF9064601F056FC78B1DE49D3A001F05B
:103EE000FCFF00254FF49873DA4AD9A1C5A001F070
:103EF000F4FF00BF002DFDD000BF3046FCF738F9BD
:103F000000BF5CB900254FF49973D24AB9A1BDA096
:103F100001F0E3FF00BF002DFDD000BF04F114004D
:103F2000FFF74FFF204602F06EFE002070BD2DE926
:103F3000F34705465DB9002640F24D13C64AADA1D0
:103F4000B0A001F0CAFF00BF002EFDD000BF00BF2F
:103F5000C248006818B12846C0490968884700BFB0
:103F6000FCF702F9074600BF00BFA88B002806DD5A
:103F7000A88B401EA8833846FCF7FAF863E0019846
:103F800030B93846FCF7F4F86FF00100BDE8FC8763
:103F900000BFFCF7E9F8804603F092F978B9AE4922
:103FA000AFA001F09AFF002640F26D13AA4AA8A123
:103FB00094A001F092FF00BF002EFDD000BF00BF13
:103FC000FCF7D2F8814601F0DDFB78B1A24997A059
:103FD00001F083FF002640F26D139F4A9CA189A047
:103FE00001F07BFF00BF002EFDD000BF4846FCF76C
:103FF000BFF800BF4046FCF7BBF800BF03F060F914
:1040000004460021216300BF00BF6A7A214605F102
:104010001400FFF7A0FE019800280BDD00BF00BFD1
:1040200001AA002104F14C0003F05EFD04F14C00F4
:1040300003F090FC3846FCF79BF802F025FF206B5C
:1040400008B1206BA2E700BF9348006818B128466A
:1040500091490968884700BF002097E710B50446DA
:1040600000212046FFF763FF10BD70B5044600BF76
:104070008A48006818B1204688490968884700BF07
:104080000025FCF771F8064600BF00BF04F11400DC
:1040900001F032FB28B904F1140001F03DFB0125C9
:1040A00002E0A08B401CA0833046FCF761F8012D94
:1040B00001D102F0E9FE002070BD2DE9F041044677
:1040C0000E4615465CB900274FF4F273744A49A1B5
:1040D0004CA001F002FF00BF002FFDD000BF012E59
:1040E00010D12F46FCF740F8804604F11400FFF78A
:1040F00068FEA7834046FCF73BF802F0C5FE0020AF
:10410000BDE8F0814FF0FF30FAE72DE9F0410446B9
:104110000D4616465CB9002740F20F23614A62A1A2
:1041200038A001F0DAFE00BF002FFDD000BF2A4604
:104130000221204602F0D5FC204601F0E5FA0120DC
:10414000A08300202062FF20A0770020E077667225
:10415000BDE8F08170B504465CB9002540F22E231D
:10416000564A51A127A001F0B8FE00BF002DFDD096
:1041700000BF04F11400FFF724FE204602F0D7FC34
:10418000002070BD2DE9F04105460E4600BFFBF74B
:10419000EBFF804601F0F6FA78B1494923A001F01F
:1041A0009CFE002740F24923454A29A115A001F0B1
:1041B00094FE00BF002FFDD000BF4046FBF7D8FFA4
:1041C00000BF2946022002F0D4FC044614B9204660
:1041D000BDE8F081204601F097FA0120A08300207D
:1041E0002062FF20A0770020E07766722046EFE78C
:1041F0009E5B020873656D20213D2052545F4E5531
:104200004C4C00002825732920617373657274205B
:104210006661696C65642061742025733A256420A9
:104220000A000000AA5B0208B85B020846756E63CC
:1042300074696F6E5B25735D207368616C6C206EB2
:104240006F74207573656420696E204953520A00AB
:1042500030000000C65B0208D45B02084C0100205D
:1042600046756E6374696F6E5B25735D207368615C
:104270006C6C206E6F7420626520757365642062BB
:1042800065666F7265207363686564756C6572201E
:1042900073746172740A0000500100205401002000
:1042A000E05B0208EF5B02086D7574657820213DC4
:1042B0002052545F4E554C4C00000000FD5B02083C
:1042C0000D5C020870B5044600BFFBF74DFF0646C3
:1042D00001F058FA90B1FA49AFF2B00001F0FDFDDB
:1042E000002540F26A23F64AAFF29C01AFF2EC00DF
:1042F00001F0F3FD00BF002DFDD000BF3046FBF7FD
:1043000037FF00BF6CB900254FF41B73EC4AAFF2C6
:104310006801AFF2101001F0E0FD00BF002DFDD0EC
:1043200000BF04F11400FFF74CFD204602F06BFCC7
:10433000002070BD2DE9F347044600BFFBF714FFD2
:10434000804602F0BDFF90B9DE49AFF2EC0001F00B
:10435000C4FD00264FF42273DA4AAFF20C11AFF21B
:104360005C1001F0BAFD00BF002EFDD000BF00BF01
:10437000FBF7FAFE814601F005FA90B1D149AFF2A0
:10438000541001F0AAFD00264FF42273CD4AAFF27B
:104390004011AFF2901001F0A0FD00BF002EFDD043
:1043A00000BF4846FBF7E4FE00BF4046FBF7E0FED7
:1043B00000BF6CB9002640F28A23C24AAFF218113E
:1043C000AFF2C01001F089FD00BF002EFDD000BF8C
:1043D000FBF7CAFE074602F073FF054600BFBA4866
:1043E000006818B12046B8490968884700BF00BF77
:1043F00000BF00202863206AA84203D1E07F401C50
:10440000E07749E0A08B00280ADDA08B401EA08346
:10441000256295F83500A077E07F401CE0773BE00F
:10442000019848B96FF0010028633846FBF7A0FEF9
:104430006FF00100BDE8FC8700BF00BF95F83500B4
:10444000216A91F83510884205DA05F1350202211A
:10445000206A03F016F9627A294604F11400FFF786
:104460007AFC019800280BDD00BF00BF01AA0021E3
:1044700005F14C0003F038FB05F14C0003F06AFA3B
:104480003846FBF775FE02F0FFFC286B08B1286B7D
:10449000D0E7FBF769FE07463846FBF769FE00BF29
:1044A0008A48006818B1204688490968884700BFD3
:1044B0000020BFE72DE9F0470446002600BFFBF7C8
:1044C00053FE814602F0FCFE90B98149AFF27020A4
:1044D00001F003FD002740F20D337D4AAFF2902139
:1044E000AFF2E02001F0F9FC00BF002FFDD000BFCB
:1044F00000BFFBF739FE824601F044F990B17449E0
:10450000AFF2D82001F0E9FC002740F20D33704AE9
:10451000AFF2C421AFF2143001F0DFFC00BF002F76
:10452000FDD000BF5046FBF723FE00BF4846FBF717
:104530001FFE00BF02F0C4FE0546FBF715FE8046D5
:1045400000BF00BF00BF6348006818B12046614942
:104550000968884700BF206AA84209D04FF0FF30A1
:1045600028634046FBF704FE4FF0FF30BDE8F087BC
:10457000E07F401EE077E07F08BBA07F216A91F8D2
:104580003510884205D004F11E020221206A03F092
:1045900078F804F1140001F0AFF888B914206169CB
:1045A0000D1A00BF00BF256295F83500A077E07FA7
:1045B000401CE07704F1140001F0AEF8012606E09B
:1045C000A08B401CA08300202062FF20A0774046E3
:1045D000FBF7CEFD012E01D102F056FC0020C5E70D
:1045E00003464FF0FF3070472DE9F04104460D4679
:1045F000164664B9002740F27B33374A37A1AFF241
:10460000FC3001F06AFC00BF002FFDD000BF2A463D
:104610000321204602F065FA6672204601F074F824
:104620000020E061BDE8F08170B5044664B9002562
:1046300040F297332E4A29A1AFF2384001F04DFCE9
:1046400000BF002DFDD000BF04F11400FFF7B9FB3F
:10465000204602F06CFA002070BD2DE9F0410546BD
:104660000E4600BFFBF780FD804601F08BF890B14D
:104670002049AFF2484001F030FC00274FF46C7342
:104680001C4AAFF23441AFF2844001F026FC00BF77
:10469000002FFDD000BF4046FBF76AFD00BF294652
:1046A000032002F066FA044614B92046BDE8F08102
:1046B0006672204601F028F80020E0612046F5E708
:1046C0001D5C02082D5C02084C01002050010020F6
:1046D0003B5C0208540100204C5C02086576656E64
:1046E0007420213D2052545F4E554C4C0000000078
:1046F0005A5C02086A5C020870B504466CB9002571
:1047000040F2CE33FB4AAFF22C01AFF2085001F079
:10471000E4FB00BF002DFDD000BF00BFFBF724FD70
:10472000064601F02FF890B1F249AFF2005001F0C7
:10473000D4FB00254FF47473EE4AAFF2EC41AFF2B4
:104740003C5001F0CAFB00BF002DFDD000BF304639
:10475000FBF70EFD00BF04F11400FFF732FB20460B
:1047600002F051FA002070BD2DE9F05F04460F46BB
:104770007CB94FF0000A40F2EF33DF4AAFF2A401F8
:10478000AFF2805001F0A9FB00BFBAF1000FFCD0DE
:1047900000BF1FB94FF0FF30BDE8F09F4FF0000899
:1047A00000BFD648006818B12046D4490968884738
:1047B00000BFFBF7D9FC8346E0693843E06104F1B0
:1047C000140000F099FFC0BB666932E01420351A6E
:1047D0004FF0FF3995F8400010F0010F08D0E86B5A
:1047E000E1690840E96B884211D14FF000090EE001
:1047F00095F8400010F0020F09D0E86BE16908421B
:1048000005D0E86BE1690840E8634FF000093668BD
:10481000B9F1000F0DD195F8400010F0040F03D04E
:10482000E069E96B8843E061284602F04CFD4FF0F7
:10483000010804F114008642C8D15846FBF798FCE1
:10484000B8F1010F01D102F01FFB0020A4E72DE910
:10485000FF4F83B005460E461746DDF8408000BF87
:10486000FBF782FC029002F02BFDA0B9A449AFF245
:10487000106001F032FB4FF0000A40F24F43A04AB3
:10488000AFF23461AFF2846001F027FB00BFBAF1F0
:10489000000FFCD000BF00BFFBF766FC019000F0EA
:1048A00071FFA0B19649AFF27C6001F016FB4FF0AA
:1048B000000A40F24F43924AAFF26C61AFF2BC6023
:1048C00001F00BFB00BFBAF1000FFCD000BF019854
:1048D000FBF74EFC00BF0298FBF74AFC00BF7DB916
:1048E0004FF0000A40F25243854AAFF21021AFF276
:1048F000EC6001F0F2FA00BFBAF1000FFCD000BF8B
:1049000026B94FF0FF3007B0BDE8F08F4FF0FF3908
:1049100002F0D6FC04460021216300BF79480068FC
:1049200018B1284677490968884700BFFBF71CFC87
:10493000834617F0010F06D0E8693040B0421BD122
:104940004FF0000918E017F0020F05D0E869304277
:1049500012D04FF000090FE04FF0000A4FF48E63C1
:10496000674AAFF21471AFF2647001F0B6FA00BF9B
:10497000BAF1000FFCD000BFB9F1000F0AD1E8690D
:104980003040C8F8000017F0040F2ED0E869B0439B
:10499000E8612AE0069818B96FF00100206324E06E
:1049A000E66384F840706A7A214605F11400FFF747
:1049B000D2F90698002809DD06AA002104F14C006E
:1049C00003F092F804F14C0002F0C4FF5846FBF7E4
:1049D000CFFB02F059FA206B08B1206B93E7FBF78D
:1049E000C3FB8346E06BC8F800005846FBF7C0FBEA
:1049F00000BF4548006818B1284643490968884700
:104A000000BF206B7FE72DE9F04104460D4690463C
:104A10006CB9002640F2BE433C4AAFF24031AFF6DB
:104A20001C0001F05AFA00BF002EFDD000BF012D7E
:104A300010D1FBF799FB074604F11400FFF7C1F909
:104A40000020E0613846FBF793FB02F01DFA0020DE
:104A5000BDE8F0814FF0FF30FAE72DE9F04704465A
:104A60000D4616461F46DDF8208074B94FF0000948
:104A700040F2EB43264A27A1AFF6780001F02DFA69
:104A800000BFB9F1000FFCD000BF2A460421204628
:104A900002F027F884F80980204600F035FEE66130
:104AA000278400206084A084E08404F1280000F0C2
:104AB00020FE0020BDE8F08770B5044664B90025EB
:104AC00040F20E53174A13A1AFF6C80001F005FAE1
:104AD00000BF002DFDD000BF04F11400FFF771F9F5
:104AE00004F12800FFF76DF9204602F020F80020BD
:104AF00070BD00007A5C02088A5C02085401002044
:104B0000985C02084C01002050010020A65C0208BD
:104B1000B75C02086D6220213D2052545F4E554C17
:104B20004C000000C25C02082DE9F04705460E4625
:104B3000174600BFFBF718FB814600F023FEA0B12B
:104B4000FD49AFF6181001F0C8F94FF0000840F227
:104B50002A53F94AAFF60811AFF6581001F0BDF923
:104B600000BFB8F1000FFCD000BF4846FBF700FBC8
:104B700000BF2946042001F0FCFF044614B920467A
:104B8000BDE8F0876772204600F0BEFD2684218CC8
:104B9000880001F09DFBE061E06920B9204602F049
:104BA00032F80020ECE700206084A084E08404F167
:104BB000280000F09EFD2046E2E770B5044600BFE5
:104BC000FBF7D2FA064600F0DDFD90B1DB49AFF607
:104BD000A41001F082F9002540F25553D74AAFF6F0
:104BE0009011AFF6E01001F078F900BF002DFDD074
:104BF00000BF3046FBF7BCFA00BF6CB900254FF48C
:104C0000AB63CE4AAFF2F401AFF6082001F065F9CC
:104C100000BF002DFDD000BF04F11400FFF7D1F854
:104C200004F12800FFF7CDF8E06901F035FD2046DA
:104C300001F0E9FF002070BD2DE9F74F04460F4653
:104C40007CB94FF0000840F28553BD4AAFF23C11E9
:104C5000AFF6502001F041F900BFB8F1000FFCD0D1
:104C600000BF002602F02CFB054600BFB5480068D7
:104C700018B12046B3490968884700BFFBF774FAAA
:104C80008146608C218C884208D1029830B9484610
:104C9000FBF76EFA6FF00200BDE8FE8F7BE00020AC
:104CA0002863029828B94846FBF762FA6FF00200C1
:104CB000F2E700BFFBF758FA824602F001FBA0B909
:104CC0009F49AFF6642001F008F94FF000084FF457
:104CD000B5639B4AAFF68821AFF6D82001F0FDF806
:104CE00000BFB8F1000FFCD000BF00BFFBF73CFADB
:104CF000834600F047FDA0B19149AFF6D02001F006
:104D0000ECF84FF000084FF4B5638D4AAFF6C021C0
:104D1000AFF6103001F0E1F800BFB8F1000FFCD0A1
:104D200000BF5846FBF724FA00BF5046FBF720FAB5
:104D300000BF627A294604F12800FFF70CF80298B8
:104D400000280EDDFEF715FD064600BF00BF02AAD3
:104D5000002105F14C0002F0C7FE05F14C0002F005
:104D6000F9FD4846FBF704FA02F08EF8286B08B10B
:104D7000286B91E7FBF7F8F98146029800280ADDD5
:104D8000FEF7F7FC861B0298801B02900298002811
:104D900001DA00200290608C218C88423FF47FAFC2
:104DA000A18CE06940F82170A08C401CA084A08CEC
:104DB000218C884201DB0020A084608C401C608430
:104DC00004F1140000F098FC50B904F1140000F054
:104DD000A3FC4846FBF7CCF902F056F800205BE74D
:104DE0004846FBF7C5F9002056E770B504460D4666
:104DF000002229462046FFF71FFF70BD2DE9F74F1F
:104E000004460F467CB94FF0000840F216634E4A44
:104E1000AFF20031AFF6144001F05FF800BFB8F117
:104E2000000FFCD000BF002602F04AFA054600BF82
:104E30004648006818B1204644490968884700BFC1
:104E4000FBF792F98146608C40B9029830B9484628
:104E5000FBF78EF96FF00100BDE8FE8F89E00020BE
:104E60002863029830B94846FBF782F96FF00100D9
:104E70002863F1E700BFFBF777F9824602F020FADA
:104E8000A0B93149AFF6284001F027F84FF00008EB
:104E900040F23B632C4AAFF64841AFF6984001F030
:104EA0001CF800BFB8F1000FFCD000BF00BFFBF73B
:104EB0005BF9834600F066FCA0B12349AFF694404D
:104EC00001F00BF84FF0000840F23B631E4AAFF6CA
:104ED0008041AFF6D04001F000F800BFB8F1000FFC
:104EE000FCD000BF5846FBF743F900BF5046FBF724
:104EF0003FF900BF627A294604F11400FEF72BFF48
:104F0000029800280EDDFEF734FC064600BF00BF05
:104F100002AA002105F14C0002F0E6FD05F14C006B
:104F200002F018FD4846FBF723F901F0ADFF286BAE
:104F300070B1286B90E70000CF5C0208DC5C0208CF
:104F4000E95C020854010020F95C02084C010020D1
:104F5000FBF70AF98146029800280ADDFEF709FCF2
:104F6000861B0298801B02900298002801DA00201C
:104F70000290608C00283FF472AFE18CE06950F839
:104F800021003860E08C401CE084E08C218C884259
:104F900001DB0020E084608C401E608404F1280066
:104FA00000F0AAFB98B904F1280000F0B5FB4846D0
:104FB000FBF7DEF800BFFB48006818B12046F9494E
:104FC0000968884700BF01F05FFF002044E74846BA
:104FD000FBF7CEF800BFF348006818B12046F1494E
:104FE0000968884700BF002036E72DE9F0410446F4
:104FF0000D4690466CB9002640F29963EA4AAFF23A
:10500000EC41AFF6006000F068FF00BF002EFDD05D
:1050100000BF012D16D1FBF7A7F8074604F11400D5
:10502000FEF7CFFE04F12800FEF7CBFE00206084DF
:10503000A084E0843846FBF79BF801F025FF0020B0
:10504000BDE8F0814FF0FF30FAE72DE9FF5F04463D
:105050000F4690469946DDF838A074B94FF0000B22
:1050600040F2D563D14AD2A1AFF6686000F035FFB7
:1050700000BFBBF1000FFCD000BF3A46052120461F
:1050800001F02FFD0F986072204600F03DFBC4F840
:105090001C8009F1030020F003002084208C001DF7
:1050A000BAFBF0F060840020A062E062206300257B
:1050B00008E0208C001DE16905FB0016206B3060C4
:1050C00026636D1C608CA842F3DC0020A08404B031
:1050D000BDE8F09F70B5044664B9002540F2067340
:1050E000B74AB3A1AFF6E46000F0F7FE00BF002DB1
:1050F000FDD000BF04F11400FEF763FE204601F06E
:1051000016FD002070BD70B5044600BFFBF72CF8FB
:10511000064600F037FB90B1AA49AFF6F06000F008
:10512000DCFE00254FF4EC63A64AAFF6DC61AFF677
:105130002C7000F0D2FE00BF002DFDD000BF304625
:10514000FBF716F800BF64B9002540F263739D4A6F
:1051500097A1AFF6507000F0C0FE00BF002DFDD04B
:1051600000BF04F11400FEF72CFEE06901F094FA90
:10517000204601F048FD002070BD2DE9F84F07469C
:10518000884691469A4600BFFAF7EEFF009000F07D
:10519000F9FAA0B18C49AFF66C7000F09EFE4FF0AA
:1051A000000B40F22673884AAFF65C71AFF6AC7024
:1051B00000F093FE00BFBBF1000FFCD000BF0098D1
:1051C000FAF7D6FF00BF3946052001F0D2FC0446AD
:1051D00014B92046BDE8F88F84F809A0204600F0F5
:1051E00093FA08F1030020F003002084A4F8229031
:1051F000218C091D628C01FB02F001F069F8E0616D
:10520000E06920B92046FFF77EFF0020E2E700209A
:10521000A062E0622063002508E0208C001DE169A7
:1052200005FB0016206B306026636D1C608CA84265
:10523000F3DC0020A0842046CCE72DE9F0470446AB
:105240000F4616466CB94FF0000840F289735F4A6A
:1052500057A15F4800F041FE00BFB8F1000FFCD03D
:1052600000BF6FB94FF0000840F28A73574A59A146
:10527000574800F032FE00BFB8F1000FFCD000BF6D
:105280006EB94FF0000840F28B73504A56A1504857
:1052900000F023FE00BFB8F1000FFCD000BF208C4F
:1052A000B04203D24FF0FF30BDE8F08700BF514855
:1052B000006818B120464F490968884700BFFAF7CF
:1052C00053FF8146256B2DB94846FAF751FF6FF021
:1052D0000200E9E7286820634846FAF749FF002002
:1052E000286032463946281D00F0A7FAFAF73CFF3D
:1052F0008146E06A08B1E06A0560E562A06A00B92B
:10530000A562A08C401CA08404F1140000F0F4F904
:1053100050B904F1140000F0FFF94846FAF728FFED
:1053200001F0B2FD0020BFE74846FAF721FF002058
:10533000BAE72DE9F04704460F4616466CB94FF020
:10534000000840F2E1732C4A19A1214800F0C5FD84
:1053500000BFB8F1000FFCD000BF6FB94FF00008DC
:1053600040F2E273244A1BA1194800F0B6FD00BFC9
:10537000B8F1000FFCD000BF6EB94FF0000840F24A
:10538000E3731D4A18A1124800F0A7FD00BFB8F151
:10539000000FFCD000BF208CB0422FD24FF0FF3066
:1053A000BDE8F08750010020045D0208125D02088C
:1053B0006D7120213D2052545F4E554C4C00000031
:1053C0001D5D0208375D02082A5D0208445D02087F
:1053D0000442000862756666657220213D205254C1
:1053E0005F4E554C4C00000073697A6520213D20CA
:1053F00030000000540100204F5D020800BFCC487F
:10540000006818B12046CA490968884700BFFAF702
:10541000ABFE8146256B35B94846FAF7A9FE6FF019
:105420000200BDE8F087286820634846FAF7A0FE2E
:1054300032463946281D00F000FAFAF795FE8146FB
:10544000A06A2860A562E06A00B9E562A08C401CF1
:10545000A08404F1140000F04FF950B904F11400D5
:1054600000F05AF94846FAF783FE01F00DFD0020DE
:10547000D7E74846FAF77CFE0020D2E72DE9FF4F38
:1054800083B004460F46904674B94FF0000A40F6C8
:105490003903A84AAFF2E801A74800F01EFD00BF9B
:1054A000BAF1000FFCD000BF77B94FF0000A40F608
:1054B0003A03A04AAFF2E4019F4800F00EFD00BF9E
:1054C000BAF1000FFCD000BFB8F1000F0ED14FF0C1
:1054D000000A40F63B03974AAFF2F401964800F009
:1054E000FCFC00BFBAF1000FFCD000BF4FF0000978
:1054F00001F0E6FE054600BF9048006818B120465E
:105500008E490968884700BFFAF72EFE8346A08CB3
:1055100048B9069838B95846FAF72AFE6FF00100E4
:1055200007B0BDE8F08F7CE000BFFAF71DFE0290E7
:1055300001F0C6FE98B97F497F485C3000F0CDFC91
:105540004FF0000A40F651037A4AAFF25C117A48F4
:1055500000F0C3FC00BFBAF1000FFCD000BF00BFD9
:10556000FAF702FE019000F00DF998B17149724806
:10557000283000F0B2FC4FF0000A40F651036D4AAB
:10558000AFF294116C4800F0A8FC00BFBAF1000F14
:10559000FCD000BF0198FAF7EBFD00BF0298FAF7C4
:1055A000E7FD00BF00202863069830B95846FAF797
:1055B000DFFD6FF001002863B2E7627A294604F14B
:1055C0001400FEF7C8FB069800280EDDFEF7D1F8A0
:1055D000814600BF00BF06AA002105F14C0002F081
:1055E00083FA05F14C0002F0B5F95846FAF7C0FD10
:1055F00001F04AFC286B08B1286B91E7FAF7B4FD7B
:105600008346069800280CDDFEF7B3F8A0EB0909E5
:105610000698A0EB090006900698002801DA002001
:105620000690A08C00283FF47FAFA66A3068A06285
:10563000E06AB04201D10020E062A08C401EA0844C
:105640005846FAF795FD208C404501D2208C00E0A9
:1056500040460246311D384600F0EFF8FAF784FD67
:105660008346206B306026635846FAF781FD00BF01
:105670003348006818B1204631490968884700BF9F
:1056800000204DE72DE9F04704460E46914664B9E7
:10569000002740F6BF032B4AAFF2EC21264800F06A
:1056A0001CFC00BF002FFDD000BF012E1ED1FAF759
:1056B0005BFD804604F11400FEF783FB0AE0A56A57
:1056C0002868A062E06AA84201D10020E062206B55
:1056D00028602563A06A0028F1D1A0844046FAF72B
:1056E00047FD01F0D1FB0020BDE8F0874FF0FF300F
:1056F000FAE740600060704701460868884201D1BF
:10570000012070470020FCE710B5044604F11400A6
:10571000FFF7EFFF002010BD70B50446142021688C
:105720000D1A00BF00BF284601F0CDFD002070BD5E
:10573000540100205C5D0208044200084C01002076
:1057400050010020675D020810B500BF00BFFAF7E6
:105750000BFD04460D480078401C0C49087020469B
:10576000FAF706FD10BD10B500BF00BFFAF7FCFC4C
:10577000044606480078401E044908702046FAF79F
:10578000F7FC10BD01480078704700008800002039
:1057900010B5FFF7F7FF10B1FC48006810BD01F02D
:1057A0008FFD044614B9F9480068F7E7206BF5E768
:1057B00070B50446FFF7E6FF10B1F448046070BD11
:1057C00001F07EFD054615B9F0480460F7E72C634B
:1057D00000BFF4E710B5FFF7D5FF08B1EB4810BDE7
:1057E00001F06EFD044614B104F13000F7E7E7481C
:1057F000F5E7F0B50C460546E6B2042A15D310F0DD
:10580000030F12D1014646EA062343EA034304E0AC
:1058100008C108C108C108C1103A102AF8D201E035
:1058200008C1121F042AFBD20D4601E005F8016BE6
:105830001700A2F10102F9D1F0BD2DE9F0410F46A8
:10584000164604463D463346102B26D305F0030C7E
:1058500004F003085CEA080C1FD121462A4610E038
:1058600052F804CB41F804CB52F804CB41F804CBF6
:1058700052F804CB41F804CB52F804CB41F804CBE6
:10588000103B102BECD204E052F804CB41F804CBCF
:105890001B1F042BF8D20C46154603E015F801CB6C
:1058A00004F801CB5FEA030CA3F10103F6D1BDE8D4
:1058B000F08170B50C46014623468B4210D29D18EC
:1058C0008D420DD91144134405E05D1E2B462E7800
:1058D0004D1E29462E701500A2F10102F5D108E0F7
:1058E00003E013F8015B01F8015B1500A2F101026E
:1058F000F7D170BDF0B5034600201C460D4608E008
:1059000026782F78F61B300000D004E0641C6D1C54
:10591000521E002AF4D800BFF0BD01460A4600E03E
:10592000521C10780028FBD1501A7047F0B506467B
:105930000F463846FFF7F1FF05460DB93046F0BD7A
:105940003046FFF7EAFF044609E0641E2A4639465E
:105950003046FFF7CFFF08B93046F0E7761CAC427F
:10596000F3DA0020EBE730B503460C4600BF13F82E
:10597000011B14F8012B412902DB5A2900DC2031DC
:10598000412A02DB5A2A00DC2032914201D100294F
:10599000EDD1881A30BD70B50346A2B118460C4649
:1059A00000BF14F8016B00F8016B3EB902E000255E
:1059B00000F8015B551E2A00F9D102E0551E2A00AD
:1059C000EFD100BF00BF184670BD30B503460020C0
:1059D0000BE011F8015B1C78641B64B2200002D15B
:1059E00013F8015B05B902E0521E002AF1D100BF95
:1059F00030BD024601E0521C491C107818B11078E5
:105A00000B789842F7D010780B78C01A704770B5B1
:105A100004462046FFF781FF451C284600F058FC4D
:105A200006460EB9002070BD2A4621463046FFF7D3
:105A300004FF3046F7E770472DE9FF4F84B00D466D
:105A40009846DDE91274119B14F0400F02D0DFF884
:105A500040C101E0DFF83CC1E24614F0100F01D074
:105A600024F0010414F0010F02D04FF0300C01E0DB
:105A70004FF0200C0CF0FF09002614F0020F0DD09F
:105A8000002A02DA2D26524208E014F0040F01D059
:105A90002B2603E014F0080F00D02026002132B995
:105AA0004FF0300B8C46491C0DF80CB019E016E095
:105AB00000BFB8F10A0F08D14FF00A0BB2FBFBFE92
:105AC0000BFB1E2CB2FBFBF202E002F00F0C1209E2
:105AD00000BF1AF80CB08C46491C0DF80CB0002A17
